:020000040800F2
:10000000480E0020794B0008D1020008D3020008F6
:10001000D7020008DB020008DF0200080000000031
:10002000000000000000000000000000E3020008E3
:10003000E502000800000000E7020008E9020008ED
:10004000934B0008934B0008934B0008934B000818
:10005000934B0008934B0008934B0008934B000808
:10006000934B0008934B0008934B0008934B0008F8
:10007000934B0008934B0008934B0008934B0008E8
:10008000934B0008934B0008934B0008934B0008D8
:10009000934B0008934B0008934B0008934B0008C8
:1000A000934B0008934B0008934B0008934B0008B8
:1000B000DF2B0008934B00082B320008934B0008FD
:1000C000934B0008934B0008934B0008934B000898
:1000D000934B0008E7490008D93B0008953F00080A
:1000E000934B0008934B0008934B0008934B000878
:1000F000934B000843370008934B0008934B0008CC
:10010000934B0008934B000813320008934B0008F0
:10011000F5410008ED430008934B0008934B00089D
:10012000934B0008934B0008934B0008934B000837
:10013000934B0008934B0008934B0008934B000827
:10014000934B0008934B0008934B0008934B000817
:10015000934B0008934B0008934B0008934B000807
:10016000934B0008934B0008934B0008934B0008F7
:10017000934B0008934B0008934B0008934B0008E7
:10018000934B0008934B000800F002F800F06CF865
:100190000AA090E8000C82448344AAF10107DA45E2
:1001A00001D100F061F8AFF2090EBAE80F0013F0C8
:1001B000010F18BFFB1A43F001031847F495000024
:1001C000149600000A444FF0000C10F8013B13F0A5
:1001D000070408BF10F8014B1D1108BF10F8015BA0
:1001E000641E05D010F8016B641E01F8016BF9D193
:1001F00013F0080F1EBF10F8014BAD1C0C1B09D1EA
:100200006D1E58BF01F801CBFAD505E014F8016B5B
:1002100001F8016B6D1EF9D59142D6D370470000ED
:100220000023002400250026103A28BF78C1FBD8FF
:10023000520728BF30C148BF0B607047662907F0DE
:100240005D83642906F02882002070471FB507F0FF
:1002500050FB06F061FD04000020002107F0BCFA0D
:10026000E0601FBD10B510BD06F06EFE1146FFF731
:10027000EDFF00F009F806F08CFE03B4FFF7F2FF83
:1002800003BC04F051FB000004F0E4FA1CE000F0B1
:1002900035F900F0F8FE00F0D9FB00F004FC0B4843
:1002A000007810B100F037FF04E00848007808B982
:1002B00001F090FA01F0C4F901F015FB00F085F9A6
:1002C00000F011FC01F06BFCE1E7000014000020DD
:1002D000704700BFFEE700BFFEE700BFFEE700BFBC
:1002E000FEE7704770477047704700000CB500206C
:1002F000019000907648006840F4803074490860AE
:1003000000BF7348006800F4003000900198401C62
:100310000190009818B90198B0F5A04FF1D16C4840
:10032000006800F4003010B10120009001E00020CE
:1003300000900098012846D165484030006840F0A0
:1003400080506349403108606248006840F4404092
:10035000604908605E48083000685D4908310860FF
:100360000846006840F4004008600846006840F411
:10037000A05008605848091F0860081F006840F036
:100380008070091F086000BF5148006800F00070CD
:100390000028F9D040F20570504908604C480830F8
:1003A000006820F003004A490831086008460068E8
:1003B00040F00200086000BF45480830006800F0C7
:1003C0000C000828F8D10CBD10B54548006840F471
:1003D0007000434908603E48006840F001003C4915
:1003E000086000203A4908310860394800683D49F2
:1003F0000840374908603C48091D0860081F00682C
:1004000020F48020091F0860002031490C31086069
:10041000FFF76CFF4FF0006031498039086010BD74
:1004200070B500200022022300240221284D083547
:100430002D6805F00C0020B1042806D0082834D11E
:1004400007E02A4D2A4E356033E02A4D284E3560AC
:100450002FE01F4D2D1D2D68C5F380541C4D2D1D03
:100460002D6805F03F0154B1224DB5FBF1F5184E52
:10047000361D3668C6F3881605FB06F209E01B4DEB
:10048000B5FBF1F5124E361D3668C6F3881605FB2E
:1004900006F20F4D2D1D2D68C5F301456D1C6B0037
:1004A000B2FBF3F5124E356003E0104D104E35608F
:1004B00000BF00BF064D08352D68C5F303150E4E6D
:1004C000705D0B4D2D68C540094E356070BD000054
:1004D000003802400070004008544007003C0240D1
:1004E00088ED00E0FFFFF6FE103000240024F40049
:1004F0000000002000127A00040000201CB5FE4815
:100500000068B0F5967F05D30120FC4908700020F3
:10051000F9490860F84800686421B0FBF1F201FB7A
:100520001200002841D10120F5490870F5480078F3
:10053000C043F4490870F4480078401CF249087040
:10054000F24890ED000ABDEEC00A10EE100AF04924
:100550004870F04890ED000ABDEEC00A10EE100A97
:100560008870ED4890ED000ABDEEC00A10EE100A4A
:10057000C870EA4890ED000ABDEEC00A10EE100AFD
:100580000871E74890ED000ABDEEC00A10EE100AAF
:100590004871E44890ED000ABDEEC00A10EE100A62
:1005A00088710721DA4803F00AFBD6480078DE4953
:1005B000086001200C210323CDE90010D248027805
:1005C0000021084602F0BEF81CBD1CB5D44890EDD1
:1005D000000ABDEEC00A10EE100A00280FDB012051
:1005E0000C210323CDE90010CD4890ED000ABDEEAB
:1005F000C00A10EE102A002002F0A4F818E0C84843
:1006000090ED000ABDEEC00A10EE100A00280FDCC3
:1006100001200C210323CDE90010C14890ED000A10
:10062000BDEEC00A10EE100A4242002002F08AF825
:10063000BC4890ED000ABDEEC00A10EE100A00287A
:1006400010DB01200C210323CDE90010B54890ED0B
:10065000000ABDEEC00A10EE102A1821002002F098
:1006600071F819E0AF4890ED000ABDEEC00A10EE37
:10067000100A002810DC01200C210323CDE9001012
:10068000A84890ED000ABDEEC00A10EE100A4242E2
:100690001821002002F056F8A44890ED000ABDEEA3
:1006A000C00A10EE100A002810DB01200C210323E1
:1006B000CDE900109D4890ED000ABDEEC00A10EE95
:1006C000102A2421002002F03DF819E0974890ED0F
:1006D000000ABDEEC00A10EE100A002810DC01204E
:1006E0000C210323CDE90010904890ED000ABDEEE7
:1006F000C00A10EE100A42422421002002F022F823
:10070000854890ED000ABDEEC00A10EE100A0028E0
:100710000FDB01200C210323CDE900107E4890ED72
:10072000000ABDEEC00A10EE102A182002F00AF8E6
:1007300018E0794890ED000ABDEEC00A10EE100AEC
:1007400000280FDC01200C210323CDE900107248A2
:1007500090ED000ABDEEC00A10EE100A42421820C9
:1007600001F0F0FF6D4890ED000ABDEEC00A10EEFA
:10077000100A002810DB01200C210323CDE9001012
:10078000664890ED000ABDEEC00A10EE102A18214E
:10079000084601F0D7FF19E0604890ED000ABDEE71
:1007A000C00A10EE100A002810DC01200C210323DF
:1007B000CDE90010594890ED000ABDEEC00A10EED8
:1007C000100A42421821084601F0BCFF584890ED3B
:1007D000000ABDEEC00A10EE100A002810DB01204E
:1007E0000C210323CDE90010514890ED000ABDEE25
:1007F000C00A10EE102A2421182001F0A3FF19E0EE
:100800004B4890ED000ABDEEC00A10EE100A002819
:1008100010DC01200C210323CDE90010444890EDA9
:10082000000ABDEEC00A10EE100A42422421182030
:1008300001F088FF354890ED000ABDEEC00A10EEC9
:10084000100A00280FDB01200C210323CDE9001042
:100850002E4890ED000ABDEEC00A10EE102A30209E
:1008600001F070FF18E0294890ED000ABDEEC00AC3
:1008700010EE100A00280FDC01200C210323CDE923
:100880000010224890ED000ABDEEC00A10EE100ADA
:100890004242302001F056FF1E4890ED000ABDEEA6
:1008A000C00A10EE100A002810DB01200C210323DF
:1008B000CDE90010174890ED000ABDEEC00A10EE19
:1008C000102A1821302001F03DFF38E0114890ED4A
:1008D000000ABDEEC00A10EE100A00282FDC01202D
:1008E0000C210323CDE900100A4890ED000ABDEE6B
:1008F000C00A10EE100A1DE0740000203500002030
:10090000520000205C00002037000020B8000020CA
:100910002C000020BC000020D4000020D8000020C3
:10092000E4000020E800002088824042EC00002023
:10093000DC00002042421821302001F003FFFE4875
:1009400090ED000ABDEEC00A10EE100A002810DB80
:1009500001200C210323CDE90010F74890ED000A97
:10096000BDEEC00A10EE102A2421302001F0EAFE6C
:1009700019E0F14890ED000ABDEEC00A10EE100A31
:10098000002810DC01200C210323CDE90010EA48E7
:1009900090ED000ABDEEC00A10EE100A424224217A
:1009A000302001F0CFFE01200C230090E3480278B4
:1009B0003221002001F0FCFDE148007840B1012027
:1009C0000C23E0A219460090542001F08BFE0AE0AF
:1009D000DB48007838B901200C23DCA219460090CE
:1009E000542001F07FFEDB4800684FF47A7190FBE1
:1009F000F1F401200C2102232246CDE9001034211C
:100A0000722001F09FFED44800684FF47A7190FB89
:100A1000F1F401200C2102232246CDE90010182117
:100A2000722001F08FFECD4800684FF47A7190FB80
:100A3000F1F401200C2102232246CDE900102421EB
:100A4000722001F07FFE01F089FC1CBD10B5C14889
:100A5000006843F69821884203DB0846BD490860D8
:100A600008E0BC48006840F6B831884202DC08461D
:100A7000B8490860BA480078012813D1B64801681F
:100A8000012002F0C6F9B5480168022002F0C1F960
:100A9000052002F0A0FBB3490860042002F09BFB94
:100AA000B149086010BD10B5B0480078052806DBD4
:100AB0000020AE49087003F07EF9AD490870AC48DB
:100AC000007820B1012803D0022809D104E007E012
:100AD00000209B49087003E001209949087000BF7D
:100AE00000BF10BD704710B5A248008840F628210D
:100AF000884203DB08469F49088008E09D4800883B
:100B0000B0F5C87F03DC4FF4C8709A4908809A4852
:100B1000006840F62821884203DB084696490860B1
:100B200008E095480068B0F5C87F03DC4FF4C87052
:100B3000914908609148006840F62821884203DB0B
:100B400008468E49086008E08C480068B0F5C87F08
:100B500003DC4FF4C870894908608948006840F692
:100B6000C411884203DB08468549086008E08448D0
:100B70000068B0F5FA7F03DC4FF4FA708049086032
:100B80008048006840F6C411884203DB08467D496E
:100B9000086008E07B480068B0F5FA7F03DC4FF49A
:100BA000FA70784908607648006803F0A1FD75483E
:100BB000006803F0A4FD74480078012872D17348DE
:100BC000007800282CD1724890ED000A7148D0EDD1
:100BD000000AB4EEE00AF1EE10FA03DB01206E49E0
:100BE000087002E001206D4908706B480078002809
:100BF00074D06A480078E8BB654890ED000A654803
:100C0000D0ED000A30EE600AF2EE080AB4EEE00A17
:100C1000F1EE10FA05DB5A48006832305849086096
:100C200019E15B4890ED000A5A48D0ED000A30EE19
:100C3000600AF2EE020AB4EEE00AF1EE10FA05DB09
:100C40004F48006819304E49086004E1504890ED63
:100C5000000A5048D0ED000A30EE600AF1EE080AB2
:100C6000B4EEE00AF1EE10FA07DB454800680F30F9
:100C7000434900E032E00860EDE0454890ED000AAD
:100C80004448D0ED000A30EE600AF0EE080AB4EEF7
:100C9000E00AF1EE10FA06DB394800680A303849FC
:100CA0000860D8E007E13A4890ED000A3948D0EDF5
:100CB000000A30EE600AF7EE000AB4EEE00AF1EE48
:100CC00010FA05DB2E480068401D2D490860C2E07F
:100CD0002B480068401C2A490860BCE02E48007878
:100CE00040BB2E48007828B3294890ED000A2948D7
:100CF000D0ED000A30EE600AFAEE080AB4EEE00A1F
:100D0000F1EE10FA05D81E48006832381C49086018
:100D1000A1E01F4890ED000A1E48D0ED000A30EE19
:100D2000600AFAEE020AB4EEE00AF1EE10FA3CD8DC
:100D3000134835E07EE00000C0000020AE00002037
:100D4000140000205053322000000000424C554552
:100D50000000000020000020180000201C000020DF
:100D60001600002024000020280000207800002029
:100D70005D00002050000020100100201401002020
:100D8000080100200C010020330000205E0000203C
:100D9000D80000204C0000205F00002060000020F0
:100DA00000681938F949086055E0F94890ED000AE3
:100DB000F848D0ED000A30EE600AF9EE080AB4EE09
:100DC000E00AF1EE10FA05D8F04800680F38EF4954
:100DD000086040E0EE4890ED000AEE48D0ED000AD1
:100DE00030EE600AF8EE080AB4EEE00AF1EE10FA0E
:100DF00005D8E64800680A38E44908602BE0E44872
:100E000090ED000AE348D0ED000A30EE600AFFEEF4
:100E1000000AB4EEE00AF1EE10FA05D8DB480068EB
:100E2000401FDA49086016E0D8480068401ED749DC
:100E3000086010E0D848007868B1D848007850B110
:100E40000020D6490870D44908700120D4490870A0
:100E50000020D4490870D348007800282BD1D2480C
:100E600090ED000AD148D0ED000AB4EEE00AF1EEB0
:100E700010FA03DB0120CE49087002E00120CD49C1
:100E80000870CB480078E8B3CA480078D0BBC648A1
:100E900090ED000AC548D0ED000A30EE600AF2EE8F
:100EA000080AB4EEE00AF1EE10FA05DBC248006869
:100EB0003230C1490860E5E0BB4890ED000ABB480C
:100EC000D0ED000A30EE600AF2EE020AB4EEE00A5B
:100ED000F1EE10FA05DBB84800681930B649086031
:100EE000D0E0B14890ED000AB048D0ED000A30EEF5
:100EF000600AF1EE080AB4EEE00AF1EE10FA07DB40
:100F0000AD4800E034E000680F30AB490860B9E05C
:100F1000A54890ED000AA548D0ED000A30EE600A21
:100F2000F0EE080AB4EEE00AF1EE10FA05DBA24892
:100F300000680A30A0490860A4E09B4890ED000AD0
:100F40009A48D0ED000A30EE600AF7EE000AB4EEDF
:100F5000E00AF1EE10FA05DB97480068401D96495B
:100F600008608FE094480068401C9349086089E05D
:100F70008F480078F0BB8F480078D8B38A4890ED4E
:100F8000000A8A48D0ED000A30EE600AFAEE080A3C
:100F9000B4EEE00AF1EE10FA05D88748006832385E
:100FA000854908606EE0804890ED000A7F48D0EDEA
:100FB000000A30EE600AFAEE020AB4EEE00AF1EE40
:100FC00010FA05D87C48006819387B49086059E058
:100FD000754890ED000A7548D0ED000A30EE600AC1
:100FE000F9EE080AB4EEE00AF1EE10FA07D87248FA
:100FF000006800E033E00F386F49086042E06A485B
:1010000090ED000A6948D0ED000A30EE600AF8EE73
:10101000080AB4EEE00AF1EE10FA05D86648006856
:101020000A38654908602DE05F4890ED000A5F4886
:10103000D0ED000A30EE600AFFEE000AB4EEE00ADE
:10104000F1EE10FA05D85C480068401F5A49086064
:1010500018E059480068401E5749086012E054489B
:10106000007878B15348007860B100205149087089
:101070004F4908704A49087001204A490870002009
:101080004E49087010BD7CB54D48008800F4004002
:1010900000283FD04A480678002436E04948055DDC
:1010A00001200C232A4600210090242001F080FA20
:1010B000332D0DD101200C2103460622CDE900106D
:1010C0000021182001F03EFB03203F4908700EE08C
:1010D000322D0CD101200C2103460022CDE9001055
:1010E0001146182001F02EFB0220374908703548C0
:1010F000015D364804F062FB00BF4021334804F034
:101100000DFC0128F9D1601CC4B2B442C6DB00203A
:101110002B4908807CBD10B52D4802F0F1FD2C480C
:101120000078732875D12A4880797F2806D128480D
:101130004079802802D1C820264908702448807947
:1011400010B1FF2808D103E0C9202249087004E04B
:10115000CC202049087000E000BF00BF1C48407947
:1011600010B1FF2808D103E0CA201A49087004E032
:10117000CB201849087000E000BF00BF1448407839
:10118000022829D0042845D12AE0000008010020C7
:10119000D80000204C0000205F00002060000020EC
:1011A0005E00002061000020D400002048000020E4
:1011B00062000020630000200C01002033000020AA
:1011C00020010020190700203400002000100140F9
:1011D00064000020150000200020F74908701AE084
:1011E000F64890ED000AF64880ED000AF54890EDCB
:1011F000000AF54880ED000AF44890ED000AF44832
:1012000080ED000AF34890ED000AF34880ED000AF3
:1012100001E0CBE000BF00BFF0488078092825D26C
:10122000DFE800F01B150A24102424240500012106
:10123000084601F0BDFE1AE04FF0FF31012001F039
:10124000B7FE14E00121022001F0B2FE0FE04FF0E2
:10125000FF31022001F0ACFE09E00021012001F085
:10126000A7FE0021022001F0A3FE00E000BF00BFA6
:10127000DA48007910B1FF2814D109E0D848006895
:101280001438D74908600846006803F046FA0AE0B7
:10129000D34800681430D24908600846006803F05B
:1012A0003CFA00E000BF00BFCC48C07810B1FF2876
:1012B0001AD10CE0CB4800681430CA4908600846CF
:1012C000006803F023FA0120C74908700DE0C54803
:1012D00000681438C34908600846006803F016FA2D
:1012E0000120C149087000E000BF00BFBB48407842
:1012F00020280FD003DC08B3102825D110E04028A7
:1013000015D0802820D10120B84908700020B849A4
:1013100008701AE00120B5490870B549087014E05A
:10132000B448006800F57A70B24908600DE0B14831
:101330000068A0F57A70AF49086006E00020AB496C
:101340000870AB49087000E000BF00BFA348807878
:10135000102806D020280CD0402813D0802823D174
:1013600019E00120A4490870A4490870A449087034
:101370001BE0A4480068401CA24908600120A24963
:10138000087012E0A1480078401CA04908700020B5
:101390009F49086009E09B480068401E9949086021
:1013A00001209949087000E000BF00BF10BD9948B6
:1013B0004078012808D10020964948700E209649AF
:1013C000087001209549087093480078002802DCD5
:1013D0000020924908709148007840B39048007806
:1013E000012824D18C480078401E8B4908700020C9
:1013F0008B4908708849087800EBD0714910A0EB40
:101400004101012905D1844800787130854908706F
:101410000DE08149087800EBD0714910A0EB410143
:1014200029B97D480078C0F172007E490870704784
:1014300078480079012808D10020764908710820F1
:1014400079490870012079490870774800780028A8
:1014500002DC0020754908707448007840B3704879
:101460000078012824D170480078401E6E49087029
:1014700000206B4908706C49087800EBD071491066
:10148000A0EB4101012905D1674800786B3065491F
:1014900008700DE06449087800EBD0714910A0EBAA
:1014A000410129B960480078C0F16C005D490870BD
:1014B00070475848C078012808D100205549C870A5
:1014C0000A205B49087001205A4908705848007882
:1014D000002802DC0020574908705648007840B3C5
:1014E0004F480078012824D151480078401E5049C7
:1014F000087000204A4908704D49087800EBD07107
:101500004910A0EB4101012905D149480078753007
:10151000444908700DE04649087800EBD071491045
:10152000A0EB410129B942480078C0F176003D495D
:101530000870704737488078012808D10020354965
:1015400088700A203C49087001203C4908703A48DC
:101550000078002802DC00203849087037480078FD
:1015600040B32F480078012824D133480078401E2A
:101570003149087000202A4908702F49087800EB8B
:10158000D0714910A0EB4101012905D12A4800780A
:101590006D30244908700DE02749087800EBD071C0
:1015A0004910A0EB410129B923480078C0F16E0031
:1015B0001C4908707047000014000020E40000205F
:1015C00090000020E800002094000020B8000020D7
:1015D00098000020BC0000209C0000206400002037
:1015E0001001002014010020540000208100002080
:1015F0008200002020000020330000208C0000200A
:101600008D000020440000203F000020400000200A
:1016100084000020390000206C0000206D000020B4
:10162000520000202C0000207200002073000020D7
:1016300070000020710000206E0000206F0000206C
:1016400010B5FA480068002803DC0020F74908605C
:1016500006E0F64800681E2802DB1E20F3490860F9
:10166000F2480068052817DA0020F14908600120D7
:10167000F0490871C87088704870ED480068EE49FC
:101680000968884207D1ED4800780028FAD1EC4873
:101690000068EC49086095E0E44800680A281DDA13
:1016A000E9484068E24908604FF4DC70E5490860A9
:1016B0000120E0490871C8708870DD480068DE4983
:1016C000096888427ED1DD48007800287AD1DC485C
:1016D0004068DC490860FFF76AFE73E0D3480068A1
:1016E0000F2819DAD8488068D14908600120D1490B
:1016F0000871C8704870CE480068CF4909688842B0
:1017000060D1CE48007800285CD1CD488068CD49B2
:101710000860FFF70FFF55E0C4480068142818DA86
:10172000C948C068C24908600120C2490871887070
:101730004870BF480068C0490968884242D1BF4824
:10174000007810BBBE48C068BE490860FFF7B1FE14
:1017500038E0B6480068192818DABB480069B4496F
:1017600008600120B349C87088704870B0480068AC
:10177000B1490968884225D1B048007828B9B048F5
:101780000069B0490860FFF753FE1BE0A7480068F6
:101790001E2817DAAC484069A54908600120A54910
:1017A0000871C8708870A2480068A3490968884217
:1017B00006D1A248007818B9A1484069A14908603B
:1017C000FFF7F5FD9D48007818B99E48006802F0C3
:1017D0009DFF10BD9D480078012871D100209B49D4
:1017E00008709B48007861381A287AD2DFE800F048
:1017F0000D14181C2024282C3034383C4044484C0C
:101800005054585C6064696D7175C92091490870C5
:1018100000208A49087064E0CC208E49087060E09E
:10182000CA208C4908705CE0CB208A49087058E0D7
:10183000CD208849087054E0CE208649087050E0D9
:10184000C820844908704CE0CF208249087048E0E5
:10185000D0208049087044E0D1207E49087040E0E3
:10186000D2207C4908703CE0D3207A49087038E0E7
:10187000D4207849087034E0D5207649087030E0EB
:10188000D620744908702CE0D7207249087028E0EF
:10189000D8207049087024E0D9206E49087020E0F3
:1018A000DA206C4908701CE0DB206A49087018E0F7
:1018B000DE206849087014E0DF206649087010E0F7
:1018C00010E0DC20634908700BE0DD2061490870FE
:1018D00007E0E0205F49087003E0E1205D490870FF
:1018E00000BF00BF704710B55A480078C8381A28A2
:1018F00015D2DFE800F00D15222F3C47515B636CD9
:10190000747D858DBBC9CFD6DDE4F4F3F5F1F0EF3E
:10191000002051490860514908604E4908703CE177
:1019200001204F4908704F4800684C4908604A49F7
:1019300008600020474908702FE14A48006840428B
:10194000454908604748006844490860002041490B
:10195000087022E1434800683F4908604148006838
:1019600040423E49086000203A49087015E13D4870
:10197000006840423949086037490860002035490D
:1019800008700AE13748006800F57A703549086048
:1019900000203049087000E132480068A0F57A70F4
:1019A0003049086000202B490870F6E00121022030
:1019B00001F0FEFA002027490870EEE04FF0FF31F9
:1019C000022001F0F5FA002022490870E5E000212C
:1019D000022001F0EDFA00201E490870DDE04FF012
:1019E000FF31012001F0E4FA00201A490870D4E028
:1019F0000121084601F0DCFA002016490870CCE00D
:101A00000021012001F0D4FA002012490870C4E03E
:101A100006480068401F0549086001201249087007
:101A2000FFF70EFE00200B490870B6E044000020CE
:101A3000880000203900002084000020540000208D
:101A400034010020140100204C010020AF000020D0
:101A5000AE00002015000020180000201C0000200F
:101A600016000020200000203F000020FE480068F3
:101A7000401DFD4908600120FC490870FFF7E0FDAA
:101A80000020FB49087088E00020FA490860F84906
:101A9000087082E00020F64908700120F6490870BD
:101AA0007BE00020F24908700120F449087074E0DE
:101AB0000020EF4908700120F14908706DE0002016
:101AC000EB4908700120EE490870EC490870EA49BA
:101AD000087062E045E03DE00FE001E02AE019E037
:101AE0000020E3490870E74800681438E5490860B9
:101AF0000846006802F011FE4FE00020DC49087043
:101B0000E04800681430DF4908600846006802F0C9
:101B100004FE42E00020D6490870DB48006814301B
:101B2000D94908600846006802F0F0FD0120D74955
:101B3000087032E00020CE490870D348006814389D
:101B4000D14908600846006802F0E0FD0120CF4955
:101B5000087022E00020C64908700120CC490870B6
:101B60001BE00020C2490870CA4890ED000ACA482C
:101B700080ED000AC94890ED000AC94880ED000ACE
:101B8000C84890ED000AC84880ED000AC74890EDAB
:101B9000000AC74880ED000A00BF00BF10BD10B5A5
:101BA0002DED028BC348007800287DD00020C1496C
:101BB0000870C1480078022806D003281ED00528E6
:101BC00073D0072872D15FE00220BC490870BC487E
:101BD0000068962190FBF1F42146BAA004F050FD74
:101BE000AB48007818B1BCA004F04AFD05E0A84855
:101BF000007810B9BDA004F043FDBCE0C048006807
:101C000005F006FE41EC180B53EC182BBDA004F0B8
:101C100037FDA048006805F0FBFD41EC180B53ECC4
:101C2000182BBDA004F02CFD9E48006805F0F0FDC7
:101C300041EC180B53EC182BBCA004F021FDC0485C
:101C4000006805F0E5FD41EC180B53EC182BBDA026
:101C500004F016FD9148006805F0DAFD41EC180B20
:101C600053EC182BBCA004F00BFD9048006805F065
:101C7000CFFD41EC180B53EC182BBCA004F000FD79
:101C800003208E49087076E07F480168BCA004F00C
:101C9000F7FC78480168BFA004F0F2FC72480168C4
:101CA000C1A004F0EDFC02E066E05FE062E0C34842
:101CB0000168C3A004F0E4FCC048006806284FD2C5
:101CC000DFE800F04E031221303FC1484168C1A057
:101CD00004F0D6FCC44840680A2190FBF1F4214688
:101CE000C2A004F0CDFC3CE0B9488168C3A004F078
:101CF000C7FCBD4880680A2190FBF1F42146C4A0CE
:101D000004F0BEFC2DE0B248C168C5A004F0B8FCE8
:101D1000B548C0680A2190FBF1F42146C5A004F043
:101D2000AFFC1EE0AA480169C6A004F0A9FCAE48B9
:101D300000690A2190FBF1F42146C7A004F0A0FC41
:101D40000FE0A3484169C8A004F09AFCA648406986
:101D50000A2190FBF1F42146C8A004F091FC00E0B8
:101D600000BF00BF07205549087004E00520534913
:101D7000087000E000BF00BF50480078022835D04E
:101D8000032804D005286BD007286AD144E0BF4857
:101D9000007865280AD16420BC49087001203749C1
:101DA000087035490870364908701EE0B748007859
:101DB00066281AD16420B5490870364890ED000AAB
:101DC000354880ED000A354890ED000A344880ED32
:101DD000000A344890ED000A334880ED000A334889
:101DE00090ED000A324880ED000AE1E1A748007852
:101DF000672810D16420A54908702548007801287B
:101E000003D100202249087005E02148007810B96C
:101E100001201F490870CBE19C48007869280ED149
:101E200064209A490870654801680068401C634A4C
:101E30001060052902DB0120114608604BE1934840
:101E4000007868280ED16420904908705B480168CA
:101E50000068401E594A1060012904DC052017E182
:101E60003AE1A4E117E136E1440000203F00002000
:101E700015000020840000208D0000208C00002030
:101E80003300002010010020140100205400002025
:101E900014000020E400002090000020E800002052
:101EA00094000020B800002098000020BC00002012
:101EB0009C00002035000020340000206B00002032
:101EC0002000002073706565642E7478743D2225AF
:101ED0006422FFFFFF0000006D6F64652E7478744C
:101EE0003D2250533222FFFFFF0000006D6F6465FA
:101EF0002E7478743D2241505022FFFFFF000000F5
:101F0000D400002074392E7478743D22252E356655
:101F100022FFFFFF0000000074302E7478743D2211
:101F2000252E356622FFFFFF0000000074362E7458
:101F300078743D22252E356622FFFFFF0000000049
:101F4000D80000207431302E7478743D22252E354F
:101F50006622FFFFFF00000074332E7478743D2268
:101F6000252E356622FFFFFF0000000074372E7417
:101F700078743D22252E356622FFFFFF0000000009
:101F8000736572766F2E7478743D22256422FFFF8C
:101F9000FF000000646973742E7478743D22256418
:101FA00022FFFFFF0000000074696D652E747874D5
:101FB0003D22256422FFFFFF0000000058000020A2
:101FC0006E756D2E7478743D22256422FFFFFF002C
:101FD0004C010020646973302E7478743D222564AE
:101FE00022FFFFFF00000000340100206167302E57
:101FF0007478743D22256422FFFFFF006469733109
:102000002E7478743D22256422FFFFFF000000003B
:102010006167312E7478743D22256422FFFFFF0032
:10202000646973322E7478743D22256422FFFFFFA9
:10203000000000006167322E7478743D222564220E
:10204000FFFFFF00646973332E7478743D222564AA
:1020500022FFFFFF000000006167332E7478743D9B
:1020600022256422FFFFFF00646973342E747874A4
:102070003D22256422FFFFFF000000006167342E2F
:102080007478743D22256422FFFFFF003600002093
:10209000114608601FE0484800786B2811D1642081
:1020A00045490870454801684548464A126840F865
:1020B0002210454800684549424A126841F822000A
:1020C00009E03D4800786A2805D164203A49087043
:1020D00000203C4908606BE0374800786C2802D14A
:1020E0003B49087062E0344800786D2802D13849D5
:1020F00008705BE0304800786E2802D134490870DF
:1021000054E02D4800786F2802D1314908704DE025
:1021100029480078702805D12E4800680A302D49DA
:10212000086043E024480078712805D129480068F8
:102130000A382849086039E01F480078722805D11C
:10214000254800680A38244908602FE01A480078BA
:10215000732805D1204800680A301F49086025E02F
:1021600015480078742802D1194908701EE01248F9
:102170000078752802D11649087017E00E480078DB
:10218000762802D11249087010E00B4800787728B1
:1021900002D10F49087009E007480078782805D176
:1021A00064200549087078200949087000E000BFE4
:1021B00000BFBDEC028B10BD360000208400002063
:1021C0004C010020580000201401002034010020A0
:1021D000380000200C0100200801002010B501206B
:1021E00002F0D0FA10BD10B50821F84802F058FEF0
:1021F0000421F64802F052FEFFF7F0FF0821F348F1
:1022000002F04CFE10BD10B50821F04802F046FE69
:10221000FFF7E4FF0421ED4802F040FEFFF7DEFF88
:102220000421EA4802F03CFEFFF7D8FF10BD70B56C
:10223000044600251BE004F0800020B10821E3489B
:1022400002F02CFE03E00821E04802F029FEFFF72F
:10225000C5FF0421DD4802F021FEFFF7BFFF042186
:10226000DA4802F01DFE6006040E681CC5B2082D97
:10227000E1DB70BD10B50821D44802F00FFE042147
:10228000D24802F00BFEFFF7A9FF0821CF4802F069
:1022900007FEFFF7A3FF0421CC4802F001FEFFF781
:1022A0009DFF10BD70B505460C46FFF7E3FF782093
:1022B000FFF7BDFFFFF7A7FF1CB14020FFF7B7FFF7
:1022C00002E00020FFF7B3FFFFF79DFF2846FFF76E
:1022D000AEFFFFF798FFFFF786FF70BD10B504460D
:1022E0001CB90021A620FFF7DDFF012C03D100213E
:1022F000A720FFF7D7FF10BD10B504463CB9002159
:10230000C820FFF7CFFF0021A120FFF7CBFF012C52
:1023100007D10021C020FFF7C5FF0021A020FFF753
:10232000C1FF10BD10B500218D20FFF7BBFF0021BC
:102330001420FFF7B7FF0021AF20FFF7B3FF10BD58
:1023400010B500218D20FFF7ADFF00211020FFF711
:10235000A9FF0021AE20FFF7A5FF10BD70B5002436
:102360002BE004F1B001C8B20021FFF79BFF002170
:102370000846FFF797FF00211020FFF793FFFFF7B4
:1023800079FF7820FFF753FFFFF73DFF4020FFF76D
:102390004EFFFFF738FF002509E08D4901EBC5012D
:1023A000085DFFF744FFFFF72EFF681CC5B2802DC4
:1023B000F3DBFFF718FF601CC4B2082CD1DB70BD43
:1023C00070B500240CE0002506E00020804901EBF8
:1023D000C5010855681CC5B2802DF6DB601CC4B26F
:1023E000082CF0DBFFF7BAFF70BDF0B514460B46C2
:1023F000CF1701EB5777C7F3C702CF1701EB57771A
:10240000FF10A1EBC707FEB20123B340DDB24CB110
:102410006F4B03EBC0039B5C2B436D4F07EBC00777
:10242000BB541AE06A4B03EBC0039B5CDB43684F71
:1024300007EBC007BB54664B03EBC0039B5C2B430D
:10244000634F07EBC007BB54614B03EBC0039B5CBE
:10245000DB435F4F07EBC007BB54F0BD2DE9FF4FD7
:1024600084B081468A460020029083460698A0EBFD
:1024700009040798A0EB0A06CDF80490CDF800A057
:10248000002C01DD012705E00CB9002702E04FF028
:10249000FF376442002E02DD4FF0010806E016B956
:1024A0004FF0000802E04FF0FF386642B44201DD11
:1024B000254600E03546002003901EE0009AD1B288
:1024C000019AD0B2119AFFF790FF0298204402902F
:1024D000B3440298A84205DD0298401B029001987F
:1024E00038440190AB4504DDABEB050B009840444C
:1024F00000900398401C80B20390691C03988842A6
:10250000DCDB08B0BDE8F08F2DE9F04306460F464E
:1025100090460025444643E03A1BD1B27219D0B22E
:102520000122FFF762FF3A1BD1B2721BD0B2012227
:10253000FFF75BFF3A19D1B2721BD0B20122FFF74D
:1025400054FF3A19D1B27219D0B20122FFF74DFFF0
:102550007A19D1B23219D0B20122FFF746FF7A1BA5
:10256000D1B23219D0B20122FFF73FFF7A1BD1B2AC
:10257000321BD0B20122FFF738FF7A19D1B2321BD9
:10258000D0B20122FFF731FF6D1C05FB05F004FB03
:10259000040008FB1809B9F1000F01DD641E6D1E6F
:1025A0006000604308FB08F18842B5DABDE8F083BB
:1025B0002DE9FE4F0746884692461C460197CDF806
:1025C0000080082C06D14FF0060923E000000240ED
:1025D000640100202046E31704EB5373DB1021460F
:1025E0004FEAE47C04EB5C7C4FEAEC0CA4EBCC0CF3
:1025F000BCF1000F02D04FF0010C01E04FF0000CD5
:102600006344224604EBD27C4FEA6C0C03FB0CF3D0
:1026100003F0FF09AAF12000C6B200255EE0082CF5
:1026200007D106EB4600FE4901EB400010F805B06B
:102630001DE00C2C07D106EB4600FA4901EB8000A7
:1026400010F805B013E0102C05D1F74800EB061088
:1026500010F805B00BE0182C07D106EBC600F349C3
:1026600001EB800010F805B001E0BDE8FE8F00200E
:1026700002901CE00BF0010028B1414638460C9A4C
:10268000FFF7B3FE09E00C9808B9012000E0002034
:10269000024641463846FFF7A8FE4FEA6B0B08F1A9
:1026A000010000F0FF080298401CC0B2029002989E
:1026B0000828DFDB781CC7B2082C0BD004EBD471E0
:1026C0004A100199791A8A4204D1019F0098083072
:1026D000C0B20090DDF80080681CC5B24D459EDB9D
:1026E00000BFC2E72DE9F84106460F4614461D46D5
:1026F000DDF81C8013E0CDF8008022782B463946A7
:102700003046FFF755FF082D02D1B01DC6B205E0D7
:10271000284605EBD07106EB6101CEB2641C20782F
:10272000202802DB20787E28E5DDBDE8F88110B5A1
:102730000246012000E050430B1EA1F10104E1B26A
:10274000F9D110BD2DE9FF4F82B0064691461F46D4
:10275000DDE90F4A4FF0000B082C01D14FF0020BBE
:10276000002530E0781B401EC1B20A20FFF7DFFFD2
:10277000B9FBF0F00A21B0FBF1F201FB1208B8F14D
:10278000000F0ED104EBD4710BEB610101FB05616D
:10279000C8B223463022CDE900A40399FFF708FF11
:1027A0000FE004EBD4710BEB610101FB0561C8B2D2
:1027B00008F13001CAB22346CDE900A40399FFF71E
:1027C000F7FE681CC5B2BD42CCDB06B0BDE8F08F99
:1027D0002DE9FC4F0746884616461C46BB46CDF8F9
:1027E00004802046E21704EB5272D2102146E31710
:1027F00004EB5373DB10A4EBC3030BB1012300E024
:1028000000231A44624392B20092002555E0102C36
:1028100005D1874800EB461010F805A01BE0182CE6
:1028200007D106EBC600834901EBC00010F805A0F4
:1028300011E0202C05D1804800EBC61010F805A04F
:1028400009E0402C05D17D4800EB462010F805A09A
:1028500001E0BDE8FC8F4FF000091CE00AF0010028
:1028600028B1414638460B9AFFF7BFFD09E00B98A7
:1028700008B9012000E00020024641463846FFF733
:10288000B4FD4FEA6A0A08F1010000F0FF0809F1FF
:10289000010000F0FF09B9F1080FDFDB781CC7B2B7
:1028A000A7EB0B00A04204D15F4601980830C0B2EC
:1028B0000190DDF80480681C85B200988542A6DB93
:1028C00000BFC6E708B58046894692460026002725
:1028D0004BE04FB91023324618218020CDF800A0DC
:1028E000FFF776FF701CC6B2464522D14FF0000BB1
:1028F0001AE0012410E000250AE0514800EBC40072
:10290000415D601E4E4A02EBC0004155681CC5B2D5
:10291000082DF2DB601CC4B2902CECDBFFF71EFD2F
:102920000BF1010000F0FF0B4FEA09105845E0DC05
:102930000026781CC7B2102F00D10027012410E018
:1029400000250AE03E4800EBC400415D601E3C4AA1
:1029500002EBC0004155681CC5B2082DF2DB601CBB
:10296000C4B2902CECDBFFF7F9FCB2E72DE9FF4F86
:1029700005460E4617461C46DDF838904FF0000A13
:102980000095B3462046E21704EB5272D21021465E
:10299000E31704EB5373DB10A4EBC3030BB1012368
:1029A00000E000231A44D4B24FF0000858E00020A1
:1029B00003904EE00D9810F80A0002900AF1010011
:1029C0001FFA80FA002001901DE0029800F001003B
:1029D00028B14A4631462846FFF707FD0AE0B9F11B
:1029E000000F01D1012000E00020024631462846B8
:1029F000FFF7FBFC029840100290701CC6B20198D1
:102A0000401CC0B2019001980828DEDB681CC5B2EA
:102A10000098281AB84217D1009D0BF1080011E068
:102A200000790008287B00089C7F00088C8500083E
:102A3000E892000848940008909400081095000857
:102A40006401002000F0FF0B5E460398401CC0B2FA
:102A500003900398B842ADDB08F1010000F0FF08D5
:102A6000A045A4DBBDE8FF8F1CB50121084602F09C
:102A700037FC0C20009001208DF8040000208DF818
:102A8000060003208DF8050001208DF80700694637
:102A90003C4802F087F9C82001F0BCFE0021AE20BE
:102AA000FFF700FC00210846FFF7FCFB0021102087
:102AB000FFF7F8FB00214020FFF7F4FB0021812005
:102AC000FFF7F0FB0021CF20FFF7ECFB0021A12056
:102AD000FFF7E8FB0021C820FFF7E4FB0021A62058
:102AE000FFF7E0FB0021A820FFF7DCFB00213F20DF
:102AF000FFF7D8FB0021D320FFF7D4FB00210846C5
:102B0000FFF7D0FB0021D520FFF7CCFB0021802070
:102B1000FFF7C8FB0021D920FFF7C4FB0021F120FB
:102B2000FFF7C0FB0021DA20FFF7BCFB00211220D9
:102B3000FFF7B8FB0021DB20FFF7B4FB00214020AA
:102B4000FFF7B0FB00212020FFF7ACFB00210220A3
:102B5000FFF7A8FB00218D20FFF7A4FB0021142024
:102B6000FFF7A0FB0021A420FFF79CFB0021A6207B
:102B7000FFF798FBFFF724FC0021AF20FFF792FB43
:102B80001CBD0000000002407FB505460C46012137
:102B9000084602F0EEFB0295ADF804400020ADF8C7
:102BA0000600ADF80C0001A94FF0804002F0C3FF11
:102BB00001221146900703F05FFC0121880703F012
:102BC00043F81C208DF8000001208DF801008DF8DD
:102BD00002008DF80300684601F0F3FF7FBD10B5D9
:102BE0000121880703F05FFC012809D1074800682C
:102BF000401C0649086006480078401C04490870DB
:102C00000121880703F060FC10BD00007400002063
:102C10007800002030B58BB005460C4601210846EF
:102C200002F0B8FB0121102002F05AFB0122092119
:102C3000FA4802F042F901220B21F84802F03DF96E
:102C400001220D21F54802F038F901220E21F34846
:102C500002F033F94FF4D440099002208DF8280097
:102C600003208DF8290000208DF82A0001208DF81E
:102C70002B0009A9E94802F095F80795ADF818402E
:102C80000020ADF82000ADF81A0006A9E44802F0D3
:102C900052FF6020ADF804000120ADF806000020CE
:102CA000ADF8100001A9DE4802F0DAFF01A9DC4806
:102CB00003F00FF801A9DA4803F058F801A9D84841
:102CC00003F0BAF80821D64803F057F90821D44890
:102CD00003F05CF90821D24803F065F90821D048D7
:102CE00003F06AF90121CE4803F09FFB0121CC4893
:102CF00002F08CFF0121CA4802F0A6FF0BB030BDE4
:102D000000B587B00121042002F0EAFA30200590D6
:102D100001208DF8180000208DF81A0003208DF88E
:102D2000190000208DF81B0005A9BE4802F03AF8F2
:102D30000121022002F0D4FA0320039001208DF833
:102D4000100000208DF8120003208DF811000020E3
:102D50008DF8130003A9B44802F024F801211020D3
:102D600002F0BEFA4FF41540019001208DF80800E2
:102D700000208DF80A0003208DF8090000208DF84E
:102D80000B0001A9A54802F00DF807B000BD1CB565
:102D90000121022002F0A4FA0121102002F0A0FA81
:102DA0004FF46040009001208DF8040000208DF861
:102DB000060003208DF8050001208DF80700694604
:102DC000994801F0EFFF8020009001208DF8040069
:102DD00000208DF8060003208DF8050001208DF8F5
:102DE000070069468D4801F0DDFF4FF400518E4821
:102DF00002F056F84FF480418B4802F051F84FF43E
:102E00000041894802F04CF88021844802F048F8DB
:102E10001CBD70B504460D46002D03DD44F2A01024
:102E2000451B05E0002D03DA6842A0F58245A03D70
:102E3000002D3DDD012C0CD12946794803F069F8BD
:102E40001021784802F02AF82021764802F028F86C
:102E5000ADE0022C0CD12946714803F05CF8022148
:102E6000714802F01DF801216F4802F017F89EE04A
:102E7000032C0ED129466A4803F04FF84FF48071B5
:102E8000664802F00BF84FF48061644802F008F8DD
:102E90008DE0042CDCD12946614803F040F8A10202
:102EA0005E4801F0FBFF61035C4801F0F9FF7EE042
:102EB000002D3EDA6D42012C0CD12946584803F012
:102EC00028F82021574801F0E9FF1021554801F06A
:102ED000E7FF6CE0022C0CD12946514803F01BF8A7
:102EE0000121514801F0DCFF02214F4801F0D6FFDB
:102EF0005DE0032C0ED12946494803F00EF84FF44B
:102F00008061464801F0CAFF4FF48071434801F0E8
:102F1000C7FF4CE0042C4AD12946414802F0FFFF8C
:102F200061033E4801F0BAFFA1023C4801F0B8FF3E
:102F30003DE00025012C0CD12946394802F0E9FF7B
:102F40001021384801F0ACFF2021364801F0A8FFDD
:102F50002DE0022C0CD12946314802F0DCFF022181
:102F6000314801F09BFF01212F4801F097FF1EE03F
:102F7000032C0ED129462A4802F0CFFF4FF480716E
:102F8000264801F08DFF4FF48061244801F088FF4E
:102F90000DE0042C0BD12946214802F0C0FFA1020C
:102FA0001E4801F07DFF61031C4801F079FF70BDF0
:102FB00070B505460C46012D23D1012C08D14103E3
:102FC000194801F06BFFE103174801F069FF43E086
:102FD000601C50B94FF40051134801F061FF4FF4E9
:102FE0000041114801F05AFF36E054BB4FF4005144
:102FF0000D4801F055FF4FF400410B4801F050FF20
:103000002AE0022D28D1012C10D18021034801F0A3
:1030100045FFA103044801F043FF1DE000100240FA
:10302000000001400008024000040240601C48B952
:1030300080210A4801F034FF4FF48041084801F034
:103040002DFF09E044B98021044801F029FF4FF425
:103050008041034801F024FF70BD000000100240D1
:103060000004024000B589B00121082002F081F976
:103070000121084602F034F9032001908DF809007F
:1030800002208DF8080001208DF80A008DF80B0051
:1030900001A96C4801F086FE02220021694801F076
:1030A0000CFF02220121674801F007FF06A802F089
:1030B00076FD0020ADF818004FF6FF700790002055
:1030C000ADF82000ADF81A0006A95F4802F033FD04
:1030D00000231A4603215C4803F0A1FA03A803F079
:1030E00038F90020ADF8140003A9574803F0FAF8A6
:1030F0000121554803F0D4F901221146524803F04A
:10310000BBF90021504802F05FFD01214E4802F05A
:103110009BFD09B000BD00B589B00121042002F07B
:1031200028F90121022002F0DBF80222062147489B
:1031300001F0C3FE02220721444801F0BEFEC02078
:10314000019002208DF8080003208DF8090001206D
:103150008DF80A008DF80B0001A93C4801F022FE11
:1031600006A802F01CFD0020ADF818004FF6FF7015
:1031700007900020ADF82000ADF81A0006A93448E9
:1031800002F0D9FC00231A460321314803F047FA24
:1031900003A803F0DEF80A20ADF8140003A92C48B8
:1031A00003F0A0F801212A4803F07AF90122114620
:1031B000274803F061F90021254802F005FD0121AF
:1031C000234802F041FD09B000BD10B5FFF7A3FF91
:1031D000FFF748FF10BD70B504460125042C0AD046
:1031E000052C11D1184802F0F3FC05B20021164855
:1031F00002F0EAFC0AE0164802F0EAFC05B20021FF
:10320000134802F0E1FC01E0002500BF00BF2846A2
:1032100070BD0D48103000880B481030008820F039
:1032200001000949103108807047094810300088B2
:1032300007481030008820F001000549103108804F
:103240007047000000000240000C004000040240F3
:10325000000800407FB505460C460121080202F037
:1032600088F80295ADF804400020ADF80600ADF8EE
:103270000C0001A9F84802F05EFC01221146F64854
:1032800003F0FAF80121F44802F0DEFC2D208DF85D
:10329000000001208DF801008DF802008DF8030078
:1032A000684601F08EFC7FBD70B505460C4625B919
:1032B0000821EA4801F0F4FD05E0012D03D10821C1
:1032C000E64801F0EBFD24B90221E44801F0E8FDF5
:1032D00005E0012C03D10221E04801F0DFFDE048C8
:1032E0000078012804D11021DE4801F0D7FD06E066
:1032F000DB48007818B91021DA4801F0D1FD70BD23
:1033000070B505460C462DB94FF40071D64801F052
:10331000C7FD05E0012D03D16902D34801F0BEFDD0
:1033200024B90421CD4801F0BBFD05E0012C03D1F7
:103330000421CA4801F0B2FDCC480078012804D12C
:103340004103C64801F0AAFD07E0C848007820B94B
:103350004FF40051C14801F0A3FD70BD10B5C44841
:103360000078C8B9C34890ED000AC348D0ED000A00
:10337000B4EEE00AF1EE10FA07DB0120BF49087055
:1033800001210846FFF7BCFF0DE00120BC49087091
:103390000021FFF7B5FF06E0B548007818B100211D
:1033A0000846FFF7ADFFB548007870B1B448007823
:1033B00058B10020B2490870B04908700021084691
:1033C000FFF79EFF0120AA490870AE480078C8B9EF
:1033D000AD4890ED000AAD48D0ED000AB4EEE00A29
:1033E000F1EE10FA07D80120A9490870012108461A
:1033F000FFF75AFF0DE00120A64908700021FFF7F2
:1034000053FF06E09A48007818B100210846FFF7FC
:103410004BFF9F48007870B19E48007858B100205B
:103420009C4908709A49087000210846FFF73CFF44
:103430000120944908708E48007898B1914800782E
:1034400080B1002093490870914908708C49087038
:103450008A4908708B4908708549087001208E4997
:10346000087002E000208C4908708B48007810BD7D
:1034700070B505460C462DB94FF48041874801F0E0
:103480000FFD05E0012D03D1A903844801F006FDDD
:103490002CB94FF40041814801F002FD05E0012CF8
:1034A00003D1E1037D4801F0F9FC6D480078012863
:1034B00004D10221794801F0F1FC06E06848007867
:1034C00018B90221754801F0EBFC70BD70B50546D6
:1034D0000C462DB94FF48061704801F0E1FC05E025
:1034E000012D03D1A9026D4801F0D8FC2CB94FF48D
:1034F00000616A4801F0D4FC05E0012C03D1E1022F
:10350000664801F0CBFC66480078012804D101210F
:10351000624801F0C3FC06E06148007818B9012157
:103520005E4801F0BDFC70BD10B55E480078C8B9BA
:103530005D4890ED000A5D48D0ED000AB4EEE00A67
:10354000F1EE10FA07D80120594908700121084608
:10355000FFF7BCFF0DE00120564908700021FFF77E
:10356000B5FF06E04F48007818B100210846FFF784
:10357000ADFF4F48007870B14E48007858B1002038
:103580004C4908704A49087000210846FFF79EFF21
:1035900001204449087048480078C8B9474890ED70
:1035A000000A4748D0ED000AB4EEE00AF1EE10FA46
:1035B00007D801204349087001210846FFF758FF4A
:1035C0000DE00120404908700021FFF751FF06E09F
:1035D0003448007818B100210846FFF749FF394800
:1035E000007870B13848007858B10020364908702A
:1035F0003449087000210846FFF73AFF01202E49A0
:1036000008702848007898B12B48007880B10020D5
:103610002D4908702B490870264908702449087004
:10362000254908701F49087001202849087002E0E8
:103630000020264908702548007810BD70B5054661
:103640000C46012D4ED122480078012842D1042198
:10365000044801F023FC49E000200040000802403B
:103660007D00002000100240000402407E00002087
:10367000A7000020B800002098000020A90000202A
:10368000AA000020A8000020BC0000209C00002010
:10369000AB000020AC000020AD000020000C024078
:1036A0007C000020A0000020E4000020900000200A
:1036B000A2000020A3000020A1000020E8000020BC
:1036C00094000020A4000020A5000020A6000020F7
:1036D00080000020F548007840B90421F44801F04A
:1036E000DFFB03E00421F24801F0DAFB012C04D1F6
:1036F0000821EF4801F0D2FB04E01CB90821EC4896
:1037000001F0CEFB70BDEB490968EB4A1268881ADC
:10371000002806DD0121E94A11700021E84A1170F4
:103720000EE0002805DA0121E44A1170E44A117024
:1037300006E028B90021E14A11700221E14A117026
:10374000704710B500240121DF4802F0ACFE0128CB
:1037500071D1DA48007818B9DA480078012830D1F8
:10376000D8480078012801D1FFF7CDFFD448007870
:1037700040B1CE48007828B1CF480068401ECE49FD
:1037800008600AE0CE48007838B9C848007820B10F
:10379000C9480068401CC8490860C448007801282E
:1037A00003D10020C149087005E0C048007810B975
:1037B0000120BE490870C2480178C0480078FFF770
:1037C0003DFFC2480078782801D0012400E00024A1
:1037D000012C4AD1BD4800786C380D2843D2DFE86F
:1037E00000F0070C1116424242421B20252B3000EC
:1037F00000210120FFF76AFE36E001210846FFF7AD
:1038000065FE31E001210846FFF732FE2CE0002181
:103810000120FFF72DFE27E001210846FFF770FD8C
:1038200022E000210120FFF76BFD1DE00121084689
:10383000FFF73AFD18E08CE000210120FFF734FD8E
:1038400012E0002400210846FFF740FE0021084650
:10385000FFF756FD00210846FFF70AFE0021084643
:10386000FFF722FD00E000BF00BF99480078012863
:1038700003D100209649087005E09548007810B9FA
:1038800001209349087093480078012803D1002053
:103890009049087005E08F48007810B901208D49E3
:1038A00008708D480078012803D100208A490870EB
:1038B00005E08948007810B90120874908708748D9
:1038C0000078012803D100208449087005E083486E
:1038D000007810B9012081490870814800780128DA
:1038E00019D1FFF721FE012815D17E480078401E2E
:1038F0007C49087000210846FFF7E8FD00210846D2
:10390000FFF7B6FD7748007828B9002074490870A1
:1039100006207449087074480078012819D1FFF70F
:103920001DFD012815D171480078401E6F490870AF
:1039300000210846FFF7E4FC00210846FFF7B4FC2D
:103940006A48007828B9002067490870062067494E
:10395000087001215C4802F0B7FD10BD1CB50121C3
:10396000022001F0BDFC0121042001F0B9FC01217D
:10397000082001F0B5FC0121102001F0B1FC4CF64B
:103980000340009001208DF8040000208DF806000F
:1039900003208DF8050001208DF807006946544882
:1039A00001F000FA4FF40070009001208DF804003F
:1039B00000208DF8060003208DF8050001208DF809
:1039C000070069464B4801F0EDF942F20E00009005
:1039D00001208DF8040000208DF8060003208DF8EA
:1039E000050001208DF807006946434801F0DAF927
:1039F0001F20009001208DF8040000208DF80600A3
:103A000003208DF8050001208DF80700694628483D
:103A100001F0C8F90121364801F042FA0221344888
:103A200001F03EFA4FF48061314801F039FA4FF469
:103A300080412F4801F034FA4FF400612C4801F026
:103A40002DFA4FF400412A4801F028FA4FF40051B2
:103A5000294801F025FA1021154801F021FA4FF408
:103A60000071244801F01CFA0821234801F018FADB
:103A70000421214801F012FA02211F4801F00EFA38
:103A800001210B4801F00CFA0221094801F008FA63
:103A90000421074801F004FA0821054801F000FA62
:103AA00040F2F3112920FFF7D5FB1CBD8000002058
:103AB00000100240880000208400002081000020C7
:103AC000820000203F00002000200040380000203D
:103AD0007C0000207D0000207E0000207F00002070
:103AE0008C0000208E0000208D0000208F00002020
:103AF000000C0240000402400008024010B588B0EB
:103B000004460121082001F0EBFB0121480401F0EB
:103B100030FC072205213B4801F0CFF9072206219E
:103B2000384801F0CAF96020069002208DF81C0088
:103B300000208DF81E0002208DF81D0001208DF858
:103B40001F0006A92F4801F02DF926208DF804004A
:103B500001208DF8050000208DF8060001208DF869
:103B6000070001A801F02DF802940020ADF80C0028
:103B7000ADF80E00ADF81000ADF814000C20ADF853
:103B8000120002A9204801F066FD012240F22551F1
:103B90001D4801F09EFE01211B4801F0E4FD08B024
:103BA00010BD10B504462146174801F007FE00BFBE
:103BB0008021154801F0B2FE0028F9D010BD70B583
:103BC00005460E46002404E0285DFFF7EAFF601C6E
:103BD00084B2B442F8DB70BD10B540F225510A48FA
:103BE00001F0B2FE01280CD140F22551064801F047
:103BF000E6FE054801F0E6FD04490870012004498D
:103C0000087010BD000C024000440040AE000020CF
:103C1000AF0000201CB50121084601F061FB102017
:103C2000009000208DF8040003208DF8050001208D
:103C30008DF8070069464B4801F0B4F82020009049
:103C400001208DF8040000208DF8060003208DF877
:103C5000050001208DF807006946424801F0A2F8EE
:103C60004020009001208DF8040000208DF806000F
:103C700003208DF8050001208DF8070069463948BA
:103C800001F090F88020009001208DF804000020C1
:103C90008DF8060003208DF8050001208DF807003F
:103CA0006946304801F07EF81CBD70B50546012418
:103CB0001EE000202C49086004EA050020B1012024
:103CC00029490839086003E00020274908390860BD
:103CD000102000F057FD0120234908602348D0F848
:103CE000100200B12643102000F04CFD6006040EC7
:103CF000002CDEDC01201C4908390860304670BD0C
:103D000070B5044600201849091F086000250AE024
:103D10001749485DFFF7C9FF16494855102000F0C4
:103D200031FD681CC5B2092DF2DB01200E49091FC7
:103D300008601048407820700E48C078C04360701A
:103D40000C480079C043A0700A484079E0700948E7
:103D5000807920710748C07960710648007AA071A7
:103D600070BD0000000002409C0240420000404242
:103D700010970008E40500201CB501210C2001F07B
:103D8000AFFA0820009000208DF8040003208DF881
:103D9000050001208DF8070069461C4801F002F873
:103DA0004FF48070009001208DF807006946184894
:103DB00000F0F8FF1CBD10B5044614B101201549F0
:103DC000087014480078E0B10821104801F04CF860
:103DD00028B14FF480710E4801F046F888B90020F0
:103DE0000C4908700821094801F03EF808B9012083
:103DF00010BD4FF48071064801F036F820B902205A
:103E0000F6E70120034908700020F1E7000C0240AA
:103E100000080240B000002010B588B0044601211F
:103E2000082001F05DFA0121880401F0A2FA0722BE
:103E300008216F4801F041F8072209216C4801F080
:103E40003CF84FF44070069002208DF81C008DF86D
:103E50001D0000208DF81E0001208DF81F0006A90E
:103E6000634800F09FFF02940020ADF80C00ADF80D
:103E70000E00ADF81000ADF814000C20ADF81200E3
:103E800002A95C4801F0E7FB01215A4801F06BFCF4
:103E9000012240F22551574801F01BFD27208DF8E3
:103EA000040003208DF805008DF8060001208DF830
:103EB000070001A800F085FE08B010BD532868D1A6
:103EC0004D4989784D4A11704B49C9784C4A117057
:103ED000494909794B4A1170474949794A4A117051
:103EE00045498979494A11704349C979484A11704D
:103EF00042490978424A127841EA022109B2454A08
:103F0000118040490978404A127841EA022109B2F9
:103F1000414A11803D4909783D4A127841EA02211F
:103F200009B23E4A11803B49B1F9001000EE101A67
:103F3000B8EEC00ADFED3A0A20EE200ADFED390ABA
:103F400080EE201A384981ED001A3349B1F900108A
:103F500000EE101AB8EEC00ADFED310A20EE200A9A
:103F6000DFED300A80EE201A304981ED001A11464B
:103F7000B1F9001000EE101AB8EEC00ADFED280A01
:103F800020EE200ADFED270A80EE201A284981ED75
:103F9000001A704710B540F22551164801F0D4FCC4
:103FA00020B3144801F00EFC22490870084601783D
:103FB000214802780078401C1F4B18700E4881542D
:103FC0000078552802D00020194608701A48007859
:103FD0000B2806DB00201849087007494878FFF7CE
:103FE0006DFF40F22551034801F0E9FC10BD0000CF
:103FF000000C024000480040ED050020C4000020F5
:10400000C5000020C6000020C7000020C800002016
:10401000C9000020CA000020CC000020CE000020F3
:104020000000344300000047B8000020BC0000201E
:10403000C0000020B7000020B60000201CB5012100
:10404000022001F04DF90420009001208DF80400B9
:1040500000208DF8060003208DF8050001208DF862
:1040600007006946034800F09DFE0421014800F066
:1040700017FF1CBD0004024010B588B004460121A2
:10408000042001F02DF90121C80401F072F9082281
:104090000A21F14800F011FF08220B21EE4800F040
:1040A0000CFF4FF44060069002208DF81C008DF844
:1040B0001D0000208DF81E0001208DF81F0006A9AC
:1040C000E54800F06FFE02940020ADF80C00ADF85A
:1040D0000E00ADF81000ADF814000C20ADF8120081
:1040E00034208DF8040003208DF805008DF80600BB
:1040F00001208DF8070001A800F063FD02A9D74850
:1041000001F0A9FA012240F22551D44801F0E1FB67
:104110000121D24801F027FB08B010BD532868D117
:10412000CF498978CF4A1170CD49C978CE4A1170EC
:10413000CB490979CD4A1170C9494979CC4A1170E6
:10414000C7498979CB4A1170C549C979CA4A1170E2
:10415000C4490978C44A127841EA022109B2C74A1F
:104160001180C2490978C24A127841EA022109B293
:10417000C34A1180BF490978BF4A127841EA022137
:1041800009B2C04A1180BD49B1F9001000EE101A01
:10419000B8EEC00ADFEDBC0A20EE200ADFEDBB0A54
:1041A00080EE201ABA4981ED001AB549B1F9001024
:1041B00000EE101AB8EEC00ADFEDB30A20EE200AB6
:1041C000DFEDB20A80EE201AB24981ED001A1146E5
:1041D000B1F9001000EE101AB8EEC00ADFEDAA0A1D
:1041E00020EE200ADFEDA90A80EE201AAA4981ED0F
:1041F000001A704710B540F22551984801F0A4FB11
:1042000020B3964801F0DEFAA44908700846017808
:10421000A34802780078401CA14B18709048815444
:104220000078552802D00020194608709C48007874
:104230000B2806DB00209A49087089494878FFF767
:104240006DFF40F22551854801F0B9FB10BD10B556
:104250008AB0044601210C2001F042F80121080532
:1042600001F087F808220C217B4800F026FE082286
:1042700002218C4800F021FE4FF48050089002206B
:104280008DF824008DF8250000208DF826000120EF
:104290008DF8270008A9704800F084FD04200690DE
:1042A00002208DF81C008DF81D0000208DF81E00E6
:1042B00001208DF81F0006A97A4800F073FD0294D2
:1042C0000020ADF80C00ADF80E00ADF81000ADF810
:1042D00014000C20ADF8120035208DF804000320E6
:1042E0008DF805008DF8060001208DF8070001A863
:1042F00000F067FC02A96C4801F0ADF9012240F220
:104300002551694801F0E5FA0121674801F02BFACF
:104310000AB010BD012868D164490979644A117056
:1043200062494979634A117060498979624A11701A
:104330005E49C979614A11705C49097A604A117015
:104340005A49497A5F4A117059490978594A12788D
:1043500041EA022109B25C4A118057490978574A5B
:10436000127841EA022109B2584A11805449097869
:10437000544A127841EA022109B2554A1180524941
:10438000B1F9001000EE101AB8EEC00ADFED3E0AD7
:1043900020EE200ADFED3D0A80EE201A4D4981ED26
:1043A000001A4A49B1F9001000EE101AB8EEC00A1E
:1043B000DFED350A20EE200ADFED340A80EE201A08
:1043C000454981ED001A1146B1F9001000EE101AAE
:1043D000B8EEC00ADFED2C0A20EE200ADFED2B0A32
:1043E00080EE201A3D4981ED001A704710B540F269
:1043F00025512D4801F0A8FA68B32B4801F0E2F9E5
:104400003749087008460178364802780078401C21
:10441000344B1870254881541846007802280ADB6E
:1044200022480078552803D120484078552802D0EA
:1044300000202C4908702B4800780B2806DB002050
:104440002849087019498878FFF764FF40F2255120
:10445000154801F0B4FA10BD00080240004C0040BD
:1044600051060020F0000020F1000020F2000020A2
:10447000F3000020F4000020F5000020F6000020EA
:10448000F8000020FA00002000003443000000473C
:10449000D4000020D8000020DC000020D000002044
:1044A000D1000020000C024000500040B506002062
:1044B000FC000020FD000020FE000020FF00002086
:1044C0000001002001010020020100200401002061
:1044D00006010020E4000020E8000020EC0000209D
:1044E000E0000020E100002000B58BB001210804AD
:1044F00000F050FF0121102000F0F2FE02208DF8A4
:1045000028006020099003208DF8290000208DF8F4
:104510002A0001208DF82B0009A9834800F042FCF5
:1045200003220521804800F0C8FC032206217E48B2
:1045300000F0C3FC42F20F700790A720ADF81800FE
:104540000020ADF82000ADF81A0006A9774801F068
:10455000F2FA6020ADF804000120ADF8060000205A
:104560000390ADF81000ADF8140001A96F4801F0F8
:1045700077FB01A96D4801F0ACFB08216B4801F005
:10458000FCFC0821694801F001FD0121674801F0A8
:104590005BFB674800686549486366480068886354
:1045A0000BB000BD00B58BB00121022000F0F2FE7F
:1045B0000121042000F094FE02208DF82800000262
:1045C000099003208DF8290000208DF82A00012091
:1045D0008DF82B0009A9584800F0E4FB03220921BB
:1045E000554800F06AFC42F20F700790A720ADF822
:1045F00018000020ADF82000ADF81A0006A94F48B9
:1046000001F099FA6020ADF804000120ADF8060031
:1046100000200390ADF81000ADF8140001A9474840
:1046200001F00AFC0821454801F0C6FC012143487D
:1046300001F0FBFE0121414801F006FB4048006803
:104640003E49403108600BB000BD00B58BB0012180
:10465000480400F09FFE0121022000F041FE0220EC
:104660008DF82800C001099003208DF82900002052
:104670008DF82A0001208DF82B0009A9314800F09F
:1046800091FB032208212F4800F017FC42F20F7023
:104690000790A720ADF818000020ADF82000ADF875
:1046A0001A0006A9284801F046FA6020ADF8040077
:1046B0000120ADF8060000200390ADF81000ADF821
:1046C000140001A9204801F0CBFA08211E4801F08E
:1046D00054FC01211C4801F0A8FE01211A4801F0F8
:1046E000B3FA1A4800681849343108600BB000BDAD
:1046F00010B5044621460D4801F00BFC10BD10B565
:1047000004462146094801F006FC10BD10B50446D8
:1047100021460A4801F003FC10BD10B504462146AD
:10472000094801F0F6FB10BD0010024000400140B6
:10473000080100200C010020000802400004014094
:104740001401002000040240004401401001002038
:1047500010B504466FF0040000F080FAE11704EB96
:104760005171C1F3C701394A11701046007800EB4E
:104770004001C1EBC0104FF6FF7101EAC00034499F
:10478000088010BD0146314A12784A434FF0E023B9
:104790005A6100229A611A46126942F001021A61B6
:1047A00000BF4FF0E022106900F001021AB100F4DE
:1047B0008032002AF5D04FF0E022126922F0010287
:1047C0004FF0E0231A6100229A6170470146204AA7
:1047D00012884A434FF0E0235A6100229A611A4638
:1047E000126942F001021A6100BF4FF0E022106925
:1047F00000F001021AB100F48032002AF5D04FF027
:10480000E022126922F001024FF0E0231A61002237
:104810009A61704770B504464FF4077094FBF0F04E
:10482000C6B24FF4077094FBF0F100FB114085B263
:1048300005E04FF40770FFF7C9FF701EC6B2002EE7
:10484000F7D115B12846FFF7C1FF70BD1801002050
:104850001A01002010B54FF4A06000F0ADF9A820B7
:10486000FFF776FF4FF4165000F06BF84FF4E1308D
:10487000FFF744F94FF4E130FFF7CEFA4FF416504A
:10488000FFF7FAFB4FF4E130FFF7E1FC40F247316C
:104890006320FEF779F9FFF7D1FB002144F29F1066
:1048A000FEF7B8F9FEF72CFAFEF771FAFEF78DFC69
:1048B000FFF754F8FEF7D8F8FFF7ACF9FFF75CFA0A
:1048C000FFF712FEFFF76EFEFFF7BFFE0020134951
:1048D000086041F2883048604000886043F69820C4
:1048E000C86044F62060086146F2A810486140F6AE
:1048F000EC100B4908604FF41B6048604FF41660E1
:1049000088604FF41160C86040F6E800086140F626
:10491000AC0048617B200349087010BD4C010020A9
:10492000340100202C00002000BF704700BF8C4ADB
:10493000128802F04002002AF9D0C2B2884B9A8055
:10494000704710B588B004460121084600F0C8FC45
:104950000121102000F01EFD07220921814800F0EE
:10496000ACFA07220A217F4800F0A7FA4FF4C06092
:10497000069002208DF81C008DF81D0000208DF897
:104980001E0001208DF81F0006A9764800F00AFAE3
:1049900002940020ADF80C00ADF80E00ADF8100048
:1049A000ADF814000C20ADF8120002A96C4800F01C
:1049B00052FE01216A4800F0D6FE012240F2255144
:1049C000674800F086FF25208DF8040003208DF84D
:1049D00005008DF8060001208DF8070001A800F001
:1049E000F0F808B010BD10B540F225515C4800F059
:1049F000ABFF002872D05A4800F0E4FEC4B2A4F124
:104A00003200292878D2DFE800F01519771D7721C8
:104A100077777777777777777725292D3135393D10
:104A20004145494D5155777777777777595D61657E
:104A30006B6F730002204C4908705EE003204A4906
:104A400008705AE005204849087056E0072046499A
:104A5000087052E06C20454908704EE06D204349D3
:104A600008704AE06E204149087046E06F203F49D7
:104A7000087042E070203D4908703EE071203B49DB
:104A800008703AE072203949087036E073203749DF
:104A9000087032E07420354908702EE075203349E3
:104AA00008702AE076203149087026E077202F49E7
:104AB000087022E078202D4908701EE069202B49FB
:104AC00008701AE068202949087016E06A20274912
:104AD000087012E06B20254908700EE03FE00BE003
:104AE00067202249087008E065202049087004E02A
:104AF00066201E49087000E000BF00BF1C48008807
:104B000000F4004058BB1A48008800F4804060B1AF
:104B10000A2C03D000201649088020E014480088A1
:104B200040F400401249088019E00D2C06D11048CD
:104B3000008840F480400E49088010E00C4800884E
:104B4000C0F30D000B490C5409480088401C08496B
:104B5000088008460088C72801DD0020088010BDB5
:104B60000010014000000240340000203600002008
:104B70002001002019070020094880470948004704
:104B8000FEE7FEE7FEE7FEE7FEE7FEE7FEE7FEE7FD
:104B9000FEE7FEE704480549054A064B704700005A
:104BA000C90300088901000848080020480E0020B9
:104BB000480A0020480A002032490143324A116065
:104BC000704770B5002100230F22C4781CB32E4C0F
:104BD000246804F4E064C4F5E064C4F30721C1F17F
:104BE0000404E3B20A4144789C40E1B28478144062
:104BF00021430C07210E254C05786155047804F0FB
:104C00001F050124AC4005786D11AD0005F1E025CC
:104C1000C5F8004109E0047804F01F050124AC4008
:104C20001B4D0678761145F8264070BD194A0A409A
:104C30000243154B1B1F1A60704739B1124A121DEF
:104C400012680243104B1B1D1A6006E00E4A121D2B
:104C5000126882430C4B1B1D1A607047042808D150
:104C60004FF0E021096941F004014FF0E0221161A9
:104C700007E04FF0E021096921F004014FF0E02244
:104C8000116170470000FA050CED00E000E400E05F
:104C900080E100E080FFFF1F10B504469848844281
:104CA00008D10121084600F086FB0021012000F018
:104CB00082FB76E09348844208D10121022000F073
:104CC0007AFB0021022000F076FB6AE08E488442E5
:104CD00008D10121042000F06EFB0021042000F027
:104CE0006AFB5EE08948844208D10121082000F077
:104CF00062FB0021082000F05EFB52E08448844201
:104D000008D10121102000F056FB0021102000F0F6
:104D100052FB46E07F48844208D10121202000F068
:104D20004AFB0021202000F046FB3AE07A4884420A
:104D300008D10121402000F03EFB0021402000F07E
:104D40003AFB2EE07548844208D10121802000F012
:104D500032FB0021802000F02EFB22E070488442CC
:104D600008D10121801500F026FB0021A01500F0DC
:104D700022FB16E06B48844208D10121401500F067
:104D80001AFB0021601500F016FB0AE06648844219
:104D900007D10121001500F00EFB0021201500F0C5
:104DA0000AFB10BDF0B50A4600210023002400BF15
:104DB0003DE0012505FA01F3156805EA03049C426C
:104DC00034D105684F000326BE40B5430560157910
:104DD0004E00B5400668354305601579012D02D0B7
:104DE0001579022D16D185684F000326BE40B543C4
:104DF000856055794E00B5408668354385604568C5
:104E000001268E40B5434560456896798E40B6B21E
:104E100035434560C5684F000326BE40B543C560B5
:104E2000D5794E00B540C6683543C560491C102988
:104E3000BFD3F0BD4FF6FF710160002101714171D8
:104E40008171C171704708B54FF480320092009AA9
:104E50000A430092009AC261C161009AC261C269AC
:104E60000092C269009208BD0246002013690B40FF
:104E70000BB1012000E0002070470146086980B2B4
:104E800070470246002053690B400BB1012000E03F
:104E9000002070470146486980B27047018370471F
:104EA000418370470AB1018300E04183704741614B
:104EB000704742694A4042617047F0B500230024C0
:104EC0004D07ED0E02FA05F3CE1000F1200555F85E
:104ED00026504E07F70E0F26BE40B543CF1000F107
:104EE000200646F82750CE1000F1200555F8265030
:104EF00045EA0304CE1000F1200545F82640F0BD38
:104F0000000002400004024000080240000C024081
:104F1000001002400014024000180240001C024031
:104F2000002002400024024000280240F9480068A6
:104F300040F00100F74908600020F6490831086098
:104F4000F4480068F4490840F2490860F348091D34
:104F50000860F348EF4984310860F0481038091DB3
:104F60000860EC48006820F48020EA4908600020CE
:104F7000E8490C310860E7498C310860704700212E
:104F8000E44A921C117011460870704710B5014632
:104F90000022002300204A11012A02D1DD4C23689F
:104FA00008E0022A03D1DB4C7034236802E0D94CBC
:104FB0007434236801F01F02012494401C400CB19A
:104FC000012000E0002010BD38B500200090002432
:104FD000002500BF3120FFF7D9FF05460098401C8F
:104FE00000900098B0F5A04F01D0002DF2D03120F4
:104FF000FFF7CCFF08B1012400E00024204638BDB3
:1050000001460020C34A106820F0F80040EAC100C1
:1050100010607047C349086070470021BD4A703274
:1050200011701170012802D004280AD104E0012176
:10503000B84A7032117005E00521B64A703211701D
:1050400000E000BF00BF7047B7490860704770B507
:10505000049C41EA82150126C6EB530645EA064543
:10506000054345EA0465AB4E361D356070BDAD495C
:1050700008667047820142EA0172A64B84331A60C7
:105080007047A8498866704710B5830143EA0163F9
:1050900043EA02739F4C8834236010BDA14908671E
:1050A0007047A049C864704702460020994B0833F6
:1050B000186820F0EC6042EA01031843954B08336E
:1050C0001860704702460020924B0833186820F0A1
:1050D000784042EA010318438E4B0833186070474A
:1050E000014600208B4A0832106820F00300084374
:1050F0001060704787480830006800F00C00704767
:1051000001460020834A0832106820F0F00008436E
:1051100010607047014600207E4A0832106820F473
:10512000E05008431060704701460020794A083279
:10513000106820F4604040EAC10010607047F0B58C
:10514000002100220024022500260223714F083787
:105150003F6807F00C0121B1042905D0082937D197
:1051600005E0724F076036E0714F076033E0694F2A
:105170003F1D3F68C7F38056664F3F1D3F6807F0ED
:105180003F036EB16A4FB7FBF3F7DFF888C10CF14C
:10519000040CDCF800C0CCF3881C07FB0CF40CE01A
:1051A000624FB7FBF3F7DFF86CC10CF1040CDCF8CD
:1051B00000C0CCF3881C07FB0CF4564F3F1D3F6822
:1051C000C7F301477F1C7D00B4FBF5F7076002E0E1
:1051D000564F076000BF00BF4E4F08373F6807F0CB
:1051E000F0010909534F7A5C0768D7404760494F7F
:1051F00008373F6807F4E051890A4E4F7A5C4768E8
:10520000D7408760434F08373F6807F46041490B38
:10521000484F7A5C4768D740C760F0BD002100F472
:105220004072B2F5407F0AD13A4A0832116821F43F
:10523000F811414A02401143364A08321160354A9A
:1052400070321268C0F30B031A43324B70331A608A
:105250007047354944390860704733494039086020
:10526000704736490860704701460020294A8C3251
:10527000106820F01F004A1E1043264A8C3210602E
:10528000704701460020234A8C32106820F4F85001
:105290004A1E40EA02201F4A8C32106070470146C5
:1052A00000201C4A8C32106820F440100843106023
:1052B000704701460020174A8C32106820F44000E5
:1052C00008431060704701460020124A8C32106873
:1052D00020F4403008431060704719490860704757
:1052E00039B10C4A3032126802430A4B30331A602B
:1052F00006E0084A303212688243064B30331A60A7
:105300007047F9B1034A343212680243014B343317
:105310001A601CE000380240FFFFF6EA103000245B
:105320000030002000004742800E47420024F40075
:1053300000127A0022010020FFFCFF0F5C014742AF
:10534000E01147428F4A126882438E4B1A607047C1
:1053500039B18C4A121D126802438A4B1B1D1A6018
:1053600006E0884A121D12688243864B1B1D1A6094
:10537000704739B1834A0C3212680243814B0C33B7
:105380001A6006E07F4A0C32126882437D4B0C3370
:105390001A60704739B17B4A103212680243794B68
:1053A00010331A6006E0774A103212688243754B58
:1053B00010331A60704739B1724A243A12680243B6
:1053C000704B243B1A6006E06E4A243A126882430E
:1053D0006C4B243B1A60704739B16A4A203A126814
:1053E0000243684B203B1A6006E0664A203A126886
:1053F0008243644B203B1A60704739B1614A1C3AC2
:10540000126802435F4B1C3B1A6006E05D4A1C3A7F
:10541000126882435B4B1C3B1A60704739B1594A92
:10542000143A12680243574B143B1A6006E0554A7F
:10543000143A12688243534B143B1A60704739B1D7
:10544000504A103A126802434E4B103B1A6006E075
:105450004C4A103A126882434A4B103B1A6070471C
:1054600039B1484A1C3212680243464B1C331A6059
:1054700006E0444A1C3212688243424B1C331A60D5
:10548000704739B13F4A2032126802433D4B203306
:105490001A6006E03B4A203212688243394B2033BF
:1054A0001A60704739B1374A243212680243354BCB
:1054B00024331A6006E0334A243212688243314BA7
:1054C00024331A60704739B12E4A2C3212680243D5
:1054D0002C4B2C331A6006E02A4A2C321268824385
:1054E000284B2C331A60704739B1264A3032126883
:1054F0000243244B30331A6006E0224A30321268ED
:105500008243204B30331A607047012808D11D496F
:105510003C31096841F008011A4A3C32116007E049
:1055200018493C31096821F00801164A3C321160E3
:10553000704739B1134A273A12780243114B273B7F
:105540001A7006E00F4A273A127882430D4B273B28
:105550001A7070470B484030006840F0807009496D
:1055600040310860704701460020064A283A126818
:105570000A400AB1012000E00020704701492639A5
:10558000087070473438024010B50446FA48844227
:1055900008D101211020FFF752FF00211020FFF752
:1055A0004EFF57E0F548844209D101214804FFF736
:1055B00035FF00214FF40030FFF730FF4AE0F0489C
:1055C000844209D101218804FFF728FF00214FF40C
:1055D0008020FFF723FF3DE0EA48844209D1012102
:1055E000C804FFF71BFF00214FF40020FFF716FF50
:1055F00030E0E548844209D101210805FFF70EFF9C
:1056000000214FF48010FFF709FF23E0DF488442B8
:1056100008D101212020FFF712FF00212020FFF7F1
:105620000EFF17E0DA48844209D101218807FFF70D
:10563000F5FE00214FF08040FFF7F0FE0AE0D5486C
:10564000844207D101214005FFF7E8FE00216005F3
:10565000FFF7E4FE10BD2DE9FF4705460E46002486
:10566000A14600BFA046B08900B100BF2C8A24F437
:105670004054F08804432C82AC8941F20C6084438E
:10568000B08831890843718908430443AC81AC8AEE
:1056900024F44074B0890443AC826846FFF74FFDA0
:1056A000B548854202D0B948854202D1DDF80C9058
:1056B00001E0DDF80890A88900F4004040B109EB52
:1056C000C90000EB091031684900B0FBF1F707E0B1
:1056D00009EBC90000EB091031688900B0FBF1F754
:1056E0006420B7FBF0F004012009642101FB10786D
:1056F000A88900F4004040B1322000EBC800B0FBA4
:10570000F1F000F00700044308E0322000EB08103D
:105710006421B0FBF1F000F00F0004432C81BDE8E0
:10572000FF874FF41651016000218180C180018103
:105730000C21418100218181704710B50246002073
:10574000108A20F470600B884C8823438C88234394
:10575000CC8823431843108210BD00210180418072
:105760008180C180704721B1828942F400528281D8
:1057700004E082894DF6FF731A4082817047028BE4
:1057800002F47F420283028B0A430283704721B1F5
:10579000828942F40042828103E08289C2F30E02D0
:1057A0008281704721B1828A42F40062828204E0E1
:1057B000828A4FF2FF731A4082827047C1F3080257
:1057C0008280704701468888C0F308007047028ACB
:1057D0004FF6F0731A400282028A0A43028270472F
:1057E00021B1828942F00202828104E082894FF66F
:1057F000FD731A408281704782894FF2FF731A400D
:10580000828182890A4382817047028A4FF6DF7360
:105810001A400282028A0A430282704721B1028A38
:1058200042F48042028204E0028A4BF6FF731A407F
:1058300002827047818941F001018181704721B165
:10584000828A42F00802828204E0828A4FF6F7736D
:105850001A4082827047028BD2B20283028B42EAE4
:1058600001220283704721B1828A42F020028282A3
:1058700004E0828A4FF6DF731A408282704721B1BA
:10588000828A42F01002828204E0828A4FF6EF732D
:105890001A4082827047828A4FF6FB731A408282D6
:1058A000828A0A438282704721B1828A42F00202D0
:1058B000828204E0828A4FF6FD731A40828270472A
:1058C0001AB1838A0B43838202E0838A8B438382EB
:1058D0007047F0B50346002400260025002040F65E
:1058E0006A17B94200D100BF1846C1F3421401F053
:1058F0001F06012707FA06F5012C01D10C3004E040
:10590000022C01D1103000E014301AB107682F4387
:10591000076002E00768AF430760F0BD0246002061
:10592000B1F5007F00D100BF13880B400BB10120FF
:1059300000E00020704701F40072B2F5007F00D152
:1059400000BFCA430280704770B50246002400239E
:105950000025002040F66A16B14200D100BFC1F315
:10596000421501F01F03012606FA03F3012D13D19E
:105970009689334017E000000010014000440040C9
:1059800000480040004C004000500040001401401E
:1059900000780040007C0040022D02D1168A33407E
:1059A00001E0968A33400C12012606FA04F41688A8
:1059B000344013B10CB1012000E0002070BD10B5DF
:1059C0000022002340F66A14A14200D100BF0A124F
:1059D00001249440A3B2DC43048010BD10B50446FA
:1059E000FE48844208D101210846FFF728FD002126
:1059F0000120FFF724FD9DE0B4F1804F08D1012183
:105A00000846FFF70BFD00210120FFF707FD91E09D
:105A1000F348844208D101210220FFF7FFFC002156
:105A20000220FFF7FBFC85E0EE48844208D101210B
:105A30000420FFF7F3FC00210420FFF7EFFC79E0DE
:105A4000E948844208D101210820FFF7E7FC002142
:105A50000820FFF7E3FC6DE0E448844208D101210F
:105A60001020FFF7DBFC00211020FFF7D7FC61E0DE
:105A7000DF48844208D101212020FFF7CFFC00211C
:105A80002020FFF7CBFC55E0DA48844208D1012101
:105A90000220FFF7D4FC00210220FFF7D0FC49E0F0
:105AA000D548844209D101210804FFF7C8FC002130
:105AB0004FF48030FFF7C3FC3CE0D048844209D16A
:105AC00001214804FFF7BBFC00214FF40030FFF731
:105AD000B6FC2FE0CA48844209D101218804FFF7AF
