:020000040800F2
:1000000018080020D5020008852B0008652A000882
:10001000ED2A0008B52800083F4100080000000054
:10002000000000000000000000000000493200084D
:1000300069290008000000009D30000861330008B5
:10004000EF020008EF020008EF020008EF020008CC
:10005000EF020008EF020008EF020008EF020008BC
:10006000EF020008EF020008EF020008EF020008AC
:10007000EF020008EF020008EF020008EF0200089C
:10008000EF020008EF020008EF020008EF0200088C
:10009000EF020008EF020008EF020008EF0200087C
:1000A000EF020008EF020008EF020008EF0200086C
:1000B000EF020008EF020008EF020008EF0200085C
:1000C000EF020008EF020008EF020008EF0200084C
:1000D000EF0200088D3E0008313F0008EF020008E3
:1000E000EF020008EF020008EF020008EF0200082C
:1000F000EF020008EF020008EF020008EF0200081C
:10010000EF020008EF02000861360008EF02000865
:10011000EF0200084D3D0008EF020008EF02000862
:10012000EF020008EF020008EF020008EF020008EB
:10013000EF020008EF020008EF020008EF020008DB
:10014000EF020008EF020008EF020008EF020008CB
:10015000EF020008EF020008EF020008EF020008BB
:10016000EF020008EF020008EF020008EF020008AB
:10017000EF020008EF020008EF020008EF0200089B
:10018000EF020008EF02000800F002F800F092F819
:100190000AA090E8000C82448344AAF10107DA45E2
:1001A00001D100F087F8AFF2090EBAE80F0013F0A2
:1001B000010F18BFFB1A43F001031847C85B00008A
:1001C000E85B0000103A24BF78C878C1FAD852071B
:1001D00024BF30C830C144BF04680C6070470000C1
:1001E0000023002400250026103A28BF78C1FBD840
:1001F000520728BF30C148BF0B6070476E2900F01E
:10020000E782702900F04186662905F0BD816529E5
:1002100005F0BA81672905F0B781612905F0B6813B
:1002200003681B0A28BF41F08001692900F0B680ED
:10023000642900F0B380752900F0B0806F2900F0C8
:10024000CF85782900F00D86E92900F06985E42939
:1002500000F06685F52900F06385EF2900F0CC8574
:10026000F82900F00C860368DB0928BF41F0800103
:10027000632900F0D884732900F0DD84E32901F0BC
:10028000EF80F32901F0F480002070471FB505F0DE
:1002900071F900F0AFFE04000020002104F004FC1E
:1002A000401C60600020002104F0E8FBE0601FBDFE
:1002B00010B510BD01F096F91146FFF7E7FF04F005
:1002C0007DF901F00FFC03B4FFF7F2FF03BC04F06B
:1002D00064F800000948804709480047FEE7FEE748
:1002E000FEE7FEE7FEE7FEE7FEE7FEE7FEE7FEE7E6
:1002F00004480549054A064B70470000CD33000805
:1003000089010008180200201808002018040020A5
:1003100018040020704700000FB4044910B503AA68
:10032000029800F08DFC10BC5DF814FB3C0000202E
:100330000FB4044910B503AA029800F081FC10BC68
:100340005DF814FB3C00002070B50C460546012A00
:1003500005D02878800600D5EA69002302E0012351
:1003600005E05B1C934202D2E05C0028F9D1A86949
:10037000E618C01AA861286A18442862284600F0C6
:1003800095F904E0D5E9012114F8010B9047B44236
:10039000F8D3284600F0A0F970BD00002DE9F04127
:1003A0000646002410687529314616A510D000F0C5
:1003B000A4F9002802DA404213A507E031688A0751
:1003C00001D512A502E0490704D511A5012401E0D9
:1003D00000F09CF900210A2206F1240709E0B0FB95
:1003E000F2FCB0FBF2F302FB1C00303078541846EC
:1003F000491C0028F3D123462A463046BDE8F04187
:1004000000F08DB9000000002D0000002B0000005E
:10041000200000002DE9F05F894604464FF0000AF5
:10042000DFF874B1FB44C0F820A02046E16888479B
:10043000002874D0252806D0D4E901219047206AED
:10044000401C2062F1E700265F462046E1688847AD
:100450002028054607DB312D05D2781910F8200C2D
:1004600008B10643F1E7B00701D526F00406C4F849
:100470001CA00027C4F818A02A2D09D0284603F094
:1004800085FF38B304EB8708303DC8F8185019E0F1
:1004900059F8041B204604EB87029161E168884704
:1004A000012F054618D1E069002820DA26F0200641
:1004B0001DE0D8F8180000EB800005EB4000303854
:1004C000C8F818002046E1688847054603F05EFF3B
:1004D0000028EED1012F0AD02E2D08D12046E16848
:1004E00088477F1C0546022F46F02006C4DBA06922
:1004F000002803DA404246F00106A061F00701D06F
:1005000026F010066C2D0BD0682D09D04C2D39D05B
:100510006A2D35D0742D35D07A2D33D016E038E0E1
:10052000E1682F4620468847B842054609D16C2F1E
:1005300026D04FF48060E168064320468847054690
:1005400004E06C2F1AD04FF4807006430DB3A5F170
:100550004100192802D8203546F400664A4629464B
:10056000204626604E46FFF749FE80B101280BD099
:10057000F61D26F0070000F1080956E74020E4E7E1
:100580008020D8E70020D6E706F104094DE7284689
:1005900052E7206ABDE8F09F5D58000030B505467F
:1005A0000B462A4613F8014B12F8010B08B1A04282
:1005B000F8D01CB1002802D06D1CF1E7284630BDF0
:1005C000032A40F2308010F0030C00F0158011F87F
:1005D000013BBCF1020F624498BF11F801CB00F857
:1005E000013B38BF11F8013BA2F1040298BF00F8AB
:1005F00001CB38BF00F8013B11F0030300F0A084E9
:10060000083AC0F0088051F8043B083A51F804CB8E
:10061000A0E80810F5E7121D5CBF51F8043B40F854
:10062000043BAFF30080D20724BF11F8013B11F85F
:1006300001CB48BF11F8012B24BF00F8013B00F8A3
:1006400001CB48BF00F8012B70474FF0000204298E
:10065000C0F0128010F0030C00F0A684CCF1040C62
:10066000BCF1020F18BF00F8012BA8BF20F8022B25
:10067000A1EB0C0100F098BC5FEAC17C24BF00F83C
:10068000012B00F8012B48BF00F8012B7047704781
:1006900070477047704710B500F0B0FC006810BD9F
:1006A00010B5044600F0AAFC046010BD70B5044605
:1006B00085690068C10601D5302600E02026C00704
:1006C00007D070BDD4E9012130469047206A401C14
:1006D00020626D1EF6D570BD70B504468569007840
:1006E000C00707D170BDD4E9012120209047206ABE
:1006F000401C20626D1EF6D570BD09684A0501D503
:1007000040B27047C905FCD500B2704709684A0578
:1007100001D5C0B27047C905FCD580B270472DE93C
:10072000F0470D4699469246044600F124080168B8
:10073000880604D5E06921F01001216000E0012065
:10074000A84201DD471B00E00027A1697A1902EBEE
:100750000900081AA0612078C00602D42046FFF7DD
:10076000A5FF002608E0D4E901211AF80600904709
:10077000206A401C761C20624E45F4DB2078C006BF
:100780000AD52046FFF792FF06E0D4E90121302088
:100790009047206A401C2062381EA7F10107F4DC54
:1007A00007E0D4E9012118F805009047206A401CB1
:1007B0002062281EA5F10105F3DC2046FFF78CFF1F
:1007C0002078000602D50220BDE8F0870120FBE773
:1007D00011680268006A530501D508700AE0D30564
:1007E00001D5088006E0130603D5C217C1E900024F
:1007F00000E008600120704770472DE9FF4F0C466C
:100800001E464FF0FF378BB0D2E90001DDF8608063
:100810000A908A46C1F30A5505B93D4600210846AB
:100820004FF00000BAF1000F00F4400005DA00EBD1
:1008300080004FF4400101EA50004FEA9059B9F1AD
:10084000010F00DDB9460A9850EA4A000ED044F67E
:100850001050A5F2FF3545432F14B8F1000F1ED0FC
:100860007542291E1EDDC9F100021CE0B8F1010F1E
:100870004FF0000001D0302103E0F24305E02154A5
:10088000401CB042FBDB30460022002121540B9972
:10089000C1F80880C1E900200FB0BDE8F08FBD1B92
:1008A0006D1CDEE74A4600DA694206A800F004FE45
:1008B00006AB93E8070003AB83E8070050460A99AC
:1008C00001F0A1FB8DE80700A0F500501F38009053
:1008D0000398002D09DD42F21F014A46084403A98E
:1008E0000390684601F02BFE08E0A0F500504A4650
:1008F0001F3803A90390684601F049FE8DE8070000
:100900000004000C03D04FF0FF30410800E0104617
:10091000B8F1000F03D00022009215461EE0751EAC
:1009200005D400F06FFB303262556D1EF9D5B34629
:100930000122084302D000227F1C04E020783028E6
:1009400001D100227F1E002A099786D01DE0112DBB
:1009500007DA00F057FB303262556D1C50EA010295
:10096000F5D1084302D00098C8B10EE00021681EFE
:1009700005E0235C625C63542254401E491C8142A2
:10098000F7DBAB46A81B401E0990002004F80B00C3
:100990000B98099AC0F80880C0E9002B7CE7112663
:1009A0004FF0000859E72DE9F04F88460446D21D64
:1009B00022F0070191B0D1E90001CDE90A0103F06D
:1009C000C0FB02460B98C00F01D02D2007E0206825
:1009D000810701D52B2002E0202101EAC000032A73
:1009E000099001D0072A05DB03464146204600F066
:1009F000EDFC0BE12078800601D5E06900E00620DF
:100A0000B8F1650F814606D0B8F1660F18D0B8F17D
:100A1000670F70D131E00020B9F1110F009001DBB8
:100A2000112301E009F101030AAA01A90CA8FFF7AB
:100A3000E4FEDDE90C70002609F10105834647E07C
:100A400001204B4600904FF000470AAA01A90CA8CC
:100A5000FFF7D3FEDDE90DB00C995D46002610B915
:100A600009F101000D18B9EB050003D4C0F1FF3600
:100A700009F10105A5EB09002BE0B9F1010F01DA3D
:100A80004FF001090020B9F1110F0090484601DD37
:100A9000112300E003460AAA01A90CA8FFF7ADFE46
:100AA000DDE90C704D4600268346207800070AD405
:100AB000AB4500DA5D4601A8012D04DD411911F8AE
:100AC000011C302907D04F4502DA17F1040F04DA70
:100AD000012082460FE06D1EEEE7002F02DCED1BC9
:100AE0003E4403E0781CA84200DD7D1CB81B00F1E9
:100AF000010A4FF000472078000703D4AA4501DB24
:100B00004FF0FF3A0021B7F1004F0DF143088DF887
:100B1000431024D002202B23002F01DA7F422D2303
:100B20000A21021EA0F1010000DC5FB197FBF1FC7D
:100B300097FBF1F201FB1C7C17460CF1300C08F816
:100B400001CDEEE7A8F1010003702188090501D568
:100B5000452100E06521A0F1010800F8011C099879
:100B60000FA9A1EB0807FF1D00B10120411901EBFE
:100B7000EA70A1693844081A401EA0612078C006B6
:100B800002D42046FFF792FD099828B1D4E901214B
:100B90009047206A401C20622078C00622D520465B
:100BA000FFF784FD1EE0002E04DBB34502DD01A843
:100BB000805D00E03020D4E901219047206A401C8C
:100BC0002062761CAAF101005FEA000A0AD100F057
:100BD00011FAC0680168405CD4E901219047206A9D
:100BE000401C2062281EA5F10105DCDC07E0D4E9E9
:100BF000012118F8010B9047206A401C2062381E22
:100C0000A7F10107F3DC2046FFF766FD032011B0D2
:100C100043E610B5436913B1AFF3008001E0FFF77D
:100C200093FB012010BD127800F124010A7000220C
:100C30004A700122EDE711684FF0FF32E9E700004A
:100C4000074B70B50D467B4400F0ADFB04462846CB
:100C500000F0A0FC10B14FF0FF3070BD204670BD19
:100C6000CB3800002DE9FF5F15468A460446DFF8C1
:100C7000AC80F8440027D8E900103E46CDE90010CA
:100C800010E03AF816106A4602A800F087FC411CF2
:100C900007D02178890603D5E269391891420DD829
:100CA0000744761C2078800602D5E069B84205DD4D
:100CB000AE42E6DB3AF816000028E2D1A069C01B7C
:100CC000A0612046FFF7F2FCD8E90010CDE9001042
:100CD000002017E03AF818106A4602A800F05EFCFF
:100CE000B0F1FF3F81460BD000250DF1080B05E068
:100CF000D4E901211BF8050090476D1C4D45F7D341
:100D000008F10100B0428046E4DB206A38442062EA
:100D10002046FFF7E1FCBDE8FF9F000022500000E5
:100D20002DE9F0418046D21D22F007020025D2E9CC
:100D30000002F52915A614D0011E72F1000106DA91
:100D40000023D0EB030063EB020211A608E0D8F801
:100D500000108B0701D50FA602E0490701D50EA6AA
:100D600001251146002408F1240704E000F04AF9A7
:100D700030323A55641C50EA0102F7D12B46324614
:100D800021464046BDE8F041FFF7C9BC0000000025
:100D90002D0000002B0000002000000030B40021D6
:100DA00000F1240408E002F00705D208303542EAD9
:100DB0004372DB086554491C52EA0305F3D1046809
:100DC000002310A2250708D504F020040C4304D00A
:100DD000C46901230CA2641EC46130BCFFF79FBC30
:100DE00010B5044621461068FFF790FC02462046E5
:100DF000BDE810400023D1E7D21D22F00701D1E960
:100E00000023CBE70000000030000000F0B40D46E6
:100E10000188090502D5214C7C4402E01F4C7C442A
:100E20000E34002100F1240608E002F00F07120939
:100E3000E75D42EA03721B097754491C52EA030733
:100E4000F3D102780023120704D5702D06D009B122
:100E5000022311342246F0BCFFF761BC0123103499
:100E6000F8E770B504460D4621461068FFF74EFCC2
:100E7000024629462046BDE870400023C6E7D21D41
:100E800022F00703D3E90023C0E70368126843F0A8
:100E9000200303600823C3610023B7E7844E0000EA
:100EA0000FB4002300B589B00CA900910B99CB6059
:100EB000204B7B440693204B7B44079304236FF025
:100EC0000042CDE901321D4A7A446B46089202463F
:100ED000002004F0BDFB09B05DF814FB70B50646B8
:100EE0004FF0FF3015460C46324686B00091CDE9F2
:100EF000010169460020049004A8FFF7D1FF0346D2
:100F00000498211825B108B10A4600E022462A605B
:100F100000280DD0002B02DD0098884208D0324610
:100F2000081B69460094CDE9010404A8FFF7B8FF47
:100F300006B070BDC3050000DB050000C301000062
:100F400010B5203AC0F00B80B1E81850203AA0E864
:100F50001850B1E81850A0E81850BFF4F5AF5FEA98
:100F6000027C24BFB1E81850A0E8185044BF18C94B
:100F700018C0BDE810405FEA827C24BF51F8043BF2
:100F800040F8043B08BF7047D20728BF31F8023B46
:100F900048BF11F8012B28BF20F8023B48BF00F8DA
:100FA000012B70474FF0000200B513469446964659
:100FB000203922BFA0E80C50A0E80C50B1F120016C
:100FC000BFF4F7AF090728BFA0E80C5048BF0CC01A
:100FD0005DF804EB890028BF40F8042B08BF704778
:100FE00048BF20F8022B11F0804F18BF00F8012BEA
:100FF0007047000000487047D40100200048704747
:10100000B401002030B5B0F10A024FEA900E71F140
:1010100000034EEA817EB0EB0E0061EB91014FEAD6
:10102000101E4EEA017E10EB0E0041EB11114FEA4B
:10103000102E4EEA016E10EB0E0041EB11214FEA2B
:10104000104E4EEA014E10EB0E0041EB11414018DC
:1010500041F100014FEAD00040EA41704FEAD1016E
:1010600010EB80054FEA810444EA907444EB0104DC
:101070006D1944EB0404521BA3414FF0000348BF19
:101080000A3200D530BD401C41F1000130BD10B521
:10109000044600F0CDFA0068005D00F0010010BDCC
:1010A0002DE9F04F04460D46D21D22F0070089B00D
:1010B000D0E9009248461746394603F042F8024606
:1010C000F80F01D02D2307E02068810701D52B23DD
:1010D00002E0202101EAC0038DF820300BB101208D
:1010E00000E00020032A824601D0072A04DB2946BB
:1010F000204600F06BF93DE12078800601D40D25F3
:1011000000E0E569C7F30A560D2D49DA00214FEAE0
:10111000175B08464FF00000002F00F4400007DA8C
:1011200000EB80004FF4400100EBD07001EA60005A
:101130008115012901DD4FF0FF3100224FEA850CB6
:10114000BCF1180F06D31346ACF118004FF08052D3
:10115000C24003E04FF4801323FA0CF30CF10C0CA3
:10116000BCF1200F04D3ACF1200C09FA0CF001E023
:1011700007FA0CF000294FF0004801DD18B90FE024
:101180000ED140450CD319EB02095F4121B940450E
:1011900002D19F4329EA0209BBEB175F00D0761CFE
:1011A0002088000502D57B48784402E079487844DD
:1011B000193808AA302302F80A30037C0AF1010129
:1011C000002E0AF1020A53546A4602DC4FF0300145
:1011D00001E04FF031014FF001088DF8001002D00E
:1011E000A6F2FF3603E059EA470100D06A4E002D0F
:1011F00002DC2178090704D54FF002082E218DF872
:101200000110C44600210BE0C7F303433F01C35C58
:10121000491C6D1E02F80830052908F1010801DAA1
:10122000002DF1DC00210CE000EB1973491C1B7848
:101230006D1E082902F808304FEA091908F1010863
:1012400001DA002DF0DC2178890602D514E0A8F13E
:101250000108E04505DD02EB080111F8011C302909
:10126000F5D0B8F1000F07DD02EB080111F8011C01
:101270002E2901D1A8F10108002D05DD3E2102F83B
:1012800008106D1E08F10108407C002E02F80800CD
:1012900008F1010804DA2D20764202F8080002E085
:1012A0002B2002F808000A214FF47A70864208F1D8
:1012B00001080BDB96FBF0F3303302F8083096FBA5
:1012C000F0F308F1010800FB136601E0642E0CDB6B
:1012D000642096FBF0F3303302F8083096FBF0F30D
:1012E00008F1010800FB136601E00A2E06DB96FBFD
:1012F000F1F0303002F8080008F1010896FBF1F037
:1013000001FB1060303002F80800A16908F1010803
:1013100008EB050202EB0A00081AA0612078C0065B
:1013200002D42046FFF7C2F9216A08AE01EB0A0099
:10133000206204E0D4E9012116F8010B9047BAF1CC
:10134000010AF7D22078C00602D52046FFF7AEF991
:101350006E4609E016F8010B3E280FD0D4E90121B2
:101360009047206A401C2062B8F10108F2D2204662
:10137000FFF7B2F909B00320BDE8F08F206A2844D6
:10138000206203E0D4E90121302090476D1EEBD3A9
:10139000F8E700002F4B000002FCFFFF01694A1C28
:1013A00002610878704700B58FB0CDE901310021A6
:1013B000059105497944CDE9031011466846FFF7C8
:1013C00029F80FB000BD0000E5FFFFFF2DE9F04157
:1013D0001F46044603260168072A01F4006004DB67
:1013E00008B116A505E016A503E008B115A500E0B3
:1013F00015A521F010002060A069C01EA0610FB1EA
:10140000401EA0612046FFF751F94FB1D4E90121F8
:1014100038469047206A401C2062C01C206206E0CB
:10142000206AFAE7D4E9012115F8010B9047761EEE
:10143000F8D22046FFF750F9BDE8F0814E414E004A
:101440006E616E00494E4600696E660010B54369D4
:1014500013B1AFF3008001E0FFF704FC012010BDE1
:10146000128800F1240182840022C2840122EDE767
:1014700011684FF0FF32E9E7426842B1016811F8A4
:10148000013B23B1521EC0E90012184670470121EA
:10149000C160881E704742685AB1C368016843B989
:1014A00083688B4205D0491E521CC0E900120020FF
:1014B00070474FF0FF3070472DE9F04781461646E0
:1014C0008AB0334878440DC88DE80D003048784420
:1014D000801C03AC0DC884E80D0041F69B30084425
:1014E000372190FBF1F290FBF1F5A5F1800501FBAE
:1014F00012041B3C02D56442012000E00020DFF80A
:1015000090A080460027FA44AAF1BE0A0DE0E00749
:1015100009D03246684607EB47010AEB810101F02A
:1015200036F88DE8070064107F1C002CEFD1184FAF
:101530007F44AC3F18E0E80714D007EB04100DF12E
:10154000180A90E80E008AE80E00C068F04201D147
:1015500098190890324606A903A801F018F803ABC1
:1015600083E807006D10641C002DE4D13246694603
:10157000B8F1000F03A802D000F0E1FF01E001F094
:1015800006F8C9E90001C9F808200AB0BDE8F087EB
:10159000A4480000007B00F08000704770B516463C
:1015A0000C46054600F044F8036893F80101012851
:1015B00006D0FF2C0FD8185D68B101202C7070BDCB
:1015C000D3F807013246214603F2071303442846A5
:1015D000BDE8704018474FF0FF3070BD00487047BD
:1015E000B40100207546FFF7F9FFAE4605006946D5
:1015F000534620F00700854618B020B5FEF778FE68
:10160000BDE820404FF000064FF000074FF0000803
:101610004FF0000B21F00701AC46ACE8C009ACE884
:10162000C009ACE8C009ACE8C0098D4670470000AD
:1016300010B5FFF7DFFC001D10BD00BF6D340000CA
:101640002DE9FF4F064689B00878FF2806D0491CCF
:101650002D2805D000244FF0000908E000200CE000
:101660000124F8E709EB8903491C00EB43090878DA
:10167000FF28F7D114B1C9F1000081461078002588
:101680002C46AA4629462D2801D02B2804D1521CCD
:101690002D2813D0002082468B461078FF280FD0CB
:1016A0004FF0000C0A21521CA5FB017804FB0181BC
:1016B00005FB0C11C5194BEB0104EEE70120EAE72D
:1016C000002108464FF00000BAF1000F02D000EBF5
:1016D00080004008C0F38158B8F1010F01DD4FF0E0
:1016E000FF380C9809EB000755EA040009D04FF0C9
:1016F000020917F5FA7F0BDA4FEACA70C6E900B0A3
:1017000012E04FEACA70C6E900B00DB0BDE8F08F34
:10171000B7F5FA7F0DDDF0487844D0E90010C6E94E
:10172000001040EACA707060FFF768FCC0F80090D3
:10173000EBE7391E02DAC8F1000200E0424600DAA7
:10174000794206A8FFF7B8FE06AB93E8070003ABA3
:1017500083E8070044F23E005BEA0401009058462B
:1017600004D144F21E012C465D460091210C09046F
:10177000014306D10099240444EA15442D0410398C
:10178000009104F07F41014306D10099240244EA0C
:1017900015642D020839009104F07041014306D10F
:1017A0000099240144EA15742D01091F009104F0E9
:1017B0004041014306D10099A40044EA9574AD006C
:1017C000891E009104F00041084304D100986D196E
:1017D0006441401E009042466846002FCDE9014515
:1017E00003A902DD00F0E7FE01E000F0BCFEBAF163
:1017F000000F04460D4601D084F0004440F2FF770C
:1018000024F00040284303D0C4F30A50B84212D158
:10181000FFF7F4FBC0F80090C4F30A50B8420AD1B5
:10182000AE487844D0E90010C6E9001004F0004149
:101830000843706069E7C6E9005466E72DE9FF4F89
:101840001F464FF0000A4FF0FF38454691B0D7E9E8
:101850000146CDF83CA0FFF7CDFBC0680168405CB5
:101860001090B96912986D1C8847396A814688477B
:101870000028F6D1B9F1FF3F0AD0002E24F4D0643D
:1018800011DDB9F12B0F08D0B9F12D0F0BD102E00A
:10189000404615B03AE744F48064B96912986D1C6B
:1018A0008847761E8146600504A901D52D2000E0F9
:1018B0002B20002E01F1010B0DF130088DF81000E6
:1018C0003FDDB9F1690F08D0B9F1490F05D0B9F181
:1018D0006E0F02D0B9F14E0F1CD13B4601A8009506
:1018E00080E85002DDE912126FF0020003F0B4FE4E
:1018F000C11CCED10EE0B96912986D1C8847814693
:101900001398761E44F4007405600F98401C002E56
:101910000F9016DDB9F1300FEDD0B9F1780F02D08C
:10192000B9F1580F0DD10F9801280AD13B46CDE9E6
:101930000054DDE91212001F029603F08BFEC11C59
:10194000A7D1109989453ED144F0800406E013994F
:10195000681CAAF1010A44F400740860B9696D1C9E
:101960001298761E884730288146F0D02BE01099D7
:10197000894505D1200603D4761E44F0800418E082
:10198000484602F003FD08B3761E0DF123018B4596
:1019900044F4007408D2A9F130000BF8010B2006C2
:1019A00007D5AAF1010003E0200602D40AF10100E4
:1019B0008246A00502D51399681C0860B96912987F
:1019C0006D1C88478146002ED1DC53E0002E51DD8E
:1019D000B9F1650F02D0B9F1450F4BD1A00549D53A
:1019E000B9696D1C1298761E24F440748847002E45
:1019F00081460CDD2B2804D0B9F12D0F07D144F41A
:101A00008074B96912986D1C8847761E8146E0057E
:101A100001D52D2100E02B2108F8011BCDF8008015
:101A200021E0761E0DF13901884544F400740CD292
:101A3000A9F1300010F0FF0088F8000002D10099F1
:101A4000884509D908F1010806E0E00501D52448D8
:101A500001E042F20F708246B96912986D1C884706
:101A6000814613980560002E04DD484602F08EFC86
:101A70000028D6D1F96912988847FF2053468BF881
:101A8000000088F8000000200A900B9004AA0CA91E
:101A90000AA8FFF7D5FDA00502D46FF00100F8E613
:101AA00014F0240F0AD0E00714D13868DDE90A12D7
:101AB000031D3B600068C0E900120BE00AA96846FC
:101AC00002F0FEFBE00705D13868009A011D39607D
:101AD000006802602846DCE6884600007E4500007B
:101AE000F1D8FFFF10B50446AFF300802046BDE8F3
:101AF0001040FEF7E8BB00004FF0013C50F8042B0B
:101B000051F8043B9A4221D1A2EB0C03934313EA10
:101B1000CC1317D150F8042B51F8043B9A4215D13D
:101B2000A2EB0C03934313EACC130BD150F8042B14
:101B300051F8043B9A4209D1A2EB0C03934313EAF8
:101B4000CC13DBD04FF00000704700BFD01A01BAB1
:101B5000B1FA81F101F0180122FA01F0CB40C1F194
:101B60002001DBB2C0B2C01A2CFA01F3D11A9143A2
:101B700011EAC311E6D170472DE9FF4F1F464FF020
:101B80003C0987B04FF00042DDE9141001F1010873
:101B9000DDF858A002EA40500390002004908346EC
:101BA000054604460590B969461E08988847AAF17B
:101BB000010A0290BAF1000F37DD02982E2815D0E5
:101BC000102100F012FA00282ADB4FF0010B0499D3
:101BD000014316D0B9F1000F0BDB4A46C11700F0E4
:101BE000F1F905430C43A9F1040905E00120059032
:101BF00007E008B145F0010501200490059800B9FF
:101C0000361DB969089808F101088847BBF1000F33
:101C1000AAF1010A0290CDD00999C1F80080C9E764
:101C20000298702808D0502806D0F969089888478B
:101C3000BBF1000F14D04FE0002002900120BBF157
:101C4000000F049009D0B969089808F10108884785
:101C5000AAF10109B9F1000F07DCF9690898884772
:101C60006FF001000BB0BDE8F08F2B2804D02D28B9
:101C70000CD14FF0FF300490B969089808F10108C1
:101C80008847A9F10109B9F1000FE6DD411CE4D054
:101C90000A2100F0AAF90028DFDB029908F1010807
:101CA00001EB810100EB41000290B9690898884777
:101CB0000A2100F09AF9099AA9F10109B9F1000F76
:101CC000C2F8008001DD0028E7DAF9690898884742
:101CD0000499029800FB016655EA040004D004F060
:101CE0004041090002D006E0039898E0A40044EACD
:101CF0009574AD00B61E04F00041080002D16D19C4
:101D00006441761E159810F0240F03D04FF00B0994
:101D10005C4803E04FF028096FF07D00824656458D
:101D200007DAAAEB06018944B9F1410F01DD4FF052
:101D3000410901200021A9F1010200F043F9024606
:101D400028400B462140084301D0012100E000213A
:101D5000501E029143F1FF3128402140084301D039
:101D6000012000E000200299834651EA0B014FD088
:101D7000002108464FF00000039900F4400039B1FB
:101D800000EB80004FF4400100EBD07001EA6000EE
:101D90008015012802DD4FF0FF3000E013D0401C19
:101DA00036D0029860B3BBF1000F0CD14A46012037
:101DB000002100F007F928402140084301D001200C
:101DC00000E00020E0B101204A46002100F0FAF8CE
:101DD000034640190A4661412D1A8C4111D3B9F1CD
:101DE000400F09DD159810F0240F02D0AAF1340637
:101DF00003E0AAF1170600E0761C00254FF000442E
:101E000006E05B1E42F1FF3220EA030521EA0204EC
:101E1000CAF10100B04206DA1B4903980843019059
:101E2000002000900EE0039AC4F3D321E80A0A438D
:101E3000164940EA44500A433146CDE9000268465B
:101E400002F09AFA159810F0240F0BD01598C007DD
:101E500015D13868DDE90012031D3B600068C0E958
:101E600000120CE002A8694602F02AFA1598C00791
:101E700005D13868029A011D396000680260404649
:101E8000F0E6000002FCFFFF0000F07F0000F03FE2
:101E90002DE9FF4F92461D4685B04FF00041DDE928
:101EA000124BDDE914727F1E01EA4B50414940F0AC
:101EB000FF4940EA0108002122F02000492804914E
:101EC00002D04E2828D04CE03BA0012607C88DE860
:101ED0000700A9690698641C88477F1E014606D43E
:101EE0001DF8060018B121F0200181420BD0E969EC
:101EF00006988847032E34D0082E32D06FF00100A8
:101F000009B0BDE8F08F761C032E01D0082EE0D179
:101F1000601CCAF80000DCE7A9690698641C8847C1
:101F20007F1E2AD420F02000412826D1A9690698D6
:101F3000641C88477F1E20D420F020004E281CD12E
:101F4000A9690698641C88477F1E48F4002849F454
:101F50008009CAF8004001D4282806D0E96906980B
:101F600088475FEACB7012D022E0A9690698641C0A
:101F700088477F1E01D4002803DAE969069888475C
:101F8000BCE72928F1D1641CCAF80040E9E71BF03E
:101F9000240F07D028680499031D2B600068C0E94E
:101FA000001805E02868021D2A600068C0F800904B
:101FB0002046A5E70000F07F494E46494E49545956
:101FC00000000000B2F120030AD5C2F1200301FA9B
:101FD00002F120FA03F300FA02F041EA030170472C
:101FE00000FA03F14FF0000070473A2800D2303871
:101FF00020F02002412A01D3A2F13700884201D308
:102000004FF0FF3070475FEA400C08BF91F0000FBF
:102010004FEA8C234FEAC12243EA51514FEA1C5048
:1020200018BF00F5F0404FEA300018BF41F0004102
:102030005FEA6C5C00F02980BCF1FF3F08BF40F014
:1020400080407047130C06BF12044FF0100C4FF085
:10205000000C130E04BF12020CF1080C130F04BF86
:1020600012010CF1040C930F04BF92000CF1020C4E
:10207000D30F04BF52000CF1010C11464FF00002C7
:10208000A0F11F00A0EB0C00704711F0004F08BF3B
:10209000704731F000413FF4D5AF0B0C06BF090487
:1020A0004FF0100C4FF0000C0B0E04BF09020CF1A6
:1020B000080C0B0F04BF09010CF1040C8B0F04BFBB
:1020C00089000CF1020CCB0F04BF49000CF1010C8C
:1020D000CCF12003A0EB0C0022FA03F302FA0CF27D
:1020E00041EA030100F10100704720F07F4C80EAD3
:1020F000030023F07F47ACEB070303F57C5300F0AC
:10210000004003F1FF032DE980494FEA154B09B464
:102110004FEA144325EA0B4E24EA03480FF2042643
:1021200006EB132749083E785FEA320203FB066795
:10213000C7F5000707FB06F64FEA54374FEAD646C5
:1021400006F1020607FB066CCCF1005C4FEA1C4767
:102150002CEA074C07FB06F40CFB06F504EB1546CE
:102160004FEA961634BF00204FF000404FEAD137B7
:1021700006FB07FC4FEA1C4C0CFB0BF7D21B03FBC6
:102180000CF761EB07010CFB0EF7B0EB074072EBAD
:1021900017420CFB08F734BFA2EB0742B2EB074231
:1021A00061EB17414FEA0C444FEA910706FB07FC2D
:1021B0004FEA1C4C0CFB0BF7B0EBC74072EB5732ED
:1021C00003FB0CF734BFA2EBC742B2EBC74261EB93
:1021D00057310CFB0EF7B0EBC70072EB57720CFBDC
:1021E00008F734BFA2EBC702B2EBC70261EB57712D
:1021F000039F4FEA816141EA921104EBCC044FEA5C
:10220000D1374FEA826206FB07FC42EA90124FEA9E
:1022100080604FEA1C4C0CFB0BF7D21B03FB0CF746
:1022200061EB07010CFB0EF7B0EB074072EB1742B6
:102230000CFB08F734BFA2EB0742B2EB074261EB9D
:1022400017414FEA8C554FEA910704EB9C2406FB9B
:1022500007FC4FEA1C4C0CFB0BF7B0EBC74072EBD2
:10226000573203FB0CF734BFA2EBC742B2EBC742B5
:1022700061EB57310CFB0EF7B0EBC70072EB5772F6
:102280000CFB08F734BFA2EBC702B2EBC70261EB4D
:10229000577115EB4C254FEA816141EA92114FEAE3
:1022A00082624FEAD13742EA901206FB07FC44F102
:1022B00000044FEA80604FEA1C4C0CFB0BF7D21B6A
:1022C00003FB0CF761EB07010CFB0EF7B0EB0740CB
:1022D00072EB17420CFB08F734BFA2EB0742B2EBDC
:1022E000074261EB174115EB1C154FEA813141EABA
:1022F00092414FEA823242EA90424FEA80304FEAFE
:102300000C7644F1000448EA03434EEA0B484FF0D0
:10231000000EB2EB080C71EB030724BF624639468E
:102320004EEB0E0E4FF0000B0018524149414BEBA3
:102330000B0BB2EB080C71EB03077BF1000B24BF16
:10234000624639464EEB0E0E4FF0000B001852411C
:1023500049414BEB0B0BB2EB080C71EB03077BF124
:10236000000B24BF624639464EEB0E0E51EA0207BF
:1023700018BF46F0010616EB0E7655F1000254F137
:10238000000103D5BDE88901BDE80088BDE88901E9
:10239000BDE80048B619524141EB0101A3F1010328
:1023A000704780807F7E7D7C7B7A797877767675C2
:1023B0007473727171706F6E6E6D6C6C6B6A6A693A
:1023C0006868676666656464636362616160605FD4
:1023D0005F5E5E5D5D5C5C5B5B5A5A59595858574D
:1023E00057565655555554545353525252515150B5
:1023F00050504F4F4F4E4E4D4D4D4C4C4C4B4B4B08
:102400004A4A4A494949484848474747474646464D
:102410004545454444444443434343424242424188
:102420004141000046EA0646A3F570534FEA1646BE
:1024300046EA42564FEAD22242EA415210B54FEAEA
:10244000D121A3F1010300F017F820F0004000F1C2
:10245000010C00F0004701EB00501146BCF5006F85
:1024600040EA070000D210BD02484FF0000140EAE8
:10247000070010BD0000F07F002B26D4770021D08C
:102480001CB54FEA370703B44FF010004FF01001AE
:102490004FF000000FBCBDE810400BF1010BBBF189
:1024A000010F08BF5FEA170722BF12F1010211F105
:1024B00001014FF0004143F1000300F0004043EA06
:1024C00000007047F9D35708DAE746EA064613F1E9
:1024D000400F4FEA16461FDD13F1200FDFBF1643F2
:1024E0000A46002120335B42C8D0C3F1200746EAE8
:1024F000064602FA07F74FEA164646EA0706C3F110
:10250000200722FA03F201FA07F721FA03F14FF04C
:10251000000342EA0702B1E746EA020646EA064637
:102520004FEA164646EA0106BCBF46EA0646360CA6
:102530004FF000034FF000024FF000019EE72DE93D
:10254000C048934630B491E8380007C831EA400CDF
:1025500048BF34EA430C03D5FFF7C7FDFFF78CFFF4
:10256000F0BCBDE800882DE9C048934630B491E83E
:10257000380007C831EA400C48BF34EA430C03D5A1
:10258000FFF7B3FDFFF74EFFF0BCBDE800882DE973
:10259000C048934630B491E8380007C810F0804F27
:1025A00008BF13F0804F03D100F019F8FFF764FF64
:1025B000F0BCBDE800882DE9C048934630B491E8EE
:1025C000380007C810F0804F08BF13F0804F03D1C8
:1025D00000F005F8FFF726FFF0BCBDE8008820F00A
:1025E0007F4780EA030023F07F4C07EB0C03A3F541
:1025F0007C5300F00040A3F1FE0392F0000F00F0C6
:10260000B38095F0000F00F077802DE901494FEA83
:1026100011404FEA144621EA004800FB06FC24EA78
:10262000064708FB06F607FB08F800FB07F718EB60
:1026300006484CEB164C4FEA124B18EB07484FEA92
:1026400015464CEB174022EA0B4E0BFB06FC25EA25
:1026500006470EFB06F607FB0EFE0BFB07F71EEB0D
:10266000064E4CEB164C4FF000061EEB074E4CEBA3
:10267000174B18EB0B0840F1000018EB0E0B58EB52
:10268000000840F100008F1A4FF000013CBFC94321
:10269000661B14BFB5EB040C00213CBFC943F61BFD
:1026A0004FEA17444EEA8E0E27EA04454FEA1C47CC
:1026B00004FB07622CEA074C05FB07F70CFB05F649
:1026C00004FB0CFC16EB074642EB174216EB0C46DC
:1026D00042EB1C421BEB060658EB0202414146EA64
:1026E0009E0601D5BDE80189B619524141EB0101B1
:1026F000A3F10103BDE801894FEA14454FEA1147F0
:1027000024EA054621EA074C05FB07F406FB07F718
:102710000CFB06F105FB0CFC11EB074144EB1744E5
:102720004FEA124711EB0C4144EB1C4422EA074CE0
:1027300005FB07F206FB07F70CFB06F605FB0CFC96
:1027400016EB074642EB174216EB0C4642EB1C45D4
:102750006A1854F1000148BF7047B619524141EB65
:102760000101A3F10103704795F0000F37D04FEA44
:1027700011424FEA144721EA024624EA074C02FBC1
:1027800007F106FB07F70CFB06F402FB0CFC14EB4D
:10279000074441EB17414FEA154714EB0C4441EB5A
:1027A0001C4125EA074C02FB07F506FB07F70CFB6B
:1027B00006F602FB0CFC16EB074645EB174516EB3D
:1027C0000C4645EB1C42121951F1000148BF7047FD
:1027D000B619524141EB0101A3F1010370474FEAE1
:1027E00014454FEA114724EA054621EA074C05FB48
:1027F00007F106FB07F70CFB06F24FF0000605FB9E
:102800000CFC12EB074241EB174112EB0C4251EB6F
:102810001C4148BF7047921841EB0101A3F101032D
:102820007047000010B5044644B900210E4801F07D
:10283000A2F800210C4801F0A0F814E0012C08D106
:102840000021094801F099F85021074801F093F858
:1028500009E0022C07D10021034801F08CF8502137
:10286000014801F08AF810BD0008004010B5044688
:1028700044B900210E4801F082F800210C4801F013
:1028800080F814E0012C08D10021094801F079F802
:102890005021074801F073F809E0022C07D100210C
:1028A000034801F06CF85021014801F06AF810BDAE
:1028B0000008004000BFFEE770B52DED0E8B04460A
:1028C000204601F059FCB0EE408AF0EE608A9FEDA0
:1028D000220B53EC102B51EC180B02F0E9F941ECF0
:1028E0001B0B02F079FB0546284602F0D2FB41ECB7
:1028F0001D0B9FED190B53EC102B51EC180B02F034
:10290000D7F941EC1E0B53EC1D2B02F049FD41ECB5
:102910001C0B9FED110B53EC102B02F00DFC41EC46
:102920001B0B9FED0F0B53EC102B02F0C1F941EC88
:10293000190B284602F0ADFB41EC1B0B53EC192B95
:1029400002F0FAF841EC1A0BB0EE4A0AF0EE6A0A0D
:10295000BDEC0E8B70BD000000000000000059406F
:102960000000000000004E407047F0B50A4600210C
:102970000023002400BF3DE0012505FA01F315689E
:1029800005EA03049C4234D105684F000326BE408B
:10299000B543056015794E00B540066835430560BE
:1029A0001579012D02D01579022D16D185684F00B9
:1029B0000326BE40B543856055794E00B540866814
:1029C00035438560456801268E40B54345604568BE
:1029D00096798E40B6B235434560C5684F000326F0
:1029E000BE40B543C560D5794E00B540C668354395
:1029F000C560491C1029BFD3F0BDF0B500230024E9
:102A00004D07ED0E02FA05F3CE1000F1200555F842
:102A100026504E07F70E0F26BE40B543CF1000F1EB
:102A2000200646F82750CE1000F1200555F8265014
:102A300045EA0304CE1000F1200545F82640F0BD1C
:102A400041837047018370470AB1018300E04183ED
:102A50007047000010B50821014800F029F810BDAA
:102A60001300002000BFFEE710B5042001F0F8FCC1
:102A700010BD00001CB50121022000F011FB042054
:102A8000009001208DF8040000208DF8060003203E
:102A90008DF8050001208DF8070069460348FFF70F
:102AA00064FF04210148FFF7CBFF1CBD0004024076
:102AB00070B505460E46002404E0285D00F006F8D7
:102AC000601C84B2B442F8DB70BD000010B504464F
:102AD0002146054801F02FFB00BF8021024801F08C
:102AE0005EFA0028F9D010BD0050004000BFFEE79C
:102AF00010B500F09FFC00F033FD10BD70B504462A
:102B00000D46002C08DD00211D4800F036FF21464F
:102B10001B4800F030FF13E0002C08DA00211848B1
:102B200000F029FF6142164800F027FF08E03CB999
:102B30000021134800F01FFF0021114800F01DFF85
:102B4000002D08DD00210E4800F01BFF29460C482F
:102B500000F015FF13E0002D08DA0021084800F00E
:102B60000EFF6942064800F00CFF08E03DB9002165
:102B7000034800F004FF0021014800F002FF70BD8F
:102B8000000400407047000070B5002100230F22B0
:102B9000C4781CB3174C246804F4E064C4F5E06402
:102BA000C4F30721C1F10404E3B20A4144789C4014
:102BB000E1B28478144021430C07210E0E4C0578B5
:102BC0006155047804F01F050124AC4005786D11AF
:102BD000AD0005F1E025C5F8004109E0047804F0F6
:102BE0001F050124AC40054D0678761145F82640B6
:102BF00070BD00000CED00E000E400E080E100E0CA
:102C000070B500240EE00021204600F0F1F8002508
:102C100004E0002000F07EF9681CC5B2802DF8DBCE
:102C2000601CC4B2082CEEDB70BD00001CB5012195
:102C3000042000F035FAC020009001208DF8040037
:102C400000208DF8060003208DF8050001208DF886
:102C5000070069460648FFF788FE01224021044824
:102C6000FFF7F2FE012280210148FFF7EDFE1CBDB7
:102C70000008024070B50546002419E0802020417C
:102C800000EA050280211348FFF7DEFEFFF7ECFEA5
:102C9000012240210F48FFF7D7FEFFF7E5FE002293
:102CA00040210C48FFF7D0FEFFF7DEFE601CC4B2E7
:102CB000082CE3DB012240210648FFF7C5FEFFF7A1
:102CC000D3FE002240210348FFF7BEFEFFF7CCFEF3
:102CD00070BD00000008024010B5012280210C48A0
:102CE000FFF7B2FE012240210948FFF7ADFEFFF7D2
:102CF000BBFE002280210648FFF7A6FEFFF7B4FEC8
:102D0000002240210248FFF79FFEFFF7ADFE10BDF5
:102D10000008024010B5002280210848FFF794FE09
:102D2000012240210548FFF78FFEFFF79DFE01229B
:102D300080210248FFF788FE10BD00000008024015
:102D400010B5C82001F070FBFFF770FFAE2000F057
:102D5000D1F8D52000F0CEF8802000F0CBF8A820E4
:102D600000F0C8F83F2000F0C5F8D32000F0C2F80A
:102D7000002000F0BFF8402000F0BCF8A12000F0D7
:102D8000B9F8C82000F0B6F8DA2000F0B3F8122045
:102D900000F0B0F8812000F0ADF8CF2000F0AAF8E4
:102DA000D92000F0A7F8F12000F0A4F8DB2000F013
:102DB000A1F8302000F09EF8A42000F09BF8A62097
:102DC00000F098F88D2000F095F8142000F092F8AB
:102DD000AF2000F08FF8FFF713FF10BD10B50246CB
:102DE000012000E050430B1EA1F10101FAD110BDFA
:102DF00070B505460C4645F0B00000F07BF8102198
:102E000041EA141000F076F804F00F0000F072F8B8
:102E100070BD00002DE9F04105460E461746721EB2
:102E2000D206110E6A1E5206100EFFF7E1FF0024B3
:102E300009E0A7F12001134A02EB0111085D00F03F
:102E400069F8601CC4B2082CF3DB721ED206110EA6
:102E50006A1E012303EB4202D0B2FFF7C9FF002430
:102E60000BE0A7F12001074A02EB011204F108016F
:102E7000505C00F04FF8601CC4B2082CF1DBBDE8D8
:102E8000F08100008C5600082DE9F04780460E4680
:102E900017461D46002415E0281B411E0A20FFF797
:102EA0009DFFB7FBF0F00A21B0FBF1F201FB12002D
:102EB00000F130093019C1B24A464046FFF7AAFF77
:102EC000601CC4B2AC42E7DBBDE8F0872DE9F041FD
:102ED00007460E461546002407E02A5D3019C1B2A8
:102EE0003846FFF797FF601CC4B2285D0028F4D174
:102EF000BDE8F08110B50446FFF7EEFE7820FFF73D
:102F0000B9FE0020FFF7B6FE2046FFF7B3FEFFF73D
:102F100001FF10BD10B50446FFF7DEFE7820FFF775
:102F2000A9FE4020FFF7A6FE2046FFF7A3FEFFF70D
:102F3000F1FE10BD1CB50121084600F0B1F80420D7
:102F4000009000208DF8040003208DF8050001207A
:102F50008DF8070069461D48FFF707FD082000901F
:102F600001208DF8040000208DF8060003208DF864
:102F7000050001208DF8070069461448FFF7F5FCAD
:102F80001020009001208DF8040000208DF806002C
:102F900003208DF8050001208DF8070069460B48D5
:102FA000FFF7E3FC2020009001208DF804000020B2
:102FB0008DF8060003208DF8050001208DF807002C
:102FC00069460248FFF7D1FC1CBD0000000002402A
:102FD00070B5054601241EE000201349086004EA8C
:102FE000050020B1012010490839086003E00020E5
:102FF0000D4908390860102001F032FA01200A4911
:1030000008600A48D0F8080200B12643102001F0F9
:1030100027FA6006040E002CDEDC01200249083984
:103020000860304670BD00009402404200004042FB
:1030300070B5044600201649086000250AE01549CD
:10304000485DFFF7C5FF14494855102001F008FA04
:10305000681CC5B2092DF2DB01200D4908600E483D
:10306000407820700C48C078C04360700A480079EE
:10307000C043A07008484079E0700748807920710B
:103080000548C07960710448007AA07170BD0000E5
:10309000900240427C5C00086800002070470000FD
:1030A00029B1064A12680243044B1A6004E0034A3D
:1030B00012688243014B1A607047000030380240AA
:1030C00029B1064A12680243044B1A6004E0034A1D
:1030D00012688243014B1A6070470000403802407A
:1030E00029B1064A12680243044B1A6004E0034AFD
:1030F00012688243014B1A60704700004438024056
:10310000F0B5002100220024022500260223324FC0
:103110003F6807F00C0121B1042905D0082937D1F7
:1031200005E02E4F076036E02D4F076033E02A4F51
:103130003F1F3F68C7F38056274F3F1F3F6807F088
:103140003F036EB1264FB7FBF3F7DFF88CC0ACF14D
:10315000040CDCF800C0CCF3881C07FB0CF40CE07A
:103160001E4FB7FBF3F7DFF870C0ACF1040CDCF8CE
:1031700000C0CCF3881C07FB0CF4174F3F1F3F68BF
:10318000C7F301477F1C7D00B4FBF5F7076002E041
:10319000124F076000BF00BF0F4F3F6807F0F001FC
:1031A0000909104F7A5C0768D74047600A4F3F68AB
:1031B00007F4E051890A0B4F7A5C4768D740876073
:1031C000054F3F6807F46041490B064F7A5C47683A
:1031D000D740C760F0BD0000083802400024F4006A
:1031E00000127A00580000201CB501210220FFF7D0
:1031F00057FF4FF47050009001208DF8040000201C
:103200008DF8060003208DF8050001208DF80700D9
:1032100069460C48FFF7A9FB4FF480610948FFF7A6
:1032200011FC4FF400610748FFF70CFC4FF480518C
:103230000448FFF707FC4FF400510248FFF702FC77
:103240001CBD000000040240704700000CB50020C7
:10325000019000903448006840F4803032490860A2
:1032600000BF3148006800F4003000900198401C15
:103270000190009818B90198B0F5A04FF1D12A48F3
:10328000006800F4003010B10120009001E000203F
:1032900000900098012846D123484030006840F053
:1032A00080502149403108602048006840F4404087
:1032B0001E4908601C48083000681B490831086036
:1032C0000846006840F4004008600846006840F482
:1032D000A05008601648091F0860081F006840F0E9
:1032E0008070091F086000BF0F48006800F0007080
:1032F0000028F9D040F205700E4908600A480830ED
:10330000006820F00300084908310860084600689A
:1033100040F00200086000BF03480830006800F079
:103320000C000828F8D10CBD0038024000700040A5
:1033300008544007003C0240042808D14FF0E02127
:10334000096941F004014FF0E022116107E04FF0FC
:10335000E021096921F004014FF0E022116170477A
:103360007047000010B5A82001F040F84FF4165047
:1033700001F02EFB4FF4E13001F068FA4FF41650E3
:1033800001F0BCFA40F2E73142F2CF0000F0B0FCAD
:10339000FFF770FBFFF7D4FCFFF7CCFDFFF7A8FBAE
:1033A000FFF722FF00210846FFF7A8FB00F0F8FF17
:1033B00005E0FFF74FFB4FF4FA7001F035F80248D3
:1033C00000680028F5D010BD0800002010B5154891
:1033D000006840F47000134908601348006840F02A
:1033E00001001149086000200F49083108600E48AB
:1033F00000680E4908400C4908600D48091D086026
:10340000081F006820F48020091F0860002006497A
:103410000C310860FFF71AFF4FF000600149803956
:10342000086010BD88ED00E000380240FFFFF6FEA6
:103430001030002400B58BB001210220FFF740FEC0
:1034400001210846FFF72CFE01210220FFF728FE8C
:1034500002208DF82800C020099003208DF8290053
:1034600000208DF82A0001208DF82B0009A9394889
:10347000FFF77BFA02208DF82800032009908DF8D1
:10348000290000208DF82A0001208DF82B0009A9C1
:103490003148FFF76AFA022206212E48FFF7ADFAFB
:1034A000022207212B48FFF7A8FA022200212A480E
:1034B000FFF7A3FA022201212748FFF79EFA6320B3
:1034C00007902920ADF818000020ADF82000ADF8D5
:1034D0001A0006A9214800F057FA6020ADF8040050
:1034E0000120ADF8060000200390ADF81000ADF803
:1034F000140001A9194800F0F3F801A9174800F0D9
:1035000037F901A9154800F093F901A9134800F013
:10351000E9F90821114800F021F908210F4800F0CD
:1035200079F908210D4800F0D3F908210B4800F083
:1035300015FA0121094800F0ACF8002007493431A0
:103540000860091D0860091D0860091D08600BB0AE
:1035500000BD0000000002400004024000040040E2
:1035600000B58BB001210420FFF7AAFD0121022044
:10357000FFF796FD02208DF828004FF47070099037
:1035800003208DF8290000208DF82A0001208DF8F5
:103590002B0009A93048FFF7E8F9022206212E483E
:1035A000FFF72BFA022207212B48FFF726FA022207
:1035B00008212948FFF721FA022209212648FFF7AE
:1035C0001CFA632007902920ADF818000020ADF800
:1035D0002000ADF81A0006A9204800F0D5F96020B7
:1035E000ADF804000120ADF8060000200390ADF80E
:1035F0001000ADF8140001A9184800F071F801A9F5
:10360000164800F0B5F801A9144800F011F901A915
:10361000124800F067F90821104800F09FF80821CF
:103620000E4800F0F7F808210C4800F051F9082185
:103630000A4800F093F90121084800F02AF8002018
:10364000064934310860091D0860091D0860091D1C
:1036500008600BB000BD00000004024000080040FC
:1036600010B50121074800F020F8012804D10648D0
:103670000078401C044908700121024800F006F857
:1036800010BD0000000C004057000020CA43028219
:10369000704721B1028842F00102028004E00288F2
:1036A0004FF6FE731A400280704730B50246002084
:1036B00000230024158A05EA0103958905EA01041F
:1036C00013B10CB1012000E0002030BD1AB1838994
:1036D0000B43838102E083898B4383817047000021
:1036E00070B5002400220023058C4FF6FE7635408D
:1036F0000584028C8388048B4FF68F752C40B51E91
:103700002C400D882C43751E2A408D892A434D88F4
:103710002A43104DA84202D00F4DA84213D14FF6B4
:10372000F7752A40CD892A434FF6FB752A408D88CC
:103730002A434FF6FF652B404FF6FF552B400D8A6D
:103740002B434D8A2B43838004838D684563028419
:1037500070BD000000000140000401400A46002145
:10376000018B4FF6F7731940114301837047000036
:1037700070B5002400220023058C4FF6EF7635400B
:103780000584028C8388048B48F6FF752C404FF625
:10379000FF452C400D884FF6FF7606EA05252C43A1
:1037A0004FF6DF752A408D8906EA05152A434D88B4
:1037B00006EA05152A43154DA84202D0144DA84229
:1037C0001DD14FF67F752A40CD894FF6FF7606EA68
:1037D00005152A434FF6BF752A408D8806EA051560
:1037E0002A434FF6FF352B404FF2FF752B400D8AD1
:1037F00006EA85052B434D8A06EA85052B4383801F
:1038000004838D688563028470BD00000000014060
:10381000000401400A460021018B4FF2FF7319405A
:103820004FF6FF7303EA0223194301837047000038
:1038300070B5002400220023058C4FF6FF6635404A
:103840000584028C8388848B4FF68F752C404FF64D
:10385000FC752C400D882C434FF6FF552A408D896E
:103860004FF6FF7606EA05252A434D8806EA052528
:103870002A43154DA84202D0144DA8421DD14FF243
:10388000FF752A40CD894FF6FF7606EA05252A43C3
:103890004FF6FF352A408D8806EA05252A434EF665
:1038A000FF752B404DF6FF752B400D8A06EA051576
:1038B0002B434D8A06EA05152B43838084838D684C
:1038C000C563028470BD0000000001400004014097
:1038D0000A460021818B4FF6F7731940114381830B
:1038E0007047000070B5002200230024058C4EF6BE
:1038F000FF7635400584038C8488828B48F6FF75FB
:103900002A404FF6FF452A400D884FF6FF7606EA1B
:1039100005252A434DF6FF752B408D8906EA0535AE
:103920002B434D8806EA05352B430A4DA84202D0A9
:10393000094DA84208D14BF6FF752C400D8A4FF671
:10394000FF7606EA85152C43848082838D680564A2
:10395000038470BD00000140000401400A460021BC
:10396000818B4FF2FF7319404FF6FF7303EA022376
:103970001943818370474163704781637047C16316
:10398000704701647047000000220288184B98427B
:103990000ED0184B98420BD0B0F1804F08D0164B88
:1039A000984205D0154B984202D0154B984204D14D
:1039B0004FF68F731A404B881A43124B984207D028
:1039C000114B984204D04FF6FF431A400B891A431B
:1039D00002804B68C3620B880385054B984202D076
:1039E000044B984201D18B7A03860123838270476E
:1039F00000000140000401400004004000080040B5
:103A0000000C0040001000400014004010B50748B2
:103A10000078FEF707FF06480078FEF727FF054805
:103A2000016805480068FFF769F810BD55000020DF
:103A300056000020500000204C00002010B52DED55
:103A4000028B04234148012102680846FFF71CFA53
:103A500001233F48027808211846FFF715FA3D4830
:103A60000078012864D13C4890ED000B51EC100B1C
:103A700001F0E2FA04460323224601211846FFF72B
:103A800003FA2E2204210320FFF7C4F94E220B2152
:103A90000320FFF7BFF99FED310B53EC102B2E489D
:103AA00090ED000B51EC100B01F046FB41EC180BB4
:103AB00001F0C2FA2B49B0FBF1F201FB120406231C
:103AC000224605210320FFF7DFF9274890ED000B80
:103AD00051EC100B01F0B0FA0446032322460121F9
:103AE0000420FFF7D1F92E2204210846FFF792F9AE
:103AF00045220B210420FFF78DF99FED180B53ECA5
:103B0000102B194890ED000B51EC100B01F014FB39
:103B100041EC180B01F090FA1249B0FBF1F201FBF5
:103B200012040623224605210420FFF7ADF909E01F
:103B30000EA201210320FFF7C9F90CA201210420E4
:103B4000FFF7C4F9BDEC028B10BD00000800002097
:103B50005700002020000020280000200000000066
:103B600080842E4140420F00300000204E6F7420B0
:103B70004750535F5349470010B54248FFF758FA82
:103B80004048007873287BD13E4880797F2806D151
:103B90003C484079802802D100203B490860002041
:103BA0003A4908603748807910B1FF280FD106E004
:103BB00037480078354908603349086008E03448E0
:103BC00000784042314908602F49086000E000BF9A
:103BD00000BF2C48407910B1FF2814D109E02C48CF
:103BE0000078404228490860294800782749086041
:103BF0000AE02748007824490860254800784042B8
:103C00002249086000E000BF00BF1E4880780928F4
:103C10001CD2DFE800F01511091B0D1B1B1B050052
:103C200001201C49087012E002201A4908700EE0B9
:103C30000120194908700AE002201749087006E0BF
:103C40000020144908701449087000E000BF00BF4C
:103C50000C484078102802D040280FD107E00020FF
:103C60000E4908600E49C1F8AC0208E008E00120E6
:103C70000A4908600A49C1F8AC0200E000BF00BF71
:103C800010BD0000420000204C0000205000002029
:103C9000540000205600002055000020A882404219
:103CA0000080404210B50D480078052815DB002043
:103CB0000A490870FEF7CEFE094800681E2806D89B
:103CC0000020084908600849C1F8AC0205E001205D
:103CD000044908600449C1F8AC0210BD5700002037
:103CE00008000020A8824042008040427047000047
:103CF0007FB505460C4601210820FFF7E1F9029542
:103D0000ADF804400020ADF80600ADF80C0001A9A4
:103D10000D48FFF739FE012211460B48FFF7D6FC8C
:103D200001210948FFF7B5FC32208DF80000012081
:103D30008DF8010003208DF8020001208DF80300AA
:103D40006846FEF721FF7FBD000C004010B540F231
:103D500025514A4800F030F900287DD0474800F04E
:103D6000E5F9C1B2464802780078401C444B18700F
:103D700044488154007801280BD00020194608706F
:103D80004049887148710871C8708870487008701F
:103D900054E03B48007802280FD13A484078032885
:103DA0000BD0002036490870364988714871087177
:103DB000C87088704870087040E031480078032867
:103DC0000FD13048807802280BD000202C49087091
:103DD0002C49887148710871C870887048700870E3
:103DE0002CE027480078072828D126484079D0B110
:103DF00024484079012816D022484079022812D060
:103E00002048407903280ED01E48807958B11D48BB
:103E10008079012807D01B488079022803D01948EF
:103E2000807903280AD10020154908701549887146
:103E300048710871C8708870487008701048007820
:103E4000072814DB0F4800790E49C97840EA0120A1
:103E50000D490860002000E00EE00949087009499A
:103E6000887148710871C87088704870087040F295
:103E70002551024800F078F810BD000000500040C5
:103E8000040000200C0000200800002010B540F2C3
:103E90002551224800F090F800283DD020480078B5
:103EA000012808D11D4800F041F9C4B2242C02D1E8
:103EB00000201C4908801B4801880088401C194AC2
:103EC000108019484454007824281ED116480079DF
:103ED0004D281AD114484079432816D10A2C14D100
:103EE00050211248FCF7B1FB0E4802880E490F48DA
:103EF000FCF766FB01200D4981F8500000200949BC
:103F00000880C8210848FCF7A0FB06480088C8289C
:103F100002DBC8200349088010BD000000100140EA
:103F20002100002024000020EA0000207100002071
:103F300010B540F22551094800F03EF860B140F25A
:103F40002551064800F010F8044800F0EFF8044945
:103F5000087001200349087010BD000000440040B3
:103F6000000000200100002010B50022002340F6D0
:103F70006A14A14200D100BF0A1201249440A3B2E6
:103F8000DC43048010BD21B1828942F40052828159
:103F900004E082894DF6FF731A4082817047024621
:103FA0000020B1F5007F00D100BF13880B400BB19A
:103FB000012000E00020704770B502460024002375
:103FC0000025002040F66A16B14200D100BFC1F3BF
:103FD000421501F01F03012606FA03F3012D02D159
:103FE0009689334006E0022D02D1168A334001E063
:103FF000968A33400C12012606FA04F416883440DF
:1040000013B10CB1012000E0002070BDF0B50346F3
:10401000002400260025002040F66A17B94200D18E
:1040200000BF1846C1F3421401F01F06012707FA2A
:1040300006F5012C01D10C3004E0022C01D1103026
:1040400000E014301AB107682F43076002E00768E8
:10405000AF430760F0BD00002DE9FF4705460E465F
:104060000024A14600BFA046B08900B100BF2C8A41
:1040700024F44054F08804432C82AC8941F20C6053
:104080008443B08831890843718908430443AC8173
:10409000AC8A24F44074B0890443AC826846FFF7CC
:1040A0002FF82048854202D01F48854202D1DDF812
:1040B0000C9001E0DDF80890A88900F4004040B1C0
:1040C00009EBC90000EB091031684900B0FBF1F7BA
:1040D00007E009EBC90000EB091031688900B0FB6B
:1040E000F1F76420B7FBF0F004012009642101FB23
:1040F0001078A88900F4004040B1322000EBC800DD
:10410000B0FBF1F000F00700044308E0322000EBC0
:1041100008106421B0FBF1F000F00F0004432C8183
:10412000BDE8FF8700100140001401400146888867
:10413000C0F308007047C1F308028280704700BFD7
:10414000FEE703B401984100009850EAC12018BF6F
:1041500004204A0D18BF40F0010040F2FF72B2EB9C
:10416000515F08BF40F00200012808BF052002B0DF
:10417000704700000000000030B583B00446FCF733
:104180008AFA9FED090B05468DED000B00222146B2
:104190006846FCF7A3FE2846FCF782FA9DED000B6B
:1041A00003B030BD0000000000000000000000006F
:1041B00030B540F2FF742DED048BF0EE608A18EEFE
:1041C000901A85B0B0EE408A9FED2B9B05468DED91
:1041D000008B34EA115147D053EC192B51EC180BDA
:1041E00000F0BEFE40D02A4651EC180B01F002FA56
:1041F00041EC180B18EE900A8DED008B34EA10504C
:104200001CD053EC192B51EC180B00F0A9FE2BD14C
:104210000220FCF745FA00F043F810EE901A18EE71
:10422000900A8DED020B8DED008B61F31E00039063
:104230009DED020B05B0BDEC048B30BD0220FCF7F8
:104240002FFA00F01DF810EE901A18EE900A8DED7E
:10425000020B8DED008B61F31E0003909DED020BB0
:1042600005B0BDEC048B30BD05B0B0EE480AF0EEF1
:10427000680ABDEC048B30BD0000000000000000A7
:104280009FED050B10B553EC102B51EC100B00F00B
:1042900053FF41EC100B10BD000000000000007047
:1042A0009FED050B10B553EC102B51EC100B00F0EB
:1042B00043FF41EC100B10BD000000000000001097
:1042C00030B504462DED048B81B06A4691ED008B2C
:1042D00051EC180B00F02CF900989FED239B7E30D9
:1042E0000090002821DC53EC192B51EC180B00F046
:1042F00037FE1AD0002140F608004FF000000546B6
:1043000051EC180B00F0E6FB08EE100A40F608002E
:1043100005EA00014FF00000B5EEC08AF1EE10FA98
:1043200004BF0220FCF7BCF917E00098FF280EDB61
:104330000220FCF7B5F953EC192B51EC180B00F0E7
:10434000F9FF8CBF9FED0A8A9FED0A8A05E051ECC8
:10435000180B00F0BFFB08EE100A84ED008A01B0D4
:10436000BDEC048B30BD0000000000000000000028
:10437000000080FF0000807F10B5044690ED000B28
:104380000846FFF715FF84ED000B10BD30380A28F2
:1043900001D2012070470020704700BF7047000025
:1043A00010B50020104981F8500081F8510081F8C3
:1043B000780050210C48FCF748F90B485230002196
:1043C00001604160018181720B30016041600181B7
:1043D00081725D38A0F868106A30016041608160C8
:1043E0006A38A0F8761010BD7100002010B50446A0
:1043F0006FF00400FEF7A0FFE11704EB5171C1F369
:10440000C701074A11701046007800EB4001C1EB6C
:10441000C0104FF6FF7101EAC0000249088010BDCC
:104420001C0000201E00002070B504464FF40770E9
:1044300094FBF0F0C6B24FF4077094FBF0F100FB70
:10444000114085B205E04FF4077000F02FF8701EA0
:10445000C6B2002EF7D115B1284600F027F870BD7E
:104460000146114A12784A434FF0E0235A61002274
:104470009A611A46126942F001021A6100BF4FF0B8
:10448000E022106900F001021AB100F48032002A23
:10449000F5D04FF0E022126922F001024FF0E02344
:1044A0001A6100229A6170471C0000200146114ADF
:1044B00012884A434FF0E0235A6100229A611A465B
:1044C000126942F001021A6100BF4FF0E022106948
:1044D00000F001021AB100F48032002AF5D04FF04A
:1044E000E022126922F001024FF0E0231A6100225B
:1044F0009A6170471E000020044603E0214602A096
:10450000FBF716FFFAE700004552524F5225640DA3
:104510000A00000000BF054A128802F04002002A8B
:10452000F9D0C2B2014B9A807047000000100140E0
:1045300010B582B01446CDE900010023009A236033
:10454000194B21F0004098422ADA024328D0B0F5F6
:10455000801FA8BF226810DA9FED150B53EC102BBB
:104560009DED000B51EC100B00F0E6FDCDE90001D4
:104570006FF0350221F0004022600F4B6FF31E51A7
:1045800003EB20501044206041F0FF5040F00050F9
:1045900001909DED000B00BF02B051EC100B10BD5F
:1045A0009DED000BF8E700000000F07F0000000028
:1045B000000000000000504302FCFFFFFEF7D2FEA7
:1045C0000DE000F00DF800F08FF8FFF7D5FAFFF7D7
:1045D0001DFAFFF78BFBFFF765FBFFF72FFAF0E7FC
:1045E000F8B50026394890F8500000286CD000201B
:1045F000364981F8500036A0FBF79AFE3348FBF7A6
:104600008BFE00BF5EE046B936A13048FBF7C6FF1F
:10461000041E55D10120FFF76FFF641C31A1204615
:10462000FBF7BCFF051E48D0072E2ED2DFE806F0B0
:104630002D040B11181F26002A1B21462348523037
:10464000FBF7BEFF22E02A1B21466846FBF7B8FFB6
:104650001CE02A1B21461D485D30FBF7B1FF15E029
:104660002A1B214619486830FBF7AAFF0EE02A1BD7
:10467000214616486A30FBF7A3FF07E02A1B2146B4
:1046800012487630FBF79CFF00E000BF00BF2C46CD
:1046900001200E4981F851009DF80000412803D106
:1046A000012081F8780007E09DF80000562803D12A
:1046B0000020064981F8780002E00220FFF71CFF85
:1046C000701CC6B2062E9EDDF8BD000071000020F1
:1046D0002A2A2A2A2A2A2A2A2A2A2A2A2A2A0D0A77
:1046E000000000002C00000008B5334890F851008D
:1046F00000285FD00020304981F8510001202F4967
:1047000008602D4890F8780000284DD001202C49F1
:104710000870002029490860274981F8780029A0FD
:10472000FBF706FE24485D30FEF7C6F82B4880ED07
:10473000000B214868300090284890ED000B53ECA6
:10474000102B27A0FBF7F4FD27A0FBF7F1FD27A016
:10475000FBF7EEFD18486830FBF7DEFD22A0FBF703
:10476000E7FD27A0FBF7E4FD13486A30FEF7A4F845
:10477000294880ED000B104876300090264890EDD7
:10478000000B53EC102B16A0FBF7D2FD16A0FBF785
:10479000CFFD22A0FBF7CCFD07487630FBF7BCFD30
:1047A00011A0FBF7C5FD05E021A0FBF7C1FD02202C
:1047B0000349087008BD0000710000208882404253
:1047C00020000020536176655F446174612E6C6146
:1047D000746974756465203D200000002800002085
:1047E000256C6625730000000D0A00005361766594
:1047F0005F446174612E4E5F53203D200000000035
:10480000536176655F446174612E6C6F6E67697485
:10481000756465203D2000003000002053617665FE
:104820005F446174612E455F57203D200000000009
:104830004750532044415441206973206E6F7420C7
:1048400075736566756C6C210D0A000010B588B033
:10485000044601210820FEF723FC01214804FEF74D
:104860002FFC072205212348FEF7C7F8072206215F
:104870002048FEF7C2F86020069002208DF81C0048
:1048800000208DF81E0002208DF81D0001208DF8FB
:104890001F0006A91748FEF768F826208DF80400C7
:1048A00003208DF8050002208DF8060001208DF808
:1048B000070001A8FEF768F902940020ADF80C008B
:1048C000ADF80E00ADF81000ADF814000C20ADF8F6
:1048D000120002A90848FFF7BFFB012240F2255150
:1048E0000548FFF793FB01210348FFF74CFB08B095
:1048F00010BD0000000C02400044004010B588B01C
:10490000044601210C20FEF7CBFB01210805FEF730
:10491000D7FB08220C212B48FEF76FF80822022152
:104920002948FEF76AF84FF48050069002208DF86F
:104930001C008DF81D0000208DF81E0001208DF850
:104940001F0006A91F48FEF710F804200690022059
:104950008DF81C008DF81D0000208DF81E00012030
:104960008DF81F0006A91848FDF7FFFF02940020EC
:10497000ADF80C00ADF80E00ADF81000ADF8140065
:104980000C20ADF8120035208DF8040001208DF8C0
:10499000050003208DF8060001208DF8070001A80E
:1049A000FEF7F2F802A90948FFF756FB012240F290
:1049B00025510648FFF72AFB01210448FFF7E3FAD7
:1049C00008B010BD00080240000C0240005000403A
:1049D00010B588B0044601210846FEF761FB0121AD
:1049E0001020FEF77DFB072209212248FEF705F87B
:1049F00007220A211F48FEF700F84FF4C060069016
:104A000002208DF81C008DF81D0000208DF81E007E
:104A100001208DF81F0006A91648FDF7A6FF029495
:104A20000020ADF80C00ADF80E00ADF81000ADF8A8
:104A300014000C20ADF8120002A90F48FFF70CFB80
:104A400001210D48FFF79FFA012240F225510A4843
:104A5000FFF7DCFA25208DF8040003208DF805000F
:104A60008DF8060001208DF8070001A8FEF78CF8EC
:104A700008B010BD000002400010014010B5002930
:104A80000AD00878002807D005487844FDF734F8A4
:104A9000002801D0002010BD0248784410BD00005D
:104AA000221300001A13000010B500290AD008785C
:104AB000002807D005487844FDF71EF8002801D0EB
:104AC000002010BD0248784410BD00001213000001
:104AD0000A13000021F00042A2F16052B2F5801FDB
:104AE00001F0004328BFD2F17F6C0BD95FEA001CB4
:104AF00043EAC20242EB507018BF704728BF20F053
:104B000001007047B2F5801FBCBF184670474FEADE
:104B1000410C1CF5001F02D2084600F030BD70B5F4
:104B200000F0B4FB00000089FFF7F6BF4FF0004033
:104B3000A0F580007047000010B591EA030F48BF50
:104B400083F0004300F13484841A71EB030C05D226
:104B5000121943EB0C03001B61EB0C01DFF824E19D
:104B60004FEA1154A4EB135C1EEA430F18BF9EEAF0
:104B7000445F73D023EA0E03DCF1200E21EA0451D6
:104B800043F4801332D322FA0CFE10EB0E0023FA0A
:104B90000CFE41EB0E01CCF1200E03FA0EFE10EBE1
:104BA0000E0051F10001B1F5801FCCF1200E32D280
:104BB00001EB045112FA0EF2BDE8104058BF7047E5
:104BC000401C38BF5FEA420218BF7047002814BF7C
:104BD00020F0010041F100014FEA410313F5001FED
:104BE00038BF7047A1F1C04100F09EBB012A43EBE2
:104BF0000302ACF1200CDCF11F0E32BF4FF0000EAF
:104C000023FA0CF310EB030041EB0451B4EB115FFA
:104C1000D0D0A1EB045101F5801149085FEA3000C2
:104C200001EB04510ED350F1000038BF12FA0EFE12
:104C300008D1BDE81040C9E7401C38BF5FEA420216
:104C4000CAD1C3E7BDE810404FEA410313F5001F86
:104C500038BF7047A1F1C04100F066BB9EEA445FD7
:104C600008D011EA5E0FBDE8104004BF01F000411A
:104C700000207047BDE8104070B500F007FB00BF92
:104C800064FBBE3E0000E0FF02494FF0000000F070
:104C90007FBC00BF0000F87F491058BFC1F1404100
:104CA0005B1058BFC3F140438B42EFF30080704765
:104CB0002DE9C04130B4DFF8A0C23CEA111418BF9E
:104CC0003CEA131400F0EC8081EA03051CEA11149D
:104CD00044EAD57418BF1CEA131500F0C780A4EB92
:104CE00005044FF0004545EAC12145EAC32341EAE6
:104CF000505143EA525304F17F74994204F5003451
:104D00004FEAC0204FEAC22208BF904200F09C80C8
:104D10004FEA13650FF24016765D4FEA134506FB26
:104D200005F7C7F1807706FB07F74FEAD737A7FBF0
:104D300003687642C8F58038A7FB06CE38BFA8F1D5
:104D4000010807FB08E64FF0000EA6FB028CE6FB0D
:104D500003CEDCF1000CCEF1004E38BFAEF1010EF7
:104D6000A6FB0C584FF000074FF00005E6FB0E873E
:104D7000A1FB08C6A0FB07CE16EB0E0645F1000509
:104D8000E1FB076515F1E04E7EBFA4F580345FEAD4
:104D900046066D4116F1800745F100054FEA1727D9
:104DA0004FEA066647EA0567A6F1DE46B6F1805F80
:104DB0004FEA15251FD9384624F0010C05EBC471C4
:104DC000BCF1FE6F01EB0C1102D8F0BCBDE8008114
:104DD00024425CBF01F5801E9EEAC47F02D4F0BC71
:104DE000BDE80081244238D4F0BCA1F1C041BDE847
:104DF000004100F099BA4FEAD22242EA43524FEA08
:104E0000D323A7FB02864FEAD02040EA415007FB9C
:104E100003661EEA0E0F4FEAD12105FB026658BF5A
:104E2000A6EB0056B6EB00564FEA520E4EEAC37E92
:104E300018EB0E0E56EB530EBDD518EB02085E4173
:104E40007F1C55F10005B6E74FF480154FF00007C1
:104E50004FF000064FF00008ADE7F0BC4FF0000047
:104E600001F1C04101F00041BDE8008111EA0C1FD1
:104E70000CEA131500D00CE013EA0C1F00F025809B
:104E80004FF00000F0BC81EA030101F00041BDE8F1
:104E90000081F0BCBDE8004181EA030100F044BAA2
:104EA000F0BCBDE8004170B500F0F0F9097EFC3EB1
:104EB00000F007B881EA03014FF0000001F0004163
:104EC000704781EA030100F02FBAF0BCBDE8004151
:104ED0004FF0000021497047FFFDFBF9F7F5F4F2B0
:104EE000F0EEEDEBE9E8E6E4E3E1E0DEDDDBDAD885
:104EF000D7D5D4D3D1D0CFCDCCCBCAC8C7C6C5C4E3
:104F0000C2C1C0BFBEBDBCBBBAB9B8B7B6B5B4B3F9
:104F1000B2B1B0AFAEADACABAAA9A8A8A7A6A5A4E4
:104F2000A3A3A2A1A09F9F9E9D9C9C9B9A999998A8
:104F30009797969595949393929191908F8F8E8E4B
:104F40008D8C8C8B8B8A89898888878786858584D8
:104F500084838382828181800000FF070000F87FC4
:104F600051EA030C17D41CF5801F58BFBCF5801FF5
:104F700000F10680994218BF704708BF9042704701
:104F800007D711F5801F58BF13F5801F19D4994218
:104F90007047894270471CF5801F08D5BCF5801FFB
:104FA000F7D58B4218BF704708BF824270474FF455
:104FB000001C1CEB410F38BF1CEB430F01D28B428E
:104FC000704770B500F062F9922449004FF000512B
:104FD0004FF08053FFF760BE4FEA41034FEA53534F
:104FE000A3F58063D3F11E03C8BFD3F1210C0CDD00
:104FF0004FF0004242EAC12242EA505232FA03FC28
:105000008CEAE17CACEBE1707047102BC4BF002050
:10501000704703F5787CBCF1FF3F04D06FF000428D
:1050200082EA2100704770B500F030F9499224807F
:1050300000207047F2E700004FEA1153A3F58063A8
:10504000D3F11E03A8BFD3F1200C08DB4FF00042C0
:1050500042EAC12252EA505232FA03F07047094242
:105060000BD4102BC4BF0020704703F5787CBCF133
:10507000FF3F05D04FF0FF3070474FF00000704702
:1050800070B500F003F900BF4992248000207047FA
:10509000F0E710F0004248BF4042B0FA80F310FA47
:1050A00003F10AD0C3F11D0303F580634FEA4150B9
:1050B00002EB035202EBD12170474FF00000704722
:1050C00051EA030C17D41CF5801F58BFBCF5801F94
:1050D00000F10680994218BF704708BF90427047A0
:1050E00007D711F5801F58BF13F5801F19D49942B7
:1050F0007047894270471CF5801F08D5BCF5801F9A
:10510000F7D58B4218BF704708BF824270474FF4F3
:10511000001C1CEB410F38BF1CEB430F01D28B422C
:10512000704770B500F0B2F8922449004FF000517A
:105130004FF08053FFF7B0BDDFF848C170B51CEAEF
:10514000111E1EBF1CEA13159EEA0C0F95EA0C0FE8
:1051500000F06F8081EA030423EA4C134EEAD47E08
:1051600021EA4C1141F4801143F48013AE44A1FBB9
:10517000024CA0FB0365AEF17F7E361955EB0C05A2
:10518000A1FB034C4CF10003A0FB021C16EB0C0628
:10519000654153F10003094218BF46F0010613F4BC
:1051A000007F0BD14FEA03314FEA0530340341EA67
:1051B000155140EA16506FF003020AE04FEAC3218E
:1051C0004FEAC520F40241EA555140EA56506FF0CB
:1051D000020202EB2E4201EB025585EACE710AD0A3
:1051E0005FEA440C18BF24F0004450F1000041F184
:1051F000000120EAD47040F2FE7C624500D270BD0E
:10520000A84214BF4FF080444FF04044002E08BF26
:105210000024BEF1806FA8BFA1F1C041BDE870407D
:1052200080F282804FF0000001F1C04101F00041A6
:1052300070479EEA0C0F0CEA131518BF95EA0C0F85
:1052400006D04FF0000081EA030E0EF0004170BD61
:1052500000F01CF88900013E00F007B800F009B822
:105260004FEA430C5FEA5C5C08D081EA030100F07E
:105270005BB84FEA410C5FEA5C5CF6D14FF000008E
:10528000014970470000FF070000F87F0EF1020E91
:105290002EF0030E5EF8046B364205D4012A43EB70
:1052A000030515F5001F12D8012841EB010C1CF570
:1052B000001F0CD80ED14FEAD17C15F5001F0CEB66
:1052C0004C0C0CF1020C08BF4CEBD37C04E04FF00B
:1052D000080C01E04FEAD37C0CEB4C0526FA05F6EE
:1052E00006F00706B6F1040C06D20EEB860CBDE8FC
:1052F00070404CF0010C6047DFE80CF0090B020233
:105300004FF000414FF00000A1F5002170BD19469B
:105310001046012851EB010418BFD4F5001484BFD6
:10532000002001F0004170BD0808A0F500114FEA0F
:105330003101704753EA010C17D41CF5801F58BF88
:10534000BCF5801F00F106808B4218BF704708BF74
:105350008242704707D713F5801F58BF11F5801F91
:1053600019D48B4270479B4270471CF5801F08D5AB
:10537000BCF5801FF7D5994218BF704708BF90420F
:1053800070474FF4001C1CEB430F38BF1CEB410F60
:1053900001D2994270470FB40CBC03BCFFF7C1BEE9
:1053A00010B591EA030F48BF83F000433FF5CCAB43
:1053B000841A71EB030C07D212198CF0004C43EBEA
:1053C0000C03001B61EB0C01DFF8A4E14FEA115460
:1053D000A4EB135C1EEA430F18BF9EEA445F00F083
:1053E000B08023EA6E03524221EA0451C3EB6E03FC
:1053F00038BF5B1EDCF1200E25D322FA0CFE10EB29
:105400000E0043FA0CFE41EB0E01CCF1200E03FA24
:105410000EFE10EB0E0051F10001CCF1200E29D44C
:1054200012FA0EF201EB0451BDE8104058BF70476C
:10543000401C1CBFB2F1004F704700280CBF491C34
:1054400020F00100704712EB020E43EB030218BF7D
:105450004FF0010E4EEA4202ACF1200CDCF11E0EC0
:1054600054D943FA0CFE10EB0E0051F1FF31CCF190
:105470001E0ED5D50EF1010E12FA0EFE404141EB83
:10548000010101EB445C5FEA5C5C10D910EBDE705B
:1054900001EB045138BFBEF1004FBDE8104018BF0A
:1054A000704700280CBF491C20F00100704730D223
:1054B0004FEAD42C11F5001124F400641BD0B1FA8A
:1054C00081F20B3AA41AA41ED2F12003914030FAC3
:1054D00003F31943904001EBCC71002C01EB045114
:1054E000BDE81040A8BF704701F1C0414FF0000077
:1054F00001F000417047B0FA80F310FA03F100D1D7
:1055000010BDE41A173C4805C90AE4E701EB045151
:1055100010BD491001EB0451BDE810404FEA3000C6
:1055200002E04FF0000170474A0008BF0042F8D087
:10553000B2F5001F28BF704701F000414FF0000096
:1055400070479EEA445F07D011EA5E0FBDE8104045
:1055500004BF002100207047BDE8104070B5FFF780
:1055600095FE00BF40DFF63E83F0004110467047D5
:105570000000E0FF4FF04070E1EE100A7047FF219D
:1055800041EAD050C0057047FBF70DBAFBF788BD64
:105590000CF00F03092B08BF082000F05F800A2BD6
:1055A0000BD0082B18BF704708BF1CF0400F0AD063
:1055B0004FF000004FF0000170471CF0400F18BF83
:1055C0004FF0004070471CF0100F08D020F07043DF
:1055D00000F07F4242EAD3014FEA4370704700F087
:1055E000604021F07F4242EA000201F07F4040EA41
:1055F000727070474FF0FF0C4CF4E06C1CEA1153D2
:105600001CBF9CEA030C9445C2BFDA4201EB025175
:105610007047002B0DD0BCF1000F0FD0002A01F015
:105620000041A4BF41F0E04141F07F614FF0000034
:10563000704701F000414FF00000704750EA01331D
:105640004FF09B0C18BF4CF0806C7FF41DAB704783
:10565000FCF7F4B8FCF790BAFCF71ABC1CF4801FF6
:1056600011D01CF4E02F03D06FEACC314900704711
:105670004FF04050EFF3008222F0704242EA000205
:1056800082F3008870474FF0000070470000000070
:10569000000000000000000000000000000000F812
:1056A00000000000000000333000000000100C0675
:1056B000100C0600000000000000000040C0784010
:1056C000C0784000043F04043F040400007088FCDC
:1056D00008300000001820FF211E0000F008F00034
:1056E000E018000000211C031E211E0000F00888A5
:1056F000700000001E2123241927211010160E000F
:10570000000000000000000000000000000000E0B9
:1057100018040200000000071820400000020418CE
:10572000E00000000040201807000000404080F02A
:10573000804040000202010F01020200000000F060
:10574000000000000101011F010101000000000034
:105750000000000080B070000000000000000000A9
:105760000000000000010101010101010000000032
:1057700000000000003030000000000000000000C9
:1057800080601804006018060100000000E01008A6
:105790000810E000000F102020100F00001010F87B
:1057A000000000000020203F2020000000700808BA
:1057B000088870000030282422213000003008883A
:1057C000884830000018202020110E000000C02062
:1057D00010F8000000070424243F240000F8088883
:1057E000880808000019212020110E0000E0108810
:1057F00088180000000F112020110E000038080842
:10580000C83808000000003F000000000070880851
:1058100008887000001C222121221C0000E01008D2
:105820000810E0000000312222110F00000000C02B
:10583000C0000000000000303000000000000080C8
:1058400000000000000080600000000000008040B8
:1058500020100800000102040810200040404040D1
:105860004040400004040404040404000008102024
:105870004080000000201008040201000070480869
:105880000808F0000000003036010000C030C828D1
:10589000E810E0000718272423140B000000C0388C
:1058A000E0000000203C23020227382008F8888806
:1058B00088700000203F202020110E00C030080812
:1058C00008083800071820202010080008F80808E9
:1058D0000810E000203F202020100F0008F88888E2
:1058E000E8081000203F20202320180008F88888AE
:1058F000E8081000203F200003000000C030080826
:105900000838000007182020221E020008F80800AE
:105910000008F808203F210101213F20000808F875
:10592000080800000020203F202000000000080898
:10593000F8080800C08080807F00000008F888C058
:1059400028180800203F20012638200008F8080009
:1059500000000000203F20202020300008F8F80040
:10596000F8F80800203F003F003F200008F830C052
:105970000008F808203F200007183F00E010080842
:105980000810E0000F10202020100F0008F8080871
:105990000808F000203F210101010000E010080884
:1059A0000810E0000F18242438504F0008F88888A9
:1059B00088887000203F2000030C30200070880889
:1059C000080838000038202121221C00180808F897
:1059D000080818000000203F2000000008F8080018
:1059E0000008F808001F202020201F0008788800E9
:1059F00000C83808000007380E010000F80800F859
:105A00000008F800033C0700073C03000818688002
:105A10008068180820302C03032C30200838C80078
:105A2000C83808000000203F2000000010080808C7
:105A3000C83808002038262120201800000000FE69
:105A4000020202000000007F40404000000C30C015
:105A500000000000000000010638C0000002020241
:105A6000FE000000004040407F00000000000402F3
:105A7000020204000000000000000000000000001E
:105A8000000000008080808080808080000202040E
:105A90000000000000000000000000000000808006
:105AA000808000000019242222223F2008F8008074
:105AB00080000000003F112020110E000000008037
:105AC00080800000000E11202020110000000080C6
:105AD0008088F800000E112020103F2000008080F8
