:020000040800F2
:10000000C008002029020008610500085F040008FC
:10001000A9040008750300081F1C00080000000068
:100020000000000000000000000000004D0E00086D
:100030007903000800000000770A0008711000082A
:10004000430200084302000843020008430200087C
:10005000430200084302000843020008430200086C
:10006000430200084302000843020008430200085C
:10007000430200084302000843020008430200084C
:10008000430200084302000843020008430200083C
:10009000430200084302000843020008430200082C
:1000A000430200084302000843020008430200081C
:1000B0004302000831110008ED1100084302000856
:1000C00043020008430200084302000843020008FC
:1000D0004302000841190008C9190008011A000864
:1000E00043020008430200084302000843020008DC
:1000F00043020008430200084302000843020008CC
:100100004302000843020008BD1200084302000831
:1001100049180008C51800084302000843020008F7
:10012000430200084302000843020008430200089B
:10013000430200084302000843020008430200088B
:10014000430200084302000843020008430200087B
:10015000430200084302000843020008430200086B
:10016000430200084302000843020008430200085B
:10017000430200084302000843020008430200084B
:10018000430200084302000800F002F800F03CF8C7
:100190000AA090E8000C82448344AAF10107DA45E2
:1001A00001D100F031F8AFF2090EBAE80F0013F0F8
:1001B000010F18BFFB1A43F0010318472825000060
:1001C00048250000103A24BF78C878C1FAD85207F1
:1001D00024BF30C830C144BF04680C6070470000C1
:1001E0000023002400250026103A28BF78C1FBD840
:1001F000520728BF30C148BF0B6070471FB501F0E0
:1002000073FF1FBD10B510BD00F06EF81146FFF76B
:10021000F5FF01F09DFD00F0A0F803B4FFF7F2FF39
:1002200003BC01F0FEFC0000094880470948004774
:10023000FEE7FEE7FEE7FEE7FEE7FEE7FEE7FEE796
:10024000FEE7FEE704480549054A064B70470000F3
:10025000C910000889010008C0020020C008002061
:10026000C0040020C0040020704700000FB40449FF
:1002700010B503AA029800F009F810BC5DF814FB51
:10028000500000207047704770477047074B70B5AB
:100290000D467B4400F011F80446284600F020F893
:1002A00010B14FF0FF3070BD204670BD9F1A0000A6
:1002B00001694A1C02610878704700B58FB0CDE92A
:1002C00001310021059105497944CDE9031011461A
:1002D000684600F02EF80FB000BD0000E5FFFFFFFC
:1002E000007B00F080007047754600F03FF8AE4696
:1002F00005006946534620F00700854618B020B532
:10030000FFF7A0FFBDE820404FF000064FF00007C8
:100310004FF000084FF0000B21F00701AC46ACE8AD
:10032000C009ACE8C009ACE8C009ACE8C0098D461A
:1003300070472DE9F04106460024D6E90170F568C2
:100340008046304603E04146B847641C3046A84723
:100350000028F8D12046BDE8F08110B50446AFF37F
:1003600000802046BDE81040FFF757BF00487047A7
:100370005C02002000BFFEE77047F0B50A4600218E
:100380000023002400BF3DE0012505FA01F31568B4
:1003900005EA03049C4234D105684F000326BE40A1
:1003A000B543056015794E00B540066835430560D4
:1003B0001579012D02D01579022D16D185684F00CF
:1003C0000326BE40B543856055794E00B54086682A
:1003D00035438560456801268E40B54345604568D4
:1003E00096798E40B6B235434560C5684F00032606
:1003F000BE40B543C560D5794E00B540C6683543AB
:10040000C560491C1029BFD3F0BDF0B500230024FE
:100410004D07ED0E02FA05F3CE1000F1200555F858
:1004200026504E07F70E0F26BE40B543CF1000F101
:10043000200646F82750CE1000F1200555F826502A
:1004400045EA0304CE1000F1200545F82640F0BD32
:10045000418370470AB1018300E04183704700BFC8
:10046000FEE710B5042001F019FC10BD1CB50121F8
:10047000022000F001FB0420009001208DF8040010
:1004800000208DF8060003208DF8050001208DF86E
:10049000070069460348FFF770FF04210148FFF792
:1004A000D7FF1CBD0004024000BFFEE71CB563215E
:1004B000292000F06DFE40F2F311292000F0D0FE5B
:1004C0000121082000F0D8FA0121102000F0D4FA10
:1004D0004CF60340009001208DF8040000208DF8B8
:1004E000060003208DF8050001208DF807006946FD
:1004F0001648FFF742FF0D20009001208DF8040000
:1005000000208DF8060003208DF8050001208DF8ED
:10051000070069460E48FFF730FF00200D490860CC
:100520000D49C1F8BC020B49383108600949091D61
:10053000086008492C310860091F086007490860F5
:10054000091D08600549083908601CBD000C0240FF
:1005500000100240808241420080414288024242B3
:100560007047000070B5002100230F22C4781CB32F
:10057000174C246804F4E064C4F5E064C4F3072174
:10058000C1F10404E3B20A4144789C40E1B28478AA
:10059000144021430C07210E0E4C05786155047858
:1005A00004F01F050124AC4005786D11AD0005F184
:1005B000E025C5F8004109E0047804F01F05012496
:1005C000AC40054D0678761145F8264070BD000018
:1005D0000CED00E000E400E080E100E01CB56321E8
:1005E000292000F09BFE0121022000F045FA0121A4
:1005F000042000F041FA0121102000F03DFA4FF4F0
:100600000070009001208DF8040000208DF8060095
:1006100003208DF8050001208DF8070069461D486C
:10062000FFF7ABFE42F20E00009001208DF80400AF
:1006300000208DF8060003208DF8050001208DF8BC
:10064000070069461448FFF798FE1020009001202B
:100650008DF8040000208DF8060003208DF80500B9
:1006600001208DF8070069460C48FFF786FE002040
:100670000B4908600B49C1F884020B4908600A491C
:10068000283108600849091F08600849C1F8A40218
:100690001CBD00000004024000080240001002409F
:1006A00090024242000041428C024142008040429E
:1006B00070B500240EE00021204600F0F1F800257E
:1006C00004E0002000F0C7F9681CC5B2802DF8DBFB
:1006D000601CC4B2082CEEDB70BD00001CB501210B
:1006E000084600F0C9F90320009001208DF80400AD
:1006F00000208DF8060003208DF8050001208DF8FC
:10070000070069460648FFF738FE012211460448F3
:10071000FFF7A0FE012202210148FFF79BFE1CBD4E
:100720000000024070B50546002419E080202041F9
:1007300000EA050202211348FFF78CFEFFF791FE45
:10074000012211460F48FFF785FEFFF78AFE0022BF
:1007500001210C48FFF77EFEFFF783FE601CC4B248
:10076000082CE3DB012211460648FFF773FEFFF772
:1007700078FE002201210348FFF76CFEFFF771FEAF
:1007800070BD00000000024010B5012202210C489B
:10079000FFF760FE012211460948FFF75BFEFFF7F5
:1007A00060FE002202210648FFF754FEFFF759FEC3
:1007B000002201210248FFF74DFEFFF752FE10BD57
:1007C0000000024010B5002202210848FFF742FE57
:1007D000012211460548FFF73DFEFFF742FE0122C8
:1007E00002210248FFF736FE10BD00000000024063
:1007F00010B5C82001F036FAFFF770FFAE2000F008
:100800001AF9D52000F017F9802000F014F9A8207B
:1008100000F011F93F2000F00EF9D32000F00BF9A1
:10082000002000F008F9402000F005F9A12000F0B8
:1008300002F9C82000F0FFF8DA2000F0FCF81220DE
:1008400000F0F9F8812000F0F6F8CF2000F0F3F87E
:10085000D92000F0F0F8F12000F0EDF8DB2000F0F6
:10086000EAF8302000F0E7F8A42000F0E4F8A62031
:1008700000F0E1F88D2000F0DEF8142000F0DBF845
:10088000AF2000F0D8F8FFF713FF10BD10B50246F7
:10089000012000E050430B1EA1F10101FAD110BD6F
:1008A00070B505460C4645F0B00000F0C4F81021C4
:1008B00041EA141000F0BFF804F00F0000F0BBF89C
:1008C00070BD00002DE9F04105460E461746721E28
:1008D000D206110E6A1E5206100EFFF7E1FF002429
:1008E00009E0A7F12001134A02EB0111085D00F0B5
:1008F000B2F8601CC4B2082CF3DB721ED206110ED3
:100900006A1E012303EB4202D0B2FFF7C9FF0024A5
:100910000BE0A7F12001074A02EB011204F10801E4
:10092000505C00F098F8601CC4B2082CF1DBBDE804
:10093000F0810000F22000082DE9F04781460E46C4
:1009400090461F4600241DE0381B411E1020FFF773
:100950009DFFB8FBF0F000F00F050A2D08DA05F155
:100960003000C2B23019C1B24846FFF7ABFF07E012
:1009700005F13700C2B23019C1B24846FFF7A2FFF5
:10098000601CC4B2BC42DFDBBDE8F0872DE9F04754
:1009900080460E4617461D46002415E0281B411EC2
:1009A0000A20FFF773FFB7FBF0F00A21B0FBF1F26A
:1009B00001FB120000F130093019C1B24A4640462D
:1009C000FFF780FF601CC4B2AC42E7DBBDE8F087F4
:1009D0002DE9F0478146884615461E46002D06DB68
:1009E0002B2241464846FFF76DFF2F4605E02D229A
:1009F00041464846FFF766FF6F42002417E0301B70
:100A0000411E0A20FFF742FFB7FBF0F00A21B0FBBE
:100A1000F1F201FB120000F1300A08EB0400401C67
:100A2000C1B252464846FFF74DFF601CC4B2B44203
:100A3000E5DBBDE8F08710B50446FFF7A5FE78209A
:100A4000FFF770FE0020FFF76DFE2046FFF76AFEFD
:100A5000FFF7B8FE10BD10B50446FFF795FE7820ED
:100A6000FFF760FE4020FFF75DFE2046FFF75AFECD
:100A7000FFF7A8FE10BD704729B1064A126802436D
:100A8000044B1A6004E0034A12688243014B1A6067
:100A9000704700003038024029B1064A126802430C
:100AA000044B1A6004E0034A12688243014B1A6047
:100AB000704700004038024029B1064A12680243DC
:100AC000044B1A6004E0034A12688243014B1A6027
:100AD0007047000044380240F0B500210022002495
:100AE000022500260223324F3F6807F00C0121B196
:100AF000042905D0082937D105E02E4F076036E0DC
:100B00002D4F076033E02A4F3F1F3F68C7F38056E1
:100B1000274F3F1F3F6807F03F036EB1264FB7FBDB
:100B2000F3F7DFF88CC0ACF1040CDCF800C0CCF3B8
:100B3000881C07FB0CF40CE01E4FB7FBF3F7DFF843
:100B400070C0ACF1040CDCF800C0CCF3881C07FBCF
:100B50000CF4174F3F1F3F68C7F301477F1C7D0010
:100B6000B4FBF5F7076002E0124F076000BF00BF5B
:100B70000F4F3F6807F0F0010909104F7A5C0768D2
:100B8000D74047600A4F3F6807F4E051890A0B4F8E
:100B90007A5C4768D7408760054F3F6807F460413B
:100BA000490B064F7A5C4768D740C760F0BD00002C
:100BB000083802400024F40000127A005600002099
:100BC0002DE9F0430346012B49D1DFF8989099F8BD
:100BD000044099F8055099F8066099F8077099F85B
:100BE00008C099F8098044EA05290FFA89F046EA15
:100BF00007290FFA89F14CEA08290FFA89F200EE69
:100C0000100AB8EEC00ADFED180A20EE200ADFED68
:100C1000170A80EE201ADFF8589089ED001A00EECE
:100C2000101AB8EEC00ADFED100A20EE200ADFED40
:100C30000F0A80EE201ADFF83C9089ED001A00EED2
:100C4000102AB8EEC00ADFED080A20EE200ADFED18
:100C5000070A80EE201ADFF8209089ED001ABDE81F
:100C6000F0830000CC000020000034430000004767
:100C7000180000201C000020200000202DE9F04377
:100C80000346012B49D1DFF8989099F8044099F870
:100C9000055099F8066099F8077099F808C099F816
:100CA000098044EA05290FFA89F046EA07290FFA74
:100CB00089F14CEA08290FFA89F200EE100AB8EE21
:100CC000C00ADFED180A20EE200ADFED170A80EED9
:100CD000201ADFF8589089ED001A00EE101AB8EECD
:100CE000C00ADFED100A20EE200ADFED0F0A80EEC9
:100CF000201ADFF83C9089ED001A00EE102AB8EEB9
:100D0000C00ADFED080A20EE200ADFED070A80EEB8
:100D1000201ADFF8209089ED001ABDE8F08300006A
:100D20006800002000003443000000470800002055
:100D30000C00002010000020532868D13449897825
:100D4000344A11703249C978334A117030490979EF
:100D5000324A11702E494979314A11702C498979EA
:100D6000304A11702A49C9792F4A117029490978E6
:100D7000294A127841EA022109B22C4A11802749F6
:100D80000978274A127841EA022109B2284A1180DB
:100D900024490978244A127841EA022109B2254AF5
:100DA00011802249B1F9001000EE101AB8EEC00A05
:100DB000DFED210A20EE200ADFED200A80EE201A66
:100DC0001F4981ED001A1A49B1F9001000EE101AFE
:100DD000B8EEC00ADFED180A20EE200ADFED170A90
:100DE00080EE201A174981ED001A1146B1F9001062
:100DF00000EE101AB8EEC00ADFED0F0A20EE200A4E
:100E0000DFED0E0A80EE201A0F4981ED001A7047BF
:100E10003001002034000020350000203600002082
:100E20003700002038000020390000203A00002060
:100E30003C0000203E00002000003443000000473A
:100E4000280000202C000020300000207047000007
:100E500000B58BB001210220FFF72EFE01210420F6
:100E6000FFF70AFE02208DF828004FF470700990F9
:100E700003208DF8290000208DF82A0001208DF82C
:100E80002B0009A93348FFF778FA032206213148DD
:100E9000FFF7BBFA032207212E48FFF7B6FA032219
:100EA00008212C48FFF7B1FA032209212948FFF74E
:100EB000ACFA42F20F700790A720ADF8180000209E
:100EC000ADF82000ADF81A0006A9234800F0D8FBC1
:100ED0006020ADF804000120ADF80600002003906A
:100EE000ADF81000ADF8140001A91B4800F07CFA21
:100EF00001A9194800F0C0FA01A9174800F01CFB2D
:100F000001A9154800F072FB0821134800F0AAFA65
:100F10000821114800F002FB08210F4800F05CFB9B
:100F200008210D4800F09EFB01210B4800F033FA28
:100F30000121094800F023FA40F2DC50064934311F
:100F40000860091D0860091D0860091D08600BB0D4
:100F500000BD000000080240000401400CB5002064
:100F6000019000903448006840F4803032490860B5
:100F700000BF3148006800F4003000900198401C28
:100F80000190009818B90198B0F5A04FF1D12A4806
:100F9000006800F4003010B10120009001E0002052
:100FA00000900098012846D123484030006840F066
:100FB00080502149403108602048006840F440409A
:100FC0001E4908601C48083000681B490831086049
:100FD0000846006840F4004008600846006840F495
:100FE000A05008601648091F0860081F006840F0FC
:100FF0008070091F086000BF0F48006800F0007093
:101000000028F9D040F205700E4908600A480830FF
:10101000006820F0030008490831086008460068AD
:1010200040F00200086000BF03480830006800F08C
:101030000C000828F8D10CBD0038024000700040B8
:1010400008544007003C0240042808D14FF0E0213A
:10105000096941F004014FF0E022116107E04FF00F
:10106000E021096921F004014FF0E022116170478D
:101070007047000010B5A82000F0D6FD4FF4E13015
:1010800000F0DCFF4FF4E13000F06AFE4FF4165040
:1010900000F0BEFE4FF4E13000F010FF4FF4E130FD
:1010A00000F062FFFFF702FAFFF798FAFFF7D0FEB1
:1010B000FFF7DCF9FFF79CFB01A0FFF7D7F810BDA5
:1010C00055315F4F4B00000010B51548006840F4E3
:1010D0007000134908601348006840F0010011498E
:1010E000086000200F49083108600E4800680E496A
:1010F00008400C4908600D48091D0860081F006879
:1011000020F48020091F0860002006490C31086087
:10111000FFF724FF4FF0006001498039086010BDDF
:1011200088ED00E000380240FFFFF6FE103000249A
:1011300010B50121124800F03DF901281BD11148DA
:101140000068401C0F4908600846007800F0010064
:1011500030B100200C4908600C49C1F884020AE053
:101160000848007800F0010028B90120064908600D
:101170000649C1F884020121014800F0FDF810BDC4
:101180000004004040000020808241420080414233
:101190007FB505460C4601210220FFF77DFC029534
:1011A000ADF804400020ADF80600ADF80C0001A930
:1011B0000D4800F065FA012211460B4800F00BF9CA
:1011C0000121094800F0DBF81D208DF80000012006
:1011D0008DF8010003208DF8020001208DF8030036
:1011E0006846FFF7BFF97FBD0004004010B501213C
:1011F000174800F0DFF8012825D116480068401C88
:10120000144908600846007800F0010018B1002079
:101210001149086007E00F48007800F0010010B99C
:1012200001200D4908600B48006841F2883188426E
:1012300009D30948001D0068C0430849C1F88C0261
:101240000020044908600121014800F095F810BD14
:101250000008004044000020880242420000424250
:101260007FB505460C4601210420FFF715FC0295C9
:10127000ADF804400020ADF80600ADF80C0001A95F
:101280000D4800F0FDF9012211460B4800F0A3F8CB
:101290000121094800F073F81E208DF8000001209C
:1012A0008DF8010003208DF8020001208DF8030065
:1012B0006846FFF757F97FBD0008004010B50121CF
:1012C000124800F077F801281BD111480068401C33
:1012D0000F4908600846007800F0010030B1002096
:1012E0000C4908600C49C1F8B4020AE008480078CB
:1012F00000F0010028B90120064908600649C1F83C
:10130000B4020121014800F037F810BD000C004084
:101310004800002090024242000041427FB505464D
:101320000C4601210820FFF7B7FB0295ADF80440F9
:101330000020ADF80600ADF80C0001A90D4800F042
:101340009FF9012211460B4800F045F80121094898
:1013500000F015F832208DF8000001208DF8010012
:1013600003208DF8020001208DF803006846FFF786
:10137000F9F87FBD000C0040CA430282704721B1DA
:10138000028842F00102028004E002884FF6FE73F8
:101390001A400280704731B1B0F8442042F4004254
:1013A000A0F8442005E0B0F84420C2F30E02A0F8F3
:1013B0004420704730B50246002000230024158ADF
:1013C00005EA0103958905EA010413B10CB1012076
:1013D00000E0002030BD1AB183890B43838102E015
:1013E00083898B438381704770B5002400220023DA
:1013F000058C4FF6FE7635400584028C8388048B7D
:101400004FF68F752C40B51E2C400D882C43751E51
:101410002A408D892A434D882A43104DA84202D084
:101420000F4DA84213D14FF6F7752A40CD892A43B4
:101430004FF6FB752A408D882A434FF6FF652B40F7
:101440004FF6FF552B400D8A2B434D8A2B4383804B
:1014500004838D684563028470BD00000000014074
:10146000000401400A460021018B4FF6F773194032
:10147000114301837047000070B50024002200234F
:10148000058C4FF6EF7635400584028C8388048BFB
:1014900048F6FF752C404FF6FF452C400D884FF65F
:1014A000FF7606EA05252C434FF6DF752A408D8925
:1014B00006EA05152A434D8806EA05152A43154D07
:1014C000A84202D0144DA8421DD14FF67F752A4084
:1014D000CD894FF6FF7606EA05152A434FF6BF750C
:1014E0002A408D8806EA05152A434FF6FF352B4022
:1014F0004FF2FF752B400D8A06EA85052B434D8A76
:1015000006EA85052B43838004838D688563028406
:1015100070BD000000000140000401400A460021A7
:10152000018B4FF2FF7319404FF6FF7303EA02235A
:10153000194301837047000070B500240022002386
:10154000058C4FF6FF6635400584028C8388848BBA
:101550004FF68F752C404FF6FC752C400D882C43B0
:101560004FF6FF552A408D894FF6FF7606EA05258E
:101570002A434D8806EA05252A43154DA84202D084
:10158000144DA8421DD14FF2FF752A40CD894FF668
:10159000FF7606EA05252A434FF6FF352A408D8857
:1015A00006EA05252A434EF6FF752B404DF6FF75DA
:1015B0002B400D8A06EA05152B434D8A06EA0515D0
:1015C0002B43838084838D68C563028470BD0000D3
:1015D00000000140000401400A460021818B4FF6C3
:1015E000F7731940114381837047000070B50022E2
:1015F00000230024058C4EF6FF7635400584038CCD
:101600008488828B48F6FF752A404FF6FF452A40B2
:101610000D884FF6FF7606EA05252A434DF6FF753D
:101620002B408D8906EA05352B434D8806EA0535A2
:101630002B430A4DA84202D0094DA84208D14BF6CF
:10164000FF752C400D8A4FF6FF7606EA85152C4370
:10165000848082838D680564038470BD000001402E
:10166000000401400A460021818B4FF2FF731940AC
:101670004FF6FF7303EA022319438183704700008A
:1016800000220288184B98420ED0184B98420BD07B
:10169000B0F1804F08D0164B984205D0154B9842B8
:1016A00002D0154B984204D14FF68F731A404B88E5
:1016B0001A43124B984207D0114B984204D04FF670
:1016C000FF431A400B891A4302804B68C3620B88A0
:1016D0000385054B984202D0044B984201D18B7A86
:1016E000038601238382704700000140000401400B
:1016F0000004004000080040000C004000100040C2
:101700000014004010B502233F480278012108462A
:10171000FFF712F93D48006844F62061B0FBF1F490
:10172000032322460B210120FFF730F90323384819
:1017300090ED000ABDEEC00A10EE102A0121022031
:10174000FFF746F90323334890ED000ABDEEC00AC7
:1017500010EE102A06210220FFF73AF903232E4843
:1017600090ED000ABDEEC00A10EE102A0B210220F7
:10177000FFF72EF90323294890ED000ABDEEC00AB9
:1017800010EE102A01211846FFF722F903232448FE
:1017900090ED000ABDEEC00A10EE102A0621184690
:1017A000FFF716F903231F4890ED000ABDEEC00AAB
:1017B00010EE102A0B211846FFF70AF903231A48E6
:1017C00090ED000ABDEEC00A10EE102A012104209F
:1017D000FFF7FEF80323154890ED000ABDEEC00A9E
:1017E00010EE102A06210420FFF7F2F80323104818
:1017F00090ED000ABDEEC00A10EE102A0B21042065
:10180000FFF7E6F810BD00000000002040000020B7
:10181000080000200C00002010000020180000200C
:101820001C00002020000020280000202C000020A8
:10183000300000200348007810B100BF00BF00BF97
:10184000704700000100002010B540F225511948F2
:1018500000F027F968B3174800F0DCF91649087062
:1018600008460178154802780078401C134B187020
:10187000134881541846007802280ADB1048007883
:10188000552803D10E484078552802D000200B4936
:1018900008700A4800780B2806DB0020074908700A
:1018A00007498878FFF78CF940F22551014800F08C
:1018B000DDF810BD004C0040140000201500002091
:1018C000CC00002010B540F22551194800F0E9F88D
:1018D00068B3174800F09EF9164908700846017869
:1018E000154802780078401C134B18701348815437
:1018F0001846007802280ADB10480078552803D1E2
:101900000E484078552802D000200B4908700A483C
:1019100000780B2806DB0020074908700749887803
:10192000FFF7ACF940F22551014800F09FF810BDD7
:101930000050004004000020050000206800002046
:1019400010B540F225511D4800F0ABF810B31B480C
:1019500000F060F9C4B21A48008800F40040C8B929
:101960001748008800F4804060B10A2C03D00020A2
:101970001349088020E01248008840F400401049D4
:10198000088019E00D2C06D10D48008840F48040F5
:101990000B49088010E00A480088C0F30D0009498F
:1019A0000C5407480088401C0549088008460088F8
:1019B000C72801DD0020088010BD00000010014094
:1019C000540000209401002010B540F22551094830
:1019D00000F067F860B140F22551064800F046F883
:1019E000044800F017F90449087001200349087001
:1019F00010BD000000440040000000200100002055
:101A000010B540F22551154800F04BF820B31348AB
:101A100000F000F912490870084601781148027870
:101A20000078401C0F4B18700F48815400785528DF
:101A300002D00020194608700A4800780B2806DBFF
:101A400000200849087008494878FFF775F940F206
:101A50002551024800F00AF810BD0000004800407F
:101A600024000020250000203001002010B50022B5
:101A7000002340F66A14A14200D100BF0A120124DB
:101A80009440A3B2DC43048010BD21B1828942F4AA
:101A90000052828104E082894DF6FF731A408281F0
:101AA000704770B50246002400230025002040F650
:101AB0006A16B14200D100BFC1F3421501F01F0305
:101AC000012606FA03F3012D02D19689334006E080
:101AD000022D02D1168A334001E0968A33400C125F
:101AE000012606FA04F41688344013B10CB1012023
:101AF00000E0002070BDF0B503460024002600255C
:101B0000002040F66A17B94200D100BF1846C1F361
:101B1000421401F01F06012707FA06F5012C01D136
:101B20000C3004E0022C01D1103000E014301AB166
:101B300007682F43076002E00768AF430760F0BD06
:101B40002DE9FF4705460E460024A14600BFA046EA
:101B5000B08900B100BF2C8A24F44054F0880443BB
:101B60002C82AC8941F20C608443B08831890843EF
:101B7000718908430443AC81AC8A24F44074B08971
:101B80000443AC826846FEF7A7FF2048854202D096
:101B90001F48854202D1DDF80C9001E0DDF8089085
:101BA000A88900F4004040B109EBC90000EB09101E
:101BB00031684900B0FBF1F707E009EBC90000EB21
:101BC000091031688900B0FBF1F76420B7FBF0F031
:101BD00004012009642101FB1078A88900F4004069
:101BE00040B1322000EBC800B0FBF1F000F007007C
:101BF000044308E0322000EB08106421B0FBF1F050
:101C000000F00F0004432C81BDE8FF870010014065
:101C10000014014001468888C0F30800704700BFE7
:101C2000FEE700BF7047000010B504466FF00400E7
:101C3000FFF70AFAE11704EB5171C1F3C701074A34
:101C400011701046007800EB4001C1EBC0104FF658
:101C5000FF7101EAC0000249088010BD4C0000205D
:101C60004E00002070B504464FF4077094FBF0F06E
:101C7000C6B24FF4077094FBF0F100FB114085B23F
:101C800005E04FF4077000F02FF8701EC6B2002E6A
:101C9000F7D115B1284600F027F870BD0146114A6A
:101CA00012784A434FF0E0235A6100229A611A46A3
:101CB000126942F001021A6100BF4FF0E022106980
:101CC00000F001021AB100F48032002AF5D04FF082
:101CD000E022126922F001024FF0E0231A61002293
:101CE0009A6170474C0000200146114A12884A430D
:101CF0004FF0E0235A6100229A611A46126942F0BD
:101D000001021A6100BF4FF0E022106900F00102E9
:101D10001AB100F48032002AF5D04FF0E0221269A7
:101D200022F001024FF0E0231A6100229A6170470D
:101D30004E00002000BF054A128802F04002002A2F
:101D4000F9D0C2B2014B9A807047000000100140E8
:101D5000FFF790F903E0FFF76DFDFFF7D3FCFAE71B
:101D600010B588B0044601210820FEF785FE012148
:101D70004804FEF791FE072205212348FEF745FBA4
:101D8000072206212048FEF740FB60200690022033
:101D90008DF81C0000208DF81E0002208DF81D001B
:101DA00001208DF81F0006A91748FEF7E6FA262045
:101DB0008DF8040003208DF8050002208DF8060040
:101DC00001208DF8070001A8FEF7CCFB029400204B
:101DD000ADF80C00ADF80E00ADF81000ADF8140031
:101DE0000C20ADF8120002A90848FFF7A9FE012255
:101DF00040F225510548FFF77EFE01210348FFF719
:101E000044FE08B010BD0000000C02400044004039
:101E100010B588B0044601210820FEF72DFE0121EF
:101E20008804FEF739FE072208212248FEF7EDFA62
:101E3000072209211F48FEF7E8FA4FF44070069088
:101E400002208DF81C008DF81D0000208DF81E006A
:101E500001208DF81F0006A91648FEF78EFA02949D
:101E60000020ADF80C00ADF80E00ADF81000ADF894
:101E700014000C20ADF8120002A90F48FFF760FE15
:101E800001210D48FFF701FE012240F225510A48C9
:101E9000FFF731FE27208DF8040003208DF80500A0
:101EA0008DF8060001208DF8070001A8FEF75AFB07
:101EB00008B010BD000C02400048004010B588B0CA
:101EC000044601210420FEF7D7FD0121C804FEF7D6
:101ED000E3FD08220A212248FEF797FA08220B2187
:101EE0001F48FEF792FA4FF44060069002208DF8EA
:101EF0001C008DF81D0000208DF81E0001208DF8BB
:101F00001F0006A91648FEF738FA02940020ADF823
:101F10000C00ADF80E00ADF81000ADF814000C2068
:101F2000ADF8120034208DF8040003208DF8050070
:101F30008DF8060001208DF8070001A8FEF712FBBE
:101F400002A90848FFF7FCFD012240F2255105488F
:101F5000FFF7D1FD01210348FFF797FD08B010BD41
:101F600000080240004C004010B58AB00446012130
:101F70000C20FEF781FD01210805FEF78DFD0822EA
:101F80000C212B48FEF741FA082202212948FEF7CE
:101F90003CFA4FF48050089002208DF824008DF810
:101FA000250000208DF8260001208DF8270008A9C3
:101FB0001F48FEF7E2F90420069002208DF81C006D
:101FC0008DF81D0000208DF81E0001208DF81F00E7
:101FD00006A91848FEF7D1F902940020ADF80C00CC
:101FE000ADF80E00ADF81000ADF814000C20ADF8FF
:101FF000120035208DF8040003208DF805008DF8BF
:10200000060001208DF8070001A8FEF7ABFA02A92F
:102010000948FFF795FD012240F225510648FFF7D8
:102020006AFD01210448FFF730FD0AB010BD000031
:1020300000080240000C02400050004010B588B07B
:10204000044601210846FEF717FD01211020FEF786
:1020500033FD072209212248FEF7D7F907220A217A
:102060001F48FEF7D2F94FF4C060069002208DF8A9
:102070001C008DF81D0000208DF81E0001208DF839
:102080001F0006A91648FEF778F902940020ADF863
:102090000C00ADF80E00ADF81000ADF814000C20E7
:1020A000ADF8120002A90F48FFF74AFD01210D48C3
:1020B000FFF7EBFC012240F225510A48FFF71BFD18
:1020C00025208DF8040003208DF805008DF806000A
:1020D00001208DF8070001A8FEF744FA08B010BDF2
:1020E00000000240001001404FF04070E1EE100A85
:1020F0007047000000000000000000000000000029
:102100000000000000F80000000000000033300074
:10211000000000100C06100C06000000000000007B
:10212000000040C07840C0784000043F04043F04F1
:102130000400007088FC08300000001820FF211EF9
:102140000000F008F000E018000000211C031E2130
:102150001E0000F00888700000001E2123241927AB
:10216000211010160E00000000000000000000000A
:102170000000000000E01804020000000007182022
:10218000400000020418E000000000402018070092
:102190000000404080F0804040000202010F010238
:1021A0000200000000F0000000000101011F010119
:1021B0000100000000000000000080B0700000007E
:1021C000000000000000000000000001010101010A
:1021D000010100000000000000000030300000009D
:1021E0000000000000008060180400601806010074
:1021F000000000E010080810E000000F1020201080
:102200000F00001010F8000000000020203F2020E8
:10221000000000700808088870000030282422217F
:102220003000003008888848300000182020201135
:102230000E000000C02010F8000000070424243F16
:10224000240000F8088888080800001921202011BF
:102250000E0000E0108888180000000F11202011E7
:102260000E0000380808C83808000000003F0000D1
:1022700000000070880808887000001C22212122BC
:102280001C0000E010080810E000000031222211BC
:102290000F00000000C0C00000000000003030004F
:1022A00000000000008000000000000080600000CE
:1022B0000000000080402010080000010204081007
:1022C0002000404040404040400004040404040416
:1022D00004000008102040800000002010080402C4
:1022E0000100007048080808F000000000303601C6
:1022F0000000C030C828E810E00007182724231485
:102300000B000000C038E0000000203C2302022740
:10231000382008F8888888700000203F202020118D
:102320000E00C030080808083800071820202010C8
:10233000080008F808080810E000203F20202010BE
:102340000F0008F88888E8081000203F202023208C
:10235000180008F88888E8081000203F20000300D3
:102360000000C03008080838000007182020221E8E
:10237000020008F808000008F808203F21010121A8
:102380003F20000808F8080800000020203F202017
:10239000000000000808F8080800C08080807F0066
:1023A000000008F888C028180800203F20012638BF
:1023B000200008F8080000000000203F2020202016
:1023C000300008F8F800F8F80800203F003F003F10
:1023D000200008F830C00008F808203F2000071847
:1023E0003F00E01008080810E0000F102020201027
:1023F0000F0008F808080808F000203F210101013B
:102400000000E01008080810E0000F1824243850DD
:102410004F0008F8888888887000203F2000030C4F
:102420003020007088080808380000382021212258
:102430001C00180808F8080818000000203F2000B9
:10244000000008F808000008F808001F20202020DD
:102450001F000878880000C83808000007380E01FF
:102460000000F80800F80008F800033C0700073CEB
:102470000300081868808068180820302C03032C9B
:1024800030200838C800C83808000000203F20006D
:10249000000010080808C83808002038262120202D
:1024A0001800000000FE020202000000007F404011
:1024B0004000000C30C000000000000000010638A1
:1024C000C00000020202FE000000004040407F0009
:1024D00000000000040202020400000000000000EE
:1024E00000000000000000000000808080808080EC
:1024F00080800002020400000000000000000000D4
:102500000000000080808080000000192422222228
:102510003F2008F8008080000000003F11202011BB
:102520000E000000008080800000000E112020209E
:102530001100000000808088F800000E112020109B
:102540003F200000808080800000001F2222222285
:102550001300008080F0888888180020203F202009
:1025600000000000808080808000006B9494949331
:10257000600008F8008080800000203F21000020DB
:102580003F2000809898000000000020203F20207D
:102590000000000000809898000000C08080807FCC
:1025A000000008F8000080808000203F24022D30C9
:1025B0002000000808F8000000000020203F202034
:1025C00000008080808080808000203F20003F20AD
:1025D000003F8080008080800000203F210000209C
:1025E0003F200000808080800000001F20202020ED
:1025F0001F00808000808000000080FFA12020114B
:102600000E000000008080808000000E112020A0BD
:10261000FF80808080008080800020203F2120007B
:102620000100000080808080800000332424242466
:102630001900008080E0808000000000001F202042
:1026400000008080000000808000001F20202010FB
:102650003F20808080000080808000010E300806CE
:10266000010080800080008080800F300C030C30DF
:102670000F0000808000808080000020312E0E310D
:102680002000808080000080808080818E7018060D
:10269000010000808080808080000021302C222179
:1026A000300000000000807C020200000000003FBB
:1026B000404000000000FF00000000000000FF009C
:1026C00000000002027C800000000040403F00004B
:1026D00000000006010102020404000000000000E6
:1026E000000000000427000800000020680000002F
:1026F000C40100086C27000868000020580800008A
:10270000E0010008000000000000000000000000E0
:1027100000000000000000000000000000000000B9
:1027200000000000000000000000000000000000A9
:102730000000000000000000000000000000000099
:102740000000000000000000000000000000000089
:102750000000000000000000000000000000010276
:0C2760000304010203040607080900003E
:040000050800018965
:00000001FF
